{
  "_format": "hh-sol-artifact-1",
  "contractName": "ArcGovernance",
  "sourceName": "contracts/ArcGovernance.sol",
  "abi": [
    {
      "inputs": [
        {
          "internalType": "contract IVotes",
          "name": "_token",
          "type": "address"
        },
        {
          "internalType": "contract TimelockController",
          "name": "_timelock",
          "type": "address"
        },
        {
          "internalType": "uint48",
          "name": "_votingDelay",
          "type": "uint48"
        },
        {
          "internalType": "uint32",
          "name": "_votingPeriod",
          "type": "uint32"
        },
        {
          "internalType": "uint256",
          "name": "_proposalThreshold",
          "type": "uint256"
        }
      ],
      "stateMutability": "nonpayable",
      "type": "constructor"
    },
    {
      "inputs": [],
      "name": "CheckpointUnorderedInsertion",
      "type": "error"
    },
    {
      "inputs": [],
      "name": "FailedCall",
      "type": "error"
    },
    {
      "inputs": [
        {
          "internalType": "address",
          "name": "voter",
          "type": "address"
        }
      ],
      "name": "GovernorAlreadyCastVote",
      "type": "error"
    },
    {
      "inputs": [
        {
          "internalType": "uint256",
          "name": "proposalId",
          "type": "uint256"
        }
      ],
      "name": "GovernorAlreadyQueuedProposal",
      "type": "error"
    },
    {
      "inputs": [],
      "name": "GovernorDisabledDeposit",
      "type": "error"
    },
    {
      "inputs": [
        {
          "internalType": "address",
          "name": "proposer",
          "type": "address"
        },
        {
          "internalType": "uint256",
          "name": "votes",
          "type": "uint256"
        },
        {
          "internalType": "uint256",
          "name": "threshold",
          "type": "uint256"
        }
      ],
      "name": "GovernorInsufficientProposerVotes",
      "type": "error"
    },
    {
      "inputs": [
        {
          "internalType": "uint256",
          "name": "targets",
          "type": "uint256"
        },
        {
          "internalType": "uint256",
          "name": "calldatas",
          "type": "uint256"
        },
        {
          "internalType": "uint256",
          "name": "values",
          "type": "uint256"
        }
      ],
      "name": "GovernorInvalidProposalLength",
      "type": "error"
    },
    {
      "inputs": [
        {
          "internalType": "uint256",
          "name": "quorumNumerator",
          "type": "uint256"
        },
        {
          "internalType": "uint256",
          "name": "quorumDenominator",
          "type": "uint256"
        }
      ],
      "name": "GovernorInvalidQuorumFraction",
      "type": "error"
    },
    {
      "inputs": [
        {
          "internalType": "address",
          "name": "voter",
          "type": "address"
        }
      ],
      "name": "GovernorInvalidSignature",
      "type": "error"
    },
    {
      "inputs": [],
      "name": "GovernorInvalidVoteParams",
      "type": "error"
    },
    {
      "inputs": [],
      "name": "GovernorInvalidVoteType",
      "type": "error"
    },
    {
      "inputs": [
        {
          "internalType": "uint256",
          "name": "votingPeriod",
          "type": "uint256"
        }
      ],
      "name": "GovernorInvalidVotingPeriod",
      "type": "error"
    },
    {
      "inputs": [
        {
          "internalType": "uint256",
          "name": "proposalId",
          "type": "uint256"
        }
      ],
      "name": "GovernorNonexistentProposal",
      "type": "error"
    },
    {
      "inputs": [
        {
          "internalType": "uint256",
          "name": "proposalId",
          "type": "uint256"
        }
      ],
      "name": "GovernorNotQueuedProposal",
      "type": "error"
    },
    {
      "inputs": [
        {
          "internalType": "address",
          "name": "account",
          "type": "address"
        }
      ],
      "name": "GovernorOnlyExecutor",
      "type": "error"
    },
    {
      "inputs": [],
      "name": "GovernorQueueNotImplemented",
      "type": "error"
    },
    {
      "inputs": [
        {
          "internalType": "address",
          "name": "proposer",
          "type": "address"
        }
      ],
      "name": "GovernorRestrictedProposer",
      "type": "error"
    },
    {
      "inputs": [
        {
          "internalType": "uint256",
          "name": "proposalId",
          "type": "uint256"
        },
        {
          "internalType": "address",
          "name": "account",
          "type": "address"
        }
      ],
      "name": "GovernorUnableToCancel",
      "type": "error"
    },
    {
      "inputs": [
        {
          "internalType": "uint256",
          "name": "proposalId",
          "type": "uint256"
        },
        {
          "internalType": "enum IGovernor.ProposalState",
          "name": "current",
          "type": "uint8"
        },
        {
          "internalType": "bytes32",
          "name": "expectedStates",
          "type": "bytes32"
        }
      ],
      "name": "GovernorUnexpectedProposalState",
      "type": "error"
    },
    {
      "inputs": [
        {
          "internalType": "address",
          "name": "account",
          "type": "address"
        },
        {
          "internalType": "uint256",
          "name": "currentNonce",
          "type": "uint256"
        }
      ],
      "name": "InvalidAccountNonce",
      "type": "error"
    },
    {
      "inputs": [],
      "name": "InvalidShortString",
      "type": "error"
    },
    {
      "inputs": [
        {
          "internalType": "uint8",
          "name": "bits",
          "type": "uint8"
        },
        {
          "internalType": "uint256",
          "name": "value",
          "type": "uint256"
        }
      ],
      "name": "SafeCastOverflowedUintDowncast",
      "type": "error"
    },
    {
      "inputs": [
        {
          "internalType": "string",
          "name": "str",
          "type": "string"
        }
      ],
      "name": "StringTooLong",
      "type": "error"
    },
    {
      "anonymous": false,
      "inputs": [],
      "name": "EIP712DomainChanged",
      "type": "event"
    },
    {
      "anonymous": false,
      "inputs": [
        {
          "indexed": false,
          "internalType": "uint256",
          "name": "proposalId",
          "type": "uint256"
        }
      ],
      "name": "ProposalCanceled",
      "type": "event"
    },
    {
      "anonymous": false,
      "inputs": [
        {
          "indexed": false,
          "internalType": "uint256",
          "name": "proposalId",
          "type": "uint256"
        },
        {
          "indexed": false,
          "internalType": "address",
          "name": "proposer",
          "type": "address"
        },
        {
          "indexed": false,
          "internalType": "address[]",
          "name": "targets",
          "type": "address[]"
        },
        {
          "indexed": false,
          "internalType": "uint256[]",
          "name": "values",
          "type": "uint256[]"
        },
        {
          "indexed": false,
          "internalType": "string[]",
          "name": "signatures",
          "type": "string[]"
        },
        {
          "indexed": false,
          "internalType": "bytes[]",
          "name": "calldatas",
          "type": "bytes[]"
        },
        {
          "indexed": false,
          "internalType": "uint256",
          "name": "voteStart",
          "type": "uint256"
        },
        {
          "indexed": false,
          "internalType": "uint256",
          "name": "voteEnd",
          "type": "uint256"
        },
        {
          "indexed": false,
          "internalType": "string",
          "name": "description",
          "type": "string"
        }
      ],
      "name": "ProposalCreated",
      "type": "event"
    },
    {
      "anonymous": false,
      "inputs": [
        {
          "indexed": true,
          "internalType": "uint256",
          "name": "proposalId",
          "type": "uint256"
        },
        {
          "indexed": true,
          "internalType": "address",
          "name": "proposer",
          "type": "address"
        },
        {
          "indexed": false,
          "internalType": "string",
          "name": "title",
          "type": "string"
        },
        {
          "indexed": false,
          "internalType": "string",
          "name": "description",
          "type": "string"
        }
      ],
      "name": "ProposalCreatedWithDescription",
      "type": "event"
    },
    {
      "anonymous": false,
      "inputs": [
        {
          "indexed": false,
          "internalType": "uint256",
          "name": "proposalId",
          "type": "uint256"
        }
      ],
      "name": "ProposalExecuted",
      "type": "event"
    },
    {
      "anonymous": false,
      "inputs": [
        {
          "indexed": false,
          "internalType": "uint256",
          "name": "proposalId",
          "type": "uint256"
        },
        {
          "indexed": false,
          "internalType": "uint256",
          "name": "etaSeconds",
          "type": "uint256"
        }
      ],
      "name": "ProposalQueued",
      "type": "event"
    },
    {
      "anonymous": false,
      "inputs": [
        {
          "indexed": false,
          "internalType": "uint256",
          "name": "oldProposalThreshold",
          "type": "uint256"
        },
        {
          "indexed": false,
          "internalType": "uint256",
          "name": "newProposalThreshold",
          "type": "uint256"
        }
      ],
      "name": "ProposalThresholdSet",
      "type": "event"
    },
    {
      "anonymous": false,
      "inputs": [
        {
          "indexed": false,
          "internalType": "uint256",
          "name": "oldQuorumNumerator",
          "type": "uint256"
        },
        {
          "indexed": false,
          "internalType": "uint256",
          "name": "newQuorumNumerator",
          "type": "uint256"
        }
      ],
      "name": "QuorumNumeratorUpdated",
      "type": "event"
    },
    {
      "anonymous": false,
      "inputs": [
        {
          "indexed": false,
          "internalType": "address",
          "name": "oldTimelock",
          "type": "address"
        },
        {
          "indexed": false,
          "internalType": "address",
          "name": "newTimelock",
          "type": "address"
        }
      ],
      "name": "TimelockChange",
      "type": "event"
    },
    {
      "anonymous": false,
      "inputs": [
        {
          "indexed": true,
          "internalType": "address",
          "name": "voter",
          "type": "address"
        },
        {
          "indexed": false,
          "internalType": "uint256",
          "name": "proposalId",
          "type": "uint256"
        },
        {
          "indexed": false,
          "internalType": "uint8",
          "name": "support",
          "type": "uint8"
        },
        {
          "indexed": false,
          "internalType": "uint256",
          "name": "weight",
          "type": "uint256"
        },
        {
          "indexed": false,
          "internalType": "string",
          "name": "reason",
          "type": "string"
        }
      ],
      "name": "VoteCast",
      "type": "event"
    },
    {
      "anonymous": false,
      "inputs": [
        {
          "indexed": true,
          "internalType": "address",
          "name": "voter",
          "type": "address"
        },
        {
          "indexed": false,
          "internalType": "uint256",
          "name": "proposalId",
          "type": "uint256"
        },
        {
          "indexed": false,
          "internalType": "uint8",
          "name": "support",
          "type": "uint8"
        },
        {
          "indexed": false,
          "internalType": "uint256",
          "name": "weight",
          "type": "uint256"
        },
        {
          "indexed": false,
          "internalType": "string",
          "name": "reason",
          "type": "string"
        },
        {
          "indexed": false,
          "internalType": "bytes",
          "name": "params",
          "type": "bytes"
        }
      ],
      "name": "VoteCastWithParams",
      "type": "event"
    },
    {
      "anonymous": false,
      "inputs": [
        {
          "indexed": false,
          "internalType": "uint256",
          "name": "oldVotingDelay",
          "type": "uint256"
        },
        {
          "indexed": false,
          "internalType": "uint256",
          "name": "newVotingDelay",
          "type": "uint256"
        }
      ],
      "name": "VotingDelaySet",
      "type": "event"
    },
    {
      "anonymous": false,
      "inputs": [
        {
          "indexed": false,
          "internalType": "uint256",
          "name": "oldVotingPeriod",
          "type": "uint256"
        },
        {
          "indexed": false,
          "internalType": "uint256",
          "name": "newVotingPeriod",
          "type": "uint256"
        }
      ],
      "name": "VotingPeriodSet",
      "type": "event"
    },
    {
      "inputs": [],
      "name": "BALLOT_TYPEHASH",
      "outputs": [
        {
          "internalType": "bytes32",
          "name": "",
          "type": "bytes32"
        }
      ],
      "stateMutability": "view",
      "type": "function"
    },
    {
      "inputs": [],
      "name": "CLOCK_MODE",
      "outputs": [
        {
          "internalType": "string",
          "name": "",
          "type": "string"
        }
      ],
      "stateMutability": "view",
      "type": "function"
    },
    {
      "inputs": [],
      "name": "COUNTING_MODE",
      "outputs": [
        {
          "internalType": "string",
          "name": "",
          "type": "string"
        }
      ],
      "stateMutability": "pure",
      "type": "function"
    },
    {
      "inputs": [],
      "name": "EXTENDED_BALLOT_TYPEHASH",
      "outputs": [
        {
          "internalType": "bytes32",
          "name": "",
          "type": "bytes32"
        }
      ],
      "stateMutability": "view",
      "type": "function"
    },
    {
      "inputs": [
        {
          "internalType": "address[]",
          "name": "targets",
          "type": "address[]"
        },
        {
          "internalType": "uint256[]",
          "name": "values",
          "type": "uint256[]"
        },
        {
          "internalType": "bytes[]",
          "name": "calldatas",
          "type": "bytes[]"
        },
        {
          "internalType": "bytes32",
          "name": "descriptionHash",
          "type": "bytes32"
        }
      ],
      "name": "cancel",
      "outputs": [
        {
          "internalType": "uint256",
          "name": "",
          "type": "uint256"
        }
      ],
      "stateMutability": "nonpayable",
      "type": "function"
    },
    {
      "inputs": [
        {
          "internalType": "uint256",
          "name": "proposalId",
          "type": "uint256"
        },
        {
          "internalType": "uint8",
          "name": "support",
          "type": "uint8"
        }
      ],
      "name": "castVote",
      "outputs": [
        {
          "internalType": "uint256",
          "name": "",
          "type": "uint256"
        }
      ],
      "stateMutability": "nonpayable",
      "type": "function"
    },
    {
      "inputs": [
        {
          "internalType": "uint256",
          "name": "proposalId",
          "type": "uint256"
        },
        {
          "internalType": "uint8",
          "name": "support",
          "type": "uint8"
        },
        {
          "internalType": "address",
          "name": "voter",
          "type": "address"
        },
        {
          "internalType": "bytes",
          "name": "signature",
          "type": "bytes"
        }
      ],
      "name": "castVoteBySig",
      "outputs": [
        {
          "internalType": "uint256",
          "name": "",
          "type": "uint256"
        }
      ],
      "stateMutability": "nonpayable",
      "type": "function"
    },
    {
      "inputs": [
        {
          "internalType": "uint256",
          "name": "proposalId",
          "type": "uint256"
        },
        {
          "internalType": "uint8",
          "name": "support",
          "type": "uint8"
        },
        {
          "internalType": "string",
          "name": "reason",
          "type": "string"
        }
      ],
      "name": "castVoteWithReason",
      "outputs": [
        {
          "internalType": "uint256",
          "name": "",
          "type": "uint256"
        }
      ],
      "stateMutability": "nonpayable",
      "type": "function"
    },
    {
      "inputs": [
        {
          "internalType": "uint256",
          "name": "proposalId",
          "type": "uint256"
        },
        {
          "internalType": "uint8",
          "name": "support",
          "type": "uint8"
        },
        {
          "internalType": "string",
          "name": "reason",
          "type": "string"
        },
        {
          "internalType": "bytes",
          "name": "params",
          "type": "bytes"
        }
      ],
      "name": "castVoteWithReasonAndParams",
      "outputs": [
        {
          "internalType": "uint256",
          "name": "",
          "type": "uint256"
        }
      ],
      "stateMutability": "nonpayable",
      "type": "function"
    },
    {
      "inputs": [
        {
          "internalType": "uint256",
          "name": "proposalId",
          "type": "uint256"
        },
        {
          "internalType": "uint8",
          "name": "support",
          "type": "uint8"
        },
        {
          "internalType": "address",
          "name": "voter",
          "type": "address"
        },
        {
          "internalType": "string",
          "name": "reason",
          "type": "string"
        },
        {
          "internalType": "bytes",
          "name": "params",
          "type": "bytes"
        },
        {
          "internalType": "bytes",
          "name": "signature",
          "type": "bytes"
        }
      ],
      "name": "castVoteWithReasonAndParamsBySig",
      "outputs": [
        {
          "internalType": "uint256",
          "name": "",
          "type": "uint256"
        }
      ],
      "stateMutability": "nonpayable",
      "type": "function"
    },
    {
      "inputs": [],
      "name": "clock",
      "outputs": [
        {
          "internalType": "uint48",
          "name": "",
          "type": "uint48"
        }
      ],
      "stateMutability": "view",
      "type": "function"
    },
    {
      "inputs": [],
      "name": "eip712Domain",
      "outputs": [
        {
          "internalType": "bytes1",
          "name": "fields",
          "type": "bytes1"
        },
        {
          "internalType": "string",
          "name": "name",
          "type": "string"
        },
        {
          "internalType": "string",
          "name": "version",
          "type": "string"
        },
        {
          "internalType": "uint256",
          "name": "chainId",
          "type": "uint256"
        },
        {
          "internalType": "address",
          "name": "verifyingContract",
          "type": "address"
        },
        {
          "internalType": "bytes32",
          "name": "salt",
          "type": "bytes32"
        },
        {
          "internalType": "uint256[]",
          "name": "extensions",
          "type": "uint256[]"
        }
      ],
      "stateMutability": "view",
      "type": "function"
    },
    {
      "inputs": [
        {
          "internalType": "address[]",
          "name": "targets",
          "type": "address[]"
        },
        {
          "internalType": "uint256[]",
          "name": "values",
          "type": "uint256[]"
        },
        {
          "internalType": "bytes[]",
          "name": "calldatas",
          "type": "bytes[]"
        },
        {
          "internalType": "bytes32",
          "name": "descriptionHash",
          "type": "bytes32"
        }
      ],
      "name": "execute",
      "outputs": [
        {
          "internalType": "uint256",
          "name": "",
          "type": "uint256"
        }
      ],
      "stateMutability": "payable",
      "type": "function"
    },
    {
      "inputs": [
        {
          "internalType": "address[]",
          "name": "targets",
          "type": "address[]"
        },
        {
          "internalType": "uint256[]",
          "name": "values",
          "type": "uint256[]"
        },
        {
          "internalType": "bytes[]",
          "name": "calldatas",
          "type": "bytes[]"
        },
        {
          "internalType": "bytes32",
          "name": "descriptionHash",
          "type": "bytes32"
        }
      ],
      "name": "getProposalId",
      "outputs": [
        {
          "internalType": "uint256",
          "name": "",
          "type": "uint256"
        }
      ],
      "stateMutability": "view",
      "type": "function"
    },
    {
      "inputs": [
        {
          "internalType": "uint256",
          "name": "proposalId",
          "type": "uint256"
        }
      ],
      "name": "getProposalMetadata",
      "outputs": [
        {
          "internalType": "string",
          "name": "title",
          "type": "string"
        },
        {
          "internalType": "string",
          "name": "description",
          "type": "string"
        },
        {
          "internalType": "string",
          "name": "category",
          "type": "string"
        },
        {
          "internalType": "address",
          "name": "proposer",
          "type": "address"
        },
        {
          "internalType": "uint256",
          "name": "createdAt",
          "type": "uint256"
        }
      ],
      "stateMutability": "view",
      "type": "function"
    },
    {
      "inputs": [
        {
          "internalType": "address",
          "name": "account",
          "type": "address"
        },
        {
          "internalType": "uint256",
          "name": "timepoint",
          "type": "uint256"
        }
      ],
      "name": "getVotes",
      "outputs": [
        {
          "internalType": "uint256",
          "name": "",
          "type": "uint256"
        }
      ],
      "stateMutability": "view",
      "type": "function"
    },
    {
      "inputs": [
        {
          "internalType": "address",
          "name": "account",
          "type": "address"
        },
        {
          "internalType": "uint256",
          "name": "timepoint",
          "type": "uint256"
        },
        {
          "internalType": "bytes",
          "name": "params",
          "type": "bytes"
        }
      ],
      "name": "getVotesWithParams",
      "outputs": [
        {
          "internalType": "uint256",
          "name": "",
          "type": "uint256"
        }
      ],
      "stateMutability": "view",
      "type": "function"
    },
    {
      "inputs": [
        {
          "internalType": "uint256",
          "name": "proposalId",
          "type": "uint256"
        },
        {
          "internalType": "address",
          "name": "account",
          "type": "address"
        }
      ],
      "name": "hasVoted",
      "outputs": [
        {
          "internalType": "bool",
          "name": "",
          "type": "bool"
        }
      ],
      "stateMutability": "view",
      "type": "function"
    },
    {
      "inputs": [
        {
          "internalType": "address[]",
          "name": "targets",
          "type": "address[]"
        },
        {
          "internalType": "uint256[]",
          "name": "values",
          "type": "uint256[]"
        },
        {
          "internalType": "bytes[]",
          "name": "calldatas",
          "type": "bytes[]"
        },
        {
          "internalType": "bytes32",
          "name": "descriptionHash",
          "type": "bytes32"
        }
      ],
      "name": "hashProposal",
      "outputs": [
        {
          "internalType": "uint256",
          "name": "",
          "type": "uint256"
        }
      ],
      "stateMutability": "pure",
      "type": "function"
    },
    {
      "inputs": [],
      "name": "name",
      "outputs": [
        {
          "internalType": "string",
          "name": "",
          "type": "string"
        }
      ],
      "stateMutability": "view",
      "type": "function"
    },
    {
      "inputs": [
        {
          "internalType": "address",
          "name": "owner",
          "type": "address"
        }
      ],
      "name": "nonces",
      "outputs": [
        {
          "internalType": "uint256",
          "name": "",
          "type": "uint256"
        }
      ],
      "stateMutability": "view",
      "type": "function"
    },
    {
      "inputs": [
        {
          "internalType": "address",
          "name": "",
          "type": "address"
        },
        {
          "internalType": "address",
          "name": "",
          "type": "address"
        },
        {
          "internalType": "uint256[]",
          "name": "",
          "type": "uint256[]"
        },
        {
          "internalType": "uint256[]",
          "name": "",
          "type": "uint256[]"
        },
        {
          "internalType": "bytes",
          "name": "",
          "type": "bytes"
        }
      ],
      "name": "onERC1155BatchReceived",
      "outputs": [
        {
          "internalType": "bytes4",
          "name": "",
          "type": "bytes4"
        }
      ],
      "stateMutability": "nonpayable",
      "type": "function"
    },
    {
      "inputs": [
        {
          "internalType": "address",
          "name": "",
          "type": "address"
        },
        {
          "internalType": "address",
          "name": "",
          "type": "address"
        },
        {
          "internalType": "uint256",
          "name": "",
          "type": "uint256"
        },
        {
          "internalType": "uint256",
          "name": "",
          "type": "uint256"
        },
        {
          "internalType": "bytes",
          "name": "",
          "type": "bytes"
        }
      ],
      "name": "onERC1155Received",
      "outputs": [
        {
          "internalType": "bytes4",
          "name": "",
          "type": "bytes4"
        }
      ],
      "stateMutability": "nonpayable",
      "type": "function"
    },
    {
      "inputs": [
        {
          "internalType": "address",
          "name": "",
          "type": "address"
        },
        {
          "internalType": "address",
          "name": "",
          "type": "address"
        },
        {
          "internalType": "uint256",
          "name": "",
          "type": "uint256"
        },
        {
          "internalType": "bytes",
          "name": "",
          "type": "bytes"
        }
      ],
      "name": "onERC721Received",
      "outputs": [
        {
          "internalType": "bytes4",
          "name": "",
          "type": "bytes4"
        }
      ],
      "stateMutability": "nonpayable",
      "type": "function"
    },
    {
      "inputs": [
        {
          "internalType": "uint256",
          "name": "proposalId",
          "type": "uint256"
        }
      ],
      "name": "proposalDeadline",
      "outputs": [
        {
          "internalType": "uint256",
          "name": "",
          "type": "uint256"
        }
      ],
      "stateMutability": "view",
      "type": "function"
    },
    {
      "inputs": [
        {
          "internalType": "uint256",
          "name": "proposalId",
          "type": "uint256"
        }
      ],
      "name": "proposalEta",
      "outputs": [
        {
          "internalType": "uint256",
          "name": "",
          "type": "uint256"
        }
      ],
      "stateMutability": "view",
      "type": "function"
    },
    {
      "inputs": [
        {
          "internalType": "uint256",
          "name": "",
          "type": "uint256"
        }
      ],
      "name": "proposalMetadata",
      "outputs": [
        {
          "internalType": "string",
          "name": "title",
          "type": "string"
        },
        {
          "internalType": "string",
          "name": "description",
          "type": "string"
        },
        {
          "internalType": "string",
          "name": "category",
          "type": "string"
        },
        {
          "internalType": "address",
          "name": "proposer",
          "type": "address"
        },
        {
          "internalType": "uint256",
          "name": "createdAt",
          "type": "uint256"
        }
      ],
      "stateMutability": "view",
      "type": "function"
    },
    {
      "inputs": [
        {
          "internalType": "uint256",
          "name": "proposalId",
          "type": "uint256"
        }
      ],
      "name": "proposalNeedsQueuing",
      "outputs": [
        {
          "internalType": "bool",
          "name": "",
          "type": "bool"
        }
      ],
      "stateMutability": "view",
      "type": "function"
    },
    {
      "inputs": [
        {
          "internalType": "uint256",
          "name": "proposalId",
          "type": "uint256"
        }
      ],
      "name": "proposalProposer",
      "outputs": [
        {
          "internalType": "address",
          "name": "",
          "type": "address"
        }
      ],
      "stateMutability": "view",
      "type": "function"
    },
    {
      "inputs": [
        {
          "internalType": "uint256",
          "name": "proposalId",
          "type": "uint256"
        }
      ],
      "name": "proposalSnapshot",
      "outputs": [
        {
          "internalType": "uint256",
          "name": "",
          "type": "uint256"
        }
      ],
      "stateMutability": "view",
      "type": "function"
    },
    {
      "inputs": [],
      "name": "proposalThreshold",
      "outputs": [
        {
          "internalType": "uint256",
          "name": "",
          "type": "uint256"
        }
      ],
      "stateMutability": "view",
      "type": "function"
    },
    {
      "inputs": [
        {
          "internalType": "uint256",
          "name": "proposalId",
          "type": "uint256"
        }
      ],
      "name": "proposalVotes",
      "outputs": [
        {
          "internalType": "uint256",
          "name": "againstVotes",
          "type": "uint256"
        },
        {
          "internalType": "uint256",
          "name": "forVotes",
          "type": "uint256"
        },
        {
          "internalType": "uint256",
          "name": "abstainVotes",
          "type": "uint256"
        }
      ],
      "stateMutability": "view",
      "type": "function"
    },
    {
      "inputs": [
        {
          "internalType": "address[]",
          "name": "targets",
          "type": "address[]"
        },
        {
          "internalType": "uint256[]",
          "name": "values",
          "type": "uint256[]"
        },
        {
          "internalType": "bytes[]",
          "name": "calldatas",
          "type": "bytes[]"
        },
        {
          "internalType": "string",
          "name": "description",
          "type": "string"
        }
      ],
      "name": "propose",
      "outputs": [
        {
          "internalType": "uint256",
          "name": "",
          "type": "uint256"
        }
      ],
      "stateMutability": "nonpayable",
      "type": "function"
    },
    {
      "inputs": [
        {
          "internalType": "address[]",
          "name": "targets",
          "type": "address[]"
        },
        {
          "internalType": "uint256[]",
          "name": "values",
          "type": "uint256[]"
        },
        {
          "internalType": "bytes[]",
          "name": "calldatas",
          "type": "bytes[]"
        },
        {
          "internalType": "string",
          "name": "title",
          "type": "string"
        },
        {
          "internalType": "string",
          "name": "description",
          "type": "string"
        },
        {
          "internalType": "string",
          "name": "category",
          "type": "string"
        }
      ],
      "name": "proposeWithMetadata",
      "outputs": [
        {
          "internalType": "uint256",
          "name": "",
          "type": "uint256"
        }
      ],
      "stateMutability": "nonpayable",
      "type": "function"
    },
    {
      "inputs": [
        {
          "internalType": "address[]",
          "name": "targets",
          "type": "address[]"
        },
        {
          "internalType": "uint256[]",
          "name": "values",
          "type": "uint256[]"
        },
        {
          "internalType": "bytes[]",
          "name": "calldatas",
          "type": "bytes[]"
        },
        {
          "internalType": "bytes32",
          "name": "descriptionHash",
          "type": "bytes32"
        }
      ],
      "name": "queue",
      "outputs": [
        {
          "internalType": "uint256",
          "name": "",
          "type": "uint256"
        }
      ],
      "stateMutability": "nonpayable",
      "type": "function"
    },
    {
      "inputs": [
        {
          "internalType": "uint256",
          "name": "blockNumber",
          "type": "uint256"
        }
      ],
      "name": "quorum",
      "outputs": [
        {
          "internalType": "uint256",
          "name": "",
          "type": "uint256"
        }
      ],
      "stateMutability": "view",
      "type": "function"
    },
    {
      "inputs": [],
      "name": "quorumDenominator",
      "outputs": [
        {
          "internalType": "uint256",
          "name": "",
          "type": "uint256"
        }
      ],
      "stateMutability": "view",
      "type": "function"
    },
    {
      "inputs": [
        {
          "internalType": "uint256",
          "name": "timepoint",
          "type": "uint256"
        }
      ],
      "name": "quorumNumerator",
      "outputs": [
        {
          "internalType": "uint256",
          "name": "",
          "type": "uint256"
        }
      ],
      "stateMutability": "view",
      "type": "function"
    },
    {
      "inputs": [],
      "name": "quorumNumerator",
      "outputs": [
        {
          "internalType": "uint256",
          "name": "",
          "type": "uint256"
        }
      ],
      "stateMutability": "view",
      "type": "function"
    },
    {
      "inputs": [
        {
          "internalType": "address",
          "name": "target",
          "type": "address"
        },
        {
          "internalType": "uint256",
          "name": "value",
          "type": "uint256"
        },
        {
          "internalType": "bytes",
          "name": "data",
          "type": "bytes"
        }
      ],
      "name": "relay",
      "outputs": [],
      "stateMutability": "payable",
      "type": "function"
    },
    {
      "inputs": [
        {
          "internalType": "uint256",
          "name": "newProposalThreshold",
          "type": "uint256"
        }
      ],
      "name": "setProposalThreshold",
      "outputs": [],
      "stateMutability": "nonpayable",
      "type": "function"
    },
    {
      "inputs": [
        {
          "internalType": "uint48",
          "name": "newVotingDelay",
          "type": "uint48"
        }
      ],
      "name": "setVotingDelay",
      "outputs": [],
      "stateMutability": "nonpayable",
      "type": "function"
    },
    {
      "inputs": [
        {
          "internalType": "uint32",
          "name": "newVotingPeriod",
          "type": "uint32"
        }
      ],
      "name": "setVotingPeriod",
      "outputs": [],
      "stateMutability": "nonpayable",
      "type": "function"
    },
    {
      "inputs": [
        {
          "internalType": "uint256",
          "name": "proposalId",
          "type": "uint256"
        }
      ],
      "name": "state",
      "outputs": [
        {
          "internalType": "enum IGovernor.ProposalState",
          "name": "",
          "type": "uint8"
        }
      ],
      "stateMutability": "view",
      "type": "function"
    },
    {
      "inputs": [
        {
          "internalType": "bytes4",
          "name": "interfaceId",
          "type": "bytes4"
        }
      ],
      "name": "supportsInterface",
      "outputs": [
        {
          "internalType": "bool",
          "name": "",
          "type": "bool"
        }
      ],
      "stateMutability": "view",
      "type": "function"
    },
    {
      "inputs": [],
      "name": "timelock",
      "outputs": [
        {
          "internalType": "address",
          "name": "",
          "type": "address"
        }
      ],
      "stateMutability": "view",
      "type": "function"
    },
    {
      "inputs": [],
      "name": "token",
      "outputs": [
        {
          "internalType": "contract IERC5805",
          "name": "",
          "type": "address"
        }
      ],
      "stateMutability": "view",
      "type": "function"
    },
    {
      "inputs": [
        {
          "internalType": "uint256",
          "name": "newQuorumNumerator",
          "type": "uint256"
        }
      ],
      "name": "updateQuorumNumerator",
      "outputs": [],
      "stateMutability": "nonpayable",
      "type": "function"
    },
    {
      "inputs": [
        {
          "internalType": "contract TimelockController",
          "name": "newTimelock",
          "type": "address"
        }
      ],
      "name": "updateTimelock",
      "outputs": [],
      "stateMutability": "nonpayable",
      "type": "function"
    },
    {
      "inputs": [],
      "name": "version",
      "outputs": [
        {
          "internalType": "string",
          "name": "",
          "type": "string"
        }
      ],
      "stateMutability": "view",
      "type": "function"
    },
    {
      "inputs": [],
      "name": "votingDelay",
      "outputs": [
        {
          "internalType": "uint256",
          "name": "",
          "type": "uint256"
        }
      ],
      "stateMutability": "view",
      "type": "function"
    },
    {
      "inputs": [],
      "name": "votingPeriod",
      "outputs": [
        {
          "internalType": "uint256",
          "name": "",
          "type": "uint256"
        }
      ],
      "stateMutability": "view",
      "type": "function"
    },
    {
      "stateMutability": "payable",
      "type": "receive"
    }
  ],
  "bytecode": "0x610180604052348015610010575f80fd5b5060405161561038038061561083398101604081905261002f91610744565b836004868585856040518060400160405280601981526020017f417263205361666557616c6c657420476f7665726e616e6365000000000000008152508061007b61018160201b60201c565b610085825f61019c565b6101205261009481600161019c565b61014052815160208084019190912060e052815190820120610100524660a05261012060e05161010051604080517f8b73c3c69bb8fe3d512ecc4cf759cc79239f7b179b0ffacaa9a75d522b39400f60208201529081019290925260608201524660808201523060a08201525f9060c00160405160208183030381529060405280519060200120905090565b60805250503060c05260036101358282610847565b506101419050836101ce565b61014a82610234565b610153816102d8565b5050506001600160a01b03166101605261016c81610319565b50610176816103ae565b505050505050610991565b6040805180820190915260018152603160f81b602082015290565b5f6020835110156101b7576101b083610417565b90506101c8565b816101c28482610847565b5060ff90505b92915050565b6008546040805165ffffffffffff928316815291831660208301527fc565b045403dc03c2eea82b81a0465edad9e2e7fc4d97e11421c209da93d7a93910160405180910390a16008805465ffffffffffff191665ffffffffffff92909216919091179055565b8063ffffffff165f036102615760405163f1cfbf0560e01b81525f60048201526024015b60405180910390fd5b6008546040805163ffffffff66010000000000009093048316815291831660208301527f7e3f7f0708a84de9203036abaa450dccc85ad5ff52f78c170f3edb55cf5e8828910160405180910390a16008805463ffffffff90921666010000000000000263ffffffff60301b19909216919091179055565b60075460408051918252602082018390527fccb45da8d5717e6c4544694297c4ba5cf151d455c9bb0ed4fc7a38411bc05461910160405180910390a1600755565b6064808211156103465760405163243e544560e01b81526004810183905260248101829052604401610258565b5f61034f610454565b905061036e61035c61046d565b610365856104e7565b600a919061051e565b505060408051828152602081018590527f0553476bf02ef2726e8ce5ced78d63e26e602e4a2257b1f559418e24b4633997910160405180910390a1505050565b600b54604080516001600160a01b03928316815291831660208301527f08f74ea46ef7894f65eabfb5e6e695de773a000b47c529ab559178069b226401910160405180910390a1600b80546001600160a01b0319166001600160a01b0392909216919091179055565b5f80829050601f81511115610441578260405163305a27a960e01b81526004016102589190610901565b805161044c82610936565b179392505050565b5f61045f600a610538565b6001600160d01b0316905090565b5f6104786101605190565b6001600160a01b03166391ddadf46040518163ffffffff1660e01b8152600401602060405180830381865afa9250505080156104d1575060408051601f3d908101601f191682019092526104ce91810190610959565b60015b6104e2576104dd610580565b905090565b919050565b5f6001600160d01b0382111561051a576040516306dfcc6560e41b815260d0600482015260248101839052604401610258565b5090565b5f8061052b85858561058a565b915091505b935093915050565b80545f9080156105775761055e83610551600184610972565b5f91825260209091200190565b54660100000000000090046001600160d01b0316610579565b5f5b9392505050565b5f6104dd436106e6565b82545f9081908015610689575f6105a687610551600185610972565b805490915065ffffffffffff80821691660100000000000090046001600160d01b03169088168211156105ec57604051632520601d60e01b815260040160405180910390fd5b8765ffffffffffff168265ffffffffffff160361062857825465ffffffffffff1666010000000000006001600160d01b0389160217835561067b565b6040805180820190915265ffffffffffff808a1682526001600160d01b03808a1660208085019182528d54600181018f555f8f815291909120945191519092166601000000000000029216919091179101555b945085935061053092505050565b50506040805180820190915265ffffffffffff80851682526001600160d01b0380851660208085019182528854600181018a555f8a8152918220955192519093166601000000000000029190931617920191909155905081610530565b5f65ffffffffffff82111561051a576040516306dfcc6560e41b81526030600482015260248101839052604401610258565b6001600160a01b038116811461072c575f80fd5b50565b805165ffffffffffff811681146104e2575f80fd5b5f805f805f60a08688031215610758575f80fd5b855161076381610718565b602087015190955061077481610718565b93506107826040870161072f565b9250606086015163ffffffff8116811461079a575f80fd5b80925050608086015190509295509295909350565b634e487b7160e01b5f52604160045260245ffd5b600181811c908216806107d757607f821691505b6020821081036107f557634e487b7160e01b5f52602260045260245ffd5b50919050565b601f82111561084257805f5260205f20601f840160051c810160208510156108205750805b601f840160051c820191505b8181101561083f575f815560010161082c565b50505b505050565b81516001600160401b03811115610860576108606107af565b6108748161086e84546107c3565b846107fb565b6020601f8211600181146108a6575f831561088f5750848201515b5f19600385901b1c1916600184901b17845561083f565b5f84815260208120601f198516915b828110156108d557878501518255602094850194600190920191016108b5565b50848210156108f257868401515f19600387901b60f8161c191681555b50505050600190811b01905550565b602081525f82518060208401528060208501604085015e5f604082850101526040601f19601f83011684010191505092915050565b805160208083015191908110156107f5575f1960209190910360031b1b16919050565b5f60208284031215610969575f80fd5b6105798261072f565b818103818111156101c857634e487b7160e01b5f52601160045260245ffd5b60805160a05160c05160e05161010051610120516101405161016051614c08610a085f395f8181610a5e01528181610ee5015281816112b2015281816123ea015261264401525f61232e01525f61230201525f6133a101525f61337901525f6132d401525f6132fe01525f6133280152614c085ff3fe6080604052600436106102f6575f3560e01c80638ff262e311610189578063c59057e4116100d8578063eb9019d411610092578063f23a6e611161006d578063f23a6e6114610a12578063f8ce560a14610a31578063fc0c546a14610a50578063feb062be14610a82575f80fd5b8063eb9019d4146109a4578063eb9b9838146109c3578063ece40cc1146109f3575f80fd5b8063c59057e4146108b2578063d33219b4146108d1578063dd4e2ba5146108ee578063deaaa7cc14610933578063e0f4cd9314610966578063e540d01d14610985575f80fd5b8063a8f8a66811610143578063b58131b01161011e578063b58131b01461084d578063bc197c8114610861578063c01f9e3714610880578063c28bc2fa1461089f575f80fd5b8063a8f8a668146107d9578063a9a95294146107f8578063ab58fb8e14610817575f80fd5b80638ff262e31461072a57806391ddadf41461074957806397c3d334146107745780639a802a6d14610787578063a7713a70146107a6578063a890c910146107ba575f80fd5b8063452115d6116102455780635f398a14116101ff5780637b3c71d3116101da5780637b3c71d3146106915780637d5e81e2146106b05780637ecebe00146106cf57806384b0196e14610703575f80fd5b80635f398a141461063457806360c4247f146106535780637905188714610672575f80fd5b8063452115d6146105605780634bf5d7e91461057f578063544ffc9c1461059357806354fd4d50146105cd57806356781388146105f65780635b8d0e0d14610615575f80fd5b8063160cbed7116102b05780632fe3e2611161028b5780632fe3e261146104a55780633932abb1146104d85780633e4f49e6146104ec5780634385963214610518575f80fd5b8063160cbed7146104545780632656227d146104735780632d63f69314610486575f80fd5b806301ffc9a71461033157806302a251a31461036557806306f3f9e61461039057806306fdde03146103af578063143489d0146103d0578063150b7a021461041c575f80fd5b3661032d5730610304610aa1565b6001600160a01b03161461032b57604051637485328f60e11b815260040160405180910390fd5b005b5f80fd5b34801561033c575f80fd5b5061035061034b366004613962565b610ab9565b60405190151581526020015b60405180910390f35b348015610370575f80fd5b50600854600160301b900463ffffffff165b60405190815260200161035c565b34801561039b575f80fd5b5061032b6103aa366004613989565b610b25565b3480156103ba575f80fd5b506103c3610b39565b60405161035c91906139ce565b3480156103db575f80fd5b506104046103ea366004613989565b5f908152600460205260409020546001600160a01b031690565b6040516001600160a01b03909116815260200161035c565b348015610427575f80fd5b5061043b610436366004613ab2565b610bc9565b6040516001600160e01b0319909116815260200161035c565b34801561045f575f80fd5b5061038261046e366004613c78565b610c0b565b610382610481366004613c78565b610cd7565b348015610491575f80fd5b506103826104a0366004613989565b610e3f565b3480156104b0575f80fd5b506103827f3e83946653575f9a39005e1545185629e92736b7528ab20ca3816f315424a81181565b3480156104e3575f80fd5b50610382610e5f565b3480156104f7575f80fd5b5061050b610506366004613989565b610e71565b60405161035c9190613d3f565b348015610523575f80fd5b50610350610532366004613d4d565b5f8281526009602090815260408083206001600160a01b038516845260030190915290205460ff1692915050565b34801561056b575f80fd5b5061038261057a366004613c78565b610e7b565b34801561058a575f80fd5b506103c3610ee1565b34801561059e575f80fd5b506105b26105ad366004613989565b610fa1565b6040805193845260208401929092529082015260600161035c565b3480156105d8575f80fd5b506040805180820190915260018152603160f81b60208201526103c3565b348015610601575f80fd5b50610382610610366004613d8b565b610fc6565b348015610620575f80fd5b5061038261062f366004613df9565b610fed565b34801561063f575f80fd5b5061038261064e366004613eb5565b6110aa565b34801561065e575f80fd5b5061038261066d366004613989565b6110f2565b34801561067d575f80fd5b5061032b61068c366004613f49565b6110fe565b34801561069c575f80fd5b506103826106ab366004613f64565b61110f565b3480156106bb575f80fd5b506103826106ca366004613fb9565b61115f565b3480156106da575f80fd5b506103826106e9366004614056565b6001600160a01b03165f9081526002602052604090205490565b34801561070e575f80fd5b50610717611215565b60405161035c97969594939291906140ab565b348015610735575f80fd5b5061038261074436600461411a565b611257565b348015610754575f80fd5b5061075d6112af565b60405165ffffffffffff909116815260200161035c565b34801561077f575f80fd5b506064610382565b348015610792575f80fd5b506103826107a1366004614167565b611336565b3480156107b1575f80fd5b5061038261134c565b3480156107c5575f80fd5b5061032b6107d4366004614056565b611365565b3480156107e4575f80fd5b506103826107f3366004613c78565b611376565b348015610803575f80fd5b50610350610812366004613989565b611383565b348015610822575f80fd5b50610382610831366004613989565b5f9081526004602052604090206001015465ffffffffffff1690565b348015610858575f80fd5b5061038261138b565b34801561086c575f80fd5b5061043b61087b3660046141bb565b611395565b34801561088b575f80fd5b5061038261089a366004613989565b6113d8565b61032b6108ad366004614252565b61141a565b3480156108bd575f80fd5b506103826108cc366004613c78565b611496565b3480156108dc575f80fd5b50600b546001600160a01b0316610404565b3480156108f9575f80fd5b506040805180820190915260208082527f737570706f72743d627261766f2671756f72756d3d666f722c6162737461696e908201526103c3565b34801561093e575f80fd5b506103827ff2aad550cf55f045cb27e9c559f9889fdfb6e6cdaa032301d6ea397784ae51d781565b348015610971575f80fd5b50610382610980366004614291565b6114cf565b348015610990575f80fd5b5061032b61099f366004614397565b6115f0565b3480156109af575f80fd5b506103826109be3660046143ba565b611601565b3480156109ce575f80fd5b506109e26109dd366004613989565b611620565b60405161035c9594939291906143e4565b3480156109fe575f80fd5b5061032b610a0d366004613989565b61183c565b348015610a1d575f80fd5b5061043b610a2c36600461443a565b61184d565b348015610a3c575f80fd5b50610382610a4b366004613989565b611890565b348015610a5b575f80fd5b507f0000000000000000000000000000000000000000000000000000000000000000610404565b348015610a8d575f80fd5b506109e2610a9c366004613989565b61189a565b5f610ab4600b546001600160a01b031690565b905090565b5f6001600160e01b031982166366defe7760e11b1480610ae957506001600160e01b031982166332a2ad4360e11b145b80610b0457506001600160e01b03198216630271189760e51b145b80610b1f57506301ffc9a760e01b6001600160e01b03198316145b92915050565b610b2d611a63565b610b3681611adc565b50565b606060038054610b4890614491565b80601f0160208091040260200160405190810160405280929190818152602001828054610b7490614491565b8015610bbf5780601f10610b9657610100808354040283529160200191610bbf565b820191905f5260205f20905b815481529060010190602001808311610ba257829003601f168201915b5050505050905090565b5f30610bd3610aa1565b6001600160a01b031614610bfa57604051637485328f60e11b815260040160405180910390fd5b50630a85bd0160e11b949350505050565b5f80610c1986868686611376565b9050610c2e81610c296004611b71565b611b93565b505f610c3d8288888888611bd0565b905065ffffffffffff811615610cb4575f82815260046020908152604091829020600101805465ffffffffffff191665ffffffffffff85169081179091558251858152918201527f9a2e42fd6722813d69113e7d0079d3d940171428df7373df9c7f7617cfda2892910160405180910390a1610ccd565b604051634844252360e11b815260040160405180910390fd5b5095945050505050565b5f80610ce586868686611376565b9050610d0581610cf56005611b71565b610cff6004611b71565b17611b93565b505f818152600460205260409020805460ff60f01b1916600160f01b17905530610d2d610aa1565b6001600160a01b031614610db6575f5b8651811015610db457306001600160a01b0316878281518110610d6257610d626144c9565b60200260200101516001600160a01b031603610dac57610dac858281518110610d8d57610d8d6144c9565b6020026020010151805190602001206005611bde90919063ffffffff16565b600101610d3d565b505b610dc38187878787611c3f565b30610dcc610aa1565b6001600160a01b031614158015610df857506005546001600160801b03808216600160801b9092041614155b15610e02575f6005555b6040518181527f712ae1383f79ac853f8d882153778e0260ef8f03b504e2866e0593e04d2b291f906020015b60405180910390a195945050505050565b5f90815260046020526040902054600160a01b900465ffffffffffff1690565b5f610ab460085465ffffffffffff1690565b5f610b1f82611c53565b5f80610e8986868686611376565b905033610e968282611d8c565b610eca57604051638fe5d8a960e01b8152600481018390526001600160a01b03821660248201526044015b60405180910390fd5b610ed687878787611dd1565b979650505050505050565b60607f00000000000000000000000000000000000000000000000000000000000000006001600160a01b0316634bf5d7e96040518163ffffffff1660e01b81526004015f60405180830381865afa925050508015610f6057506040513d5f823e601f3d908101601f19168201604052610f5d91908101906144dd565b60015b610f9c575060408051808201909152601d81527f6d6f64653d626c6f636b6e756d6265722666726f6d3d64656661756c74000000602082015290565b919050565b5f818152600960205260409020805460018201546002909201549091905b9193909250565b5f80339050610fe584828560405180602001604052805f815250611dde565b949350505050565b5f61103388888888888080601f0160208091040260200160405190810160405280939291908181526020018383808284375f920191909152508a9250899150611dff9050565b61105b576040516394ab6c0760e01b81526001600160a01b0387166004820152602401610ec1565b61109e88878988888080601f0160208091040260200160405190810160405280939291908181526020018383808284375f920191909152508a9250611ecc915050565b98975050505050505050565b5f80339050610ed687828888888080601f0160208091040260200160405190810160405280939291908181526020018383808284375f920191909152508a9250611ecc915050565b5f610b1f600a83611faa565b611106611a63565b610b3681611ff7565b5f8033905061115586828787878080601f0160208091040260200160405190810160405280939291908181526020018383808284375f92019190915250611dde92505050565b9695505050505050565b5f3361116b818461205d565b6111935760405163d9b3955760e01b81526001600160a01b0382166004820152602401610ec1565b5f61119c61138b565b90508015611208575f6111ca8360016111b36112af565b6111bd9190614565565b65ffffffffffff16611601565b90508181101561120657604051636121770b60e11b81526001600160a01b03841660048201526024810182905260448101839052606401610ec1565b505b610ed687878787866120e1565b5f6060805f805f60606112266122fb565b61122e612327565b604080515f80825260208201909252600f60f81b9b939a50919850469750309650945092509050565b5f61126485858585612354565b61128c576040516394ab6c0760e01b81526001600160a01b0384166004820152602401610ec1565b6112a685848660405180602001604052805f815250611dde565b95945050505050565b5f7f00000000000000000000000000000000000000000000000000000000000000006001600160a01b03166391ddadf46040518163ffffffff1660e01b8152600401602060405180830381865afa92505050801561132a575060408051601f3d908101601f1916820190925261132791810190614583565b60015b610f9c57610ab46123dd565b5f6113428484846123e7565b90505b9392505050565b5f611357600a61247a565b6001600160d01b0316905090565b61136d611a63565b610b36816124be565b5f6112a685858585611496565b5f6001610b1f565b5f610ab460075490565b5f3061139f610aa1565b6001600160a01b0316146113c657604051637485328f60e11b815260040160405180910390fd5b5063bc197c8160e01b95945050505050565b5f8181526004602052604081205461140c90600160d01b810463ffffffff1690600160a01b900465ffffffffffff1661459e565b65ffffffffffff1692915050565b611422611a63565b5f80856001600160a01b031685858560405161143f9291906145bc565b5f6040518083038185875af1925050503d805f8114611479576040519150601f19603f3d011682016040523d82523d5f602084013e61147e565b606091505b509150915061148d8282612527565b50505050505050565b5f848484846040516020016114ae949392919061465e565b60408051601f19818403018152919052805160209091012095945050505050565b5f8084846040516020016114e49291906146bf565b60405160208183030381529060405290505f6115028989898561115f565b6040805160a08101825288815260208082018990528183018890523360608301524260808301525f848152600d909152919091208151929350909181906115499082614728565b506020820151600182019061155e9082614728565b50604082015160028201906115739082614728565b5060608201516003820180546001600160a01b0319166001600160a01b03909216919091179055608090910151600490910155604051339082907f8e5dec323b53e1cbe4170fc3724bff346e87696f95c9404a77d5ebeb8ece7b82906115dc908a908a906147e2565b60405180910390a398975050505050505050565b6115f8611a63565b610b3681612543565b5f611345838361161b60408051602081019091525f815290565b6123e7565b60608060605f805f600d5f8881526020019081526020015f206040518060a00160405290815f8201805461165390614491565b80601f016020809104026020016040519081016040528092919081815260200182805461167f90614491565b80156116ca5780601f106116a1576101008083540402835291602001916116ca565b820191905f5260205f20905b8154815290600101906020018083116116ad57829003601f168201915b505050505081526020016001820180546116e390614491565b80601f016020809104026020016040519081016040528092919081815260200182805461170f90614491565b801561175a5780601f106117315761010080835404028352916020019161175a565b820191905f5260205f20905b81548152906001019060200180831161173d57829003601f168201915b5050505050815260200160028201805461177390614491565b80601f016020809104026020016040519081016040528092919081815260200182805461179f90614491565b80156117ea5780601f106117c1576101008083540402835291602001916117ea565b820191905f5260205f20905b8154815290600101906020018083116117cd57829003601f168201915b505050918352505060038201546001600160a01b0316602080830191909152600490920154604091820152825191830151908301516060840151608090940151929b919a509850919650945092505050565b611844611a63565b610b36816125df565b5f30611857610aa1565b6001600160a01b03161461187e57604051637485328f60e11b815260040160405180910390fd5b5063f23a6e6160e01b95945050505050565b5f610b1f82612620565b600d6020525f90815260409020805481906118b490614491565b80601f01602080910402602001604051908101604052809291908181526020018280546118e090614491565b801561192b5780601f106119025761010080835404028352916020019161192b565b820191905f5260205f20905b81548152906001019060200180831161190e57829003601f168201915b50505050509080600101805461194090614491565b80601f016020809104026020016040519081016040528092919081815260200182805461196c90614491565b80156119b75780601f1061198e576101008083540402835291602001916119b7565b820191905f5260205f20905b81548152906001019060200180831161199a57829003601f168201915b5050505050908060020180546119cc90614491565b80601f01602080910402602001604051908101604052809291908181526020018280546119f890614491565b8015611a435780601f10611a1a57610100808354040283529160200191611a43565b820191905f5260205f20905b815481529060010190602001808311611a2657829003601f168201915b50505050600383015460049093015491926001600160a01b031691905085565b33611a6c610aa1565b6001600160a01b031614611a95576040516347096e4760e01b8152336004820152602401610ec1565b30611a9e610aa1565b6001600160a01b031614611ada575f8036604051611abd9291906145bc565b604051809103902090505b80611ad360056126bd565b03611ac857505b565b606480821115611b095760405163243e544560e01b81526004810183905260248101829052604401610ec1565b5f611b1261134c565b9050611b31611b1f6112af565b611b288561272a565b600a9190612761565b505060408051828152602081018590527f0553476bf02ef2726e8ce5ced78d63e26e602e4a2257b1f559418e24b4633997910160405180910390a1505050565b5f816007811115611b8457611b84613d0b565b600160ff919091161b92915050565b5f80611b9e84610e71565b90505f83611bab83611b71565b1603611345578381846040516331b75e4d60e01b8152600401610ec193929190614806565b5f611155868686868661277b565b81546001600160801b03600160801b820481169181166001830190911603611c0a57611c0a604161290c565b6001600160801b038082165f90815260018086016020526040909120939093558354919092018216600160801b029116179055565b611c4c858585858561291d565b5050505050565b5f80611c5e836129ad565b90506005816007811115611c7457611c74613d0b565b14611c7f5792915050565b5f838152600c60205260409081902054600b549151632c258a9f60e11b81526004810182905290916001600160a01b03169063584b153e90602401602060405180830381865afa158015611cd5573d5f803e3d5ffd5b505050506040513d601f19601f82011682018060405250810190611cf99190614828565b15611d08575060059392505050565b600b54604051632ab0f52960e01b8152600481018390526001600160a01b0390911690632ab0f52990602401602060405180830381865afa158015611d4f573d5f803e3d5ffd5b505050506040513d601f19601f82011682018060405250810190611d739190614828565b15611d82575060079392505050565b5060029392505050565b5f80611d9784610e71565b6007811115611da857611da8613d0b565b1480156113455750505f91825260046020526040909120546001600160a01b0391821691161490565b5f6112a685858585612ade565b5f6112a685858585611dfa60408051602081019091525f815290565b611ecc565b5f610ed685611ec67f3e83946653575f9a39005e1545185629e92736b7528ab20ca3816f315424a8118a8a8a611e518c6001600160a01b03165f90815260026020526040902080546001810190915590565b8b516020808e01919091208c518d830120604051611eab98979695949301968752602087019590955260ff9390931660408601526001600160a01b03919091166060850152608084015260a083015260c082015260e00190565b60405160208183030381529060405280519060200120612b75565b84612ba1565b5f611edb86610c296001611b71565b505f611ef086611eea89610e3f565b856123e7565b90505f611f008888888588612c11565b905083515f03611f5657866001600160a01b03167fb8e138887d0aa13bab447e82de9d5c1777041ecd21ca36ba824ff1e6c07ddda489888489604051611f499493929190614847565b60405180910390a2610ed6565b866001600160a01b03167fe2babfbac5889a709b63bb7f598b324e08bc5a4fb9ec647fb3cbc9ec07eb87128988848989604051611f9795949392919061486e565b60405180910390a2979650505050505050565b5f805f611fb685612d0d565b9250925050838265ffffffffffff161115611fe357611fde611fd785612d65565b8690612d97565b611fe5565b805b6001600160d01b031695945050505050565b6008546040805165ffffffffffff928316815291831660208301527fc565b045403dc03c2eea82b81a0465edad9e2e7fc4d97e11421c209da93d7a93910160405180910390a16008805465ffffffffffff191665ffffffffffff92909216919091179055565b80515f906034811015612074576001915050610b1f565b60131981840101516001600160b01b03198116692370726f706f7365723d60b01b146120a557600192505050610b1f565b5f806120b586602a860386612e39565b91509150811580610ed65750866001600160a01b0316816001600160a01b031614979650505050505050565b5f6120f58686868680519060200120611376565b90508451865114158061210a57508351865114155b8061211457508551155b1561214957855184518651604051630447b05d60e41b8152600481019390935260248301919091526044820152606401610ec1565b5f81815260046020526040902054600160a01b900465ffffffffffff1615612192578061217582610e71565b6040516331b75e4d60e01b8152610ec19291905f90600401614806565b5f61219b610e5f565b6121a36112af565b65ffffffffffff166121b591906148a7565b90505f6121cf60085463ffffffff600160301b9091041690565b5f84815260046020526040902080546001600160a01b0319166001600160a01b03871617815590915061220183612d65565b815465ffffffffffff91909116600160a01b0265ffffffffffff60a01b1990911617815561222e82612ee2565b815463ffffffff91909116600160d01b0263ffffffff60d01b1990911617815588517f7d84a6263ae0d98d3329bd7b46bb4e8d6f98cd35a7adb45c274c8b7fd5ebd5e090859087908c908c906001600160401b03811115612291576122916139f4565b6040519080825280602002602001820160405280156122c457816020015b60608152602001906001900390816122af5790505b508c896122d18a826148a7565b8e6040516122e7999897969594939291906148ba565b60405180910390a150505095945050505050565b6060610ab47f00000000000000000000000000000000000000000000000000000000000000005f612f12565b6060610ab47f00000000000000000000000000000000000000000000000000000000000000006001612f12565b5f6112a683611ec67ff2aad550cf55f045cb27e9c559f9889fdfb6e6cdaa032301d6ea397784ae51d78888886123a68a6001600160a01b03165f90815260026020526040902080546001810190915590565b60408051602081019690965285019390935260ff90911660608401526001600160a01b0316608083015260a082015260c001611eab565b5f610ab443612d65565b5f7f0000000000000000000000000000000000000000000000000000000000000000604051630748d63560e31b81526001600160a01b038681166004830152602482018690529190911690633a46b1a890604401602060405180830381865afa158015612456573d5f803e3d5ffd5b505050506040513d601f19601f820116820180604052508101906113429190614995565b80545f9080156124b6576124a0836124936001846149ac565b5f91825260209091200190565b54600160301b90046001600160d01b0316611345565b5f9392505050565b600b54604080516001600160a01b03928316815291831660208301527f08f74ea46ef7894f65eabfb5e6e695de773a000b47c529ab559178069b226401910160405180910390a1600b80546001600160a01b0319166001600160a01b0392909216919091179055565b60608261253c5761253782612fbb565b610b1f565b5080610b1f565b8063ffffffff165f0361256b5760405163f1cfbf0560e01b81525f6004820152602401610ec1565b6008546040805163ffffffff600160301b9093048316815291831660208301527f7e3f7f0708a84de9203036abaa450dccc85ad5ff52f78c170f3edb55cf5e8828910160405180910390a16008805463ffffffff909216600160301b0269ffffffff00000000000019909216919091179055565b60075460408051918252602082018390527fccb45da8d5717e6c4544694297c4ba5cf151d455c9bb0ed4fc7a38411bc05461910160405180910390a1600755565b604051632394e7a360e21b8152600481018290525f90610b1f906001600160a01b037f00000000000000000000000000000000000000000000000000000000000000001690638e539e8c90602401602060405180830381865afa158015612689573d5f803e3d5ffd5b505050506040513d601f19601f820116820180604052508101906126ad9190614995565b6126b6846110f2565b6064612fe3565b80545f906001600160801b0380821691600160801b90041681036126e5576126e5603161290c565b6001600160801b038181165f908152600185810160205260408220805492905585546fffffffffffffffffffffffffffffffff19169301909116919091179092555090565b5f6001600160d01b0382111561275d576040516306dfcc6560e41b815260d0600482015260248101839052604401610ec1565b5090565b5f8061276e858585613093565b915091505b935093915050565b5f80600b5f9054906101000a90046001600160a01b03166001600160a01b031663f27a0c926040518163ffffffff1660e01b8152600401602060405180830381865afa1580156127cd573d5f803e3d5ffd5b505050506040513d601f19601f820116820180604052508101906127f19190614995565b90505f3060601b6bffffffffffffffffffffffff19168418600b5460405163b1c5f42760e01b81529192506001600160a01b03169063b1c5f42790612842908a908a908a905f9088906004016149bf565b602060405180830381865afa15801561285d573d5f803e3d5ffd5b505050506040513d601f19601f820116820180604052508101906128819190614995565b5f898152600c602052604080822092909255600b5491516308f2a0bb60e41b81526001600160a01b0390921691638f2a0bb0916128cb918b918b918b919088908a90600401614a0c565b5f604051808303815f87803b1580156128e2575f80fd5b505af11580156128f4573d5f803e3d5ffd5b5050505061109e824261290791906148a7565b612d65565b634e487b715f52806020526024601cfd5b600b546001600160a01b031663e38335e5348686865f3060601b6bffffffffffffffffffffffff191688186040518763ffffffff1660e01b81526004016129689594939291906149bf565b5f604051808303818588803b15801561297f575f80fd5b505af1158015612991573d5f803e3d5ffd5b5050505f9687525050600c602052505060408320929092555050565b5f818152600460205260408120805460ff600160f01b8204811691600160f81b90041681156129e157506007949350505050565b80156129f257506002949350505050565b5f6129fc86610e3f565b9050805f03612a2157604051636ad0607560e01b815260048101879052602401610ec1565b5f612a2a6112af565b65ffffffffffff169050808210612a4757505f9695505050505050565b5f612a51886113d8565b9050818110612a6857506001979650505050505050565b612a71886131e3565b1580612a9057505f888152600960205260409020805460019091015411155b15612aa357506003979650505050505050565b5f8881526004602052604090206001015465ffffffffffff165f03612ad057506004979650505050505050565b506005979650505050505050565b5f80612aec86868686613219565b5f818152600c60205260409020549091508015610ccd57600b5460405163c4d252f560e01b8152600481018390526001600160a01b039091169063c4d252f5906024015f604051808303815f87803b158015612b46575f80fd5b505af1158015612b58573d5f803e3d5ffd5b5050505f838152600c602052604081205550509050949350505050565b5f610b1f612b816132c8565b8360405161190160f01b8152600281019290925260228201526042902090565b5f836001600160a01b03163b5f03612bff575f80612bbf85856133f1565b5090925090505f816003811115612bd857612bd8613d0b565b148015612bf65750856001600160a01b0316826001600160a01b0316145b92505050611345565b612c0a84848461343a565b9050611345565b5f8581526009602090815260408083206001600160a01b03881684526003810190925282205460ff1615612c63576040516371c6af4960e01b81526001600160a01b0387166004820152602401610ec1565b6001600160a01b0386165f9081526003820160205260409020805460ff1916600117905560ff8516612cac5783815f015f828254612ca191906148a7565b90915550612d029050565b5f1960ff861601612cca5783816001015f828254612ca191906148a7565b60011960ff861601612ce95783816002015f828254612ca191906148a7565b6040516303599be160e11b815260040160405180910390fd5b509195945050505050565b80545f9081908190808203612d2b575f805f93509350935050610fbf565b5f612d3b866124936001856149ac565b546001955065ffffffffffff81169450600160301b90046001600160d01b03169250610fbf915050565b5f65ffffffffffff82111561275d576040516306dfcc6560e41b81526030600482015260248101839052604401610ec1565b81545f9081816005811115612df3575f612db084613510565b612dba90856149ac565b5f8881526020902090915081015465ffffffffffff9081169087161015612de357809150612df1565b612dee8160016148a7565b92505b505b5f612e0087878585613668565b90508015612e2d57612e17876124936001846149ac565b54600160301b90046001600160d01b0316610ed6565b505f9695505050505050565b5f808451831180612e4957508284115b15612e5857505f905080612773565b5f612e648560016148a7565b84118015612e8c575061060f60f31b612e808787016020015190565b6001600160f01b031916145b90505f612e9c8215156002614a63565b612ea79060286148a7565b905080612eb487876149ac565b03612ed5575f80612ec68989896136c7565b90965094506127739350505050565b5f80935093505050612773565b5f63ffffffff82111561275d576040516306dfcc6560e41b81526020600482015260248101839052604401610ec1565b606060ff8314612f2c57612f2583613788565b9050610b1f565b818054612f3890614491565b80601f0160208091040260200160405190810160405280929190818152602001828054612f6490614491565b8015612faf5780601f10612f8657610100808354040283529160200191612faf565b820191905f5260205f20905b815481529060010190602001808311612f9257829003601f168201915b50505050509050610b1f565b805115612fca57805160208201fd5b60405163d6bda27560e01b815260040160405180910390fd5b5f805f612ff086866137c5565b91509150815f036130145783818161300a5761300a614a7a565b0492505050611345565b81841161302b5761302b600385150260111861290c565b5f848688095f868103871696879004966002600389028118808a02820302808a02820302808a02820302808a02820302808a02820302808a02909103029181900381900460010185841190960395909502919093039390930492909217029150509392505050565b82545f9081908015613189575f6130af876124936001856149ac565b805490915065ffffffffffff80821691600160301b90046001600160d01b03169088168211156130f257604051632520601d60e01b815260040160405180910390fd5b8765ffffffffffff168265ffffffffffff160361312b57825465ffffffffffff16600160301b6001600160d01b0389160217835561317b565b6040805180820190915265ffffffffffff808a1682526001600160d01b03808a1660208085019182528d54600181018f555f8f81529190912094519151909216600160301b029216919091179101555b945085935061277392505050565b50506040805180820190915265ffffffffffff80851682526001600160d01b0380851660208085019182528854600181018a555f8a815291822095519251909316600160301b029190931617920191909155905081612773565b5f8181526009602052604081206002810154600182015461320491906148a7565b613210610a4b85610e3f565b11159392505050565b5f8061322786868686611376565b9050613275816132376007611b71565b6132416006611b71565b61324b6002611b71565b6001613258600782614a8e565b613263906002614b82565b61326d91906149ac565b181818611b93565b505f818152600460205260409081902080546001600160f81b0316600160f81b179055517f789cf55be980739dad1d0699b93b58e806b51c9d96619bfa8fe0a28abaa7b30c90610e2e9083815260200190565b5f306001600160a01b037f00000000000000000000000000000000000000000000000000000000000000001614801561332057507f000000000000000000000000000000000000000000000000000000000000000046145b1561334a57507f000000000000000000000000000000000000000000000000000000000000000090565b610ab4604080517f8b73c3c69bb8fe3d512ecc4cf759cc79239f7b179b0ffacaa9a75d522b39400f60208201527f0000000000000000000000000000000000000000000000000000000000000000918101919091527f000000000000000000000000000000000000000000000000000000000000000060608201524660808201523060a08201525f9060c00160405160208183030381529060405280519060200120905090565b5f805f8351604103613428576020840151604085015160608601515f1a61341a888285856137e1565b955095509550505050613433565b505081515f91506002905b9250925092565b5f805f856001600160a01b0316858560405160240161345a929190614b90565b60408051601f198184030181529181526020820180516001600160e01b0316630b135d3f60e11b1790525161348f9190614ba8565b5f60405180830381855afa9150503d805f81146134c7576040519150601f19603f3d011682016040523d82523d5f602084013e6134cc565b606091505b50915091508180156134e057506020815110155b801561115557508051630b135d3f60e11b906135059083016020908101908401614995565b149695505050505050565b5f6001821161351d575090565b816001600160801b82106135365760809190911c9060401b5b6801000000000000000082106135515760409190911c9060201b5b64010000000082106135685760209190911c9060101b5b62010000821061357d5760109190911c9060081b5b61010082106135915760089190911c9060041b5b601082106135a45760049190911c9060021b5b600482106135b05760011b5b600302600190811c908185816135c8576135c8614a7a565b048201901c905060018185816135e0576135e0614a7a565b048201901c905060018185816135f8576135f8614a7a565b048201901c9050600181858161361057613610614a7a565b048201901c9050600181858161362857613628614a7a565b048201901c9050600181858161364057613640614a7a565b048201901c905061365f81858161365957613659614a7a565b04821190565b90039392505050565b5f5b818310156136bf575f61367d84846138a9565b5f8781526020902090915065ffffffffffff86169082015465ffffffffffff1611156136ab578092506136b9565b6136b68160016148a7565b93505b5061366a565b509392505050565b5f8084816136d68660016148a7565b851180156136fe575061060f60f31b6136f28388016020015190565b6001600160f01b031916145b90505f61370e8215156002614a63565b90505f8061371c838a6148a7565b90505b87811015613777575f61373d6137388784016020015190565b6138c3565b9050600f8160ff16111561375c575f8097509750505050505050612773565b613767601084614a63565b60ff90911601915060010161371f565b506001999098509650505050505050565b60605f6137948361393b565b6040805160208082528183019092529192505f91906020820181803683375050509182525060208101929092525090565b5f805f1983850993909202808410938190039390930393915050565b5f80807f7fffffffffffffffffffffffffffffff5d576e7357a4501ddfe92f46681b20a084111561381a57505f9150600390508261389f565b604080515f808252602082018084528a905260ff891692820192909252606081018790526080810186905260019060a0016020604051602081039080840390855afa15801561386b573d5f803e3d5ffd5b5050604051601f1901519150506001600160a01b03811661389657505f92506001915082905061389f565b92505f91508190505b9450945094915050565b5f6138b76002848418614bb3565b611345908484166148a7565b5f60f882901c602f811180156138dc5750603a8160ff16105b156138ea57602f1901610b1f565b60608160ff16118015613900575060678160ff16105b1561390e5760561901610b1f565b60408160ff16118015613924575060478160ff16105b156139325760361901610b1f565b5060ff92915050565b5f60ff8216601f811115610b1f57604051632cd44ac360e21b815260040160405180910390fd5b5f60208284031215613972575f80fd5b81356001600160e01b031981168114611345575f80fd5b5f60208284031215613999575f80fd5b5035919050565b5f81518084528060208401602086015e5f602082860101526020601f19601f83011685010191505092915050565b602081525f61134560208301846139a0565b6001600160a01b0381168114610b36575f80fd5b634e487b7160e01b5f52604160045260245ffd5b604051601f8201601f191681016001600160401b0381118282101715613a3057613a306139f4565b604052919050565b5f6001600160401b03821115613a5057613a506139f4565b50601f01601f191660200190565b5f82601f830112613a6d575f80fd5b8135602083015f613a85613a8084613a38565b613a08565b9050828152858383011115613a98575f80fd5b828260208301375f92810160200192909252509392505050565b5f805f8060808587031215613ac5575f80fd5b8435613ad0816139e0565b93506020850135613ae0816139e0565b92506040850135915060608501356001600160401b03811115613b01575f80fd5b613b0d87828801613a5e565b91505092959194509250565b5f6001600160401b03821115613b3157613b316139f4565b5060051b60200190565b5f82601f830112613b4a575f80fd5b8135613b58613a8082613b19565b8082825260208201915060208360051b860101925085831115613b79575f80fd5b602085015b83811015610ccd578035613b91816139e0565b835260209283019201613b7e565b5f82601f830112613bae575f80fd5b8135613bbc613a8082613b19565b8082825260208201915060208360051b860101925085831115613bdd575f80fd5b602085015b83811015610ccd578035835260209283019201613be2565b5f82601f830112613c09575f80fd5b8135613c17613a8082613b19565b8082825260208201915060208360051b860101925085831115613c38575f80fd5b602085015b83811015610ccd5780356001600160401b03811115613c5a575f80fd5b613c69886020838a0101613a5e565b84525060209283019201613c3d565b5f805f8060808587031215613c8b575f80fd5b84356001600160401b03811115613ca0575f80fd5b613cac87828801613b3b565b94505060208501356001600160401b03811115613cc7575f80fd5b613cd387828801613b9f565b93505060408501356001600160401b03811115613cee575f80fd5b613cfa87828801613bfa565b949793965093946060013593505050565b634e487b7160e01b5f52602160045260245ffd5b60088110613d3b57634e487b7160e01b5f52602160045260245ffd5b9052565b60208101610b1f8284613d1f565b5f8060408385031215613d5e575f80fd5b823591506020830135613d70816139e0565b809150509250929050565b803560ff81168114610f9c575f80fd5b5f8060408385031215613d9c575f80fd5b82359150613dac60208401613d7b565b90509250929050565b5f8083601f840112613dc5575f80fd5b5081356001600160401b03811115613ddb575f80fd5b602083019150836020828501011115613df2575f80fd5b9250929050565b5f805f805f805f60c0888a031215613e0f575f80fd5b87359650613e1f60208901613d7b565b95506040880135613e2f816139e0565b945060608801356001600160401b03811115613e49575f80fd5b613e558a828b01613db5565b90955093505060808801356001600160401b03811115613e73575f80fd5b613e7f8a828b01613a5e565b92505060a08801356001600160401b03811115613e9a575f80fd5b613ea68a828b01613a5e565b91505092959891949750929550565b5f805f805f60808688031215613ec9575f80fd5b85359450613ed960208701613d7b565b935060408601356001600160401b03811115613ef3575f80fd5b613eff88828901613db5565b90945092505060608601356001600160401b03811115613f1d575f80fd5b613f2988828901613a5e565b9150509295509295909350565b65ffffffffffff81168114610b36575f80fd5b5f60208284031215613f59575f80fd5b813561134581613f36565b5f805f8060608587031215613f77575f80fd5b84359350613f8760208601613d7b565b925060408501356001600160401b03811115613fa1575f80fd5b613fad87828801613db5565b95989497509550505050565b5f805f8060808587031215613fcc575f80fd5b84356001600160401b03811115613fe1575f80fd5b613fed87828801613b3b565b94505060208501356001600160401b03811115614008575f80fd5b61401487828801613b9f565b93505060408501356001600160401b0381111561402f575f80fd5b61403b87828801613bfa565b92505060608501356001600160401b03811115613b01575f80fd5b5f60208284031215614066575f80fd5b8135611345816139e0565b5f8151808452602084019350602083015f5b828110156140a1578151865260209586019590910190600101614083565b5093949350505050565b60ff60f81b8816815260e060208201525f6140c960e08301896139a0565b82810360408401526140db81896139a0565b606084018890526001600160a01b038716608085015260a0840186905283810360c0850152905061410c8185614071565b9a9950505050505050505050565b5f805f806080858703121561412d575f80fd5b8435935061413d60208601613d7b565b9250604085013561414d816139e0565b915060608501356001600160401b03811115613b01575f80fd5b5f805f60608486031215614179575f80fd5b8335614184816139e0565b92506020840135915060408401356001600160401b038111156141a5575f80fd5b6141b186828701613a5e565b9150509250925092565b5f805f805f60a086880312156141cf575f80fd5b85356141da816139e0565b945060208601356141ea816139e0565b935060408601356001600160401b03811115614204575f80fd5b61421088828901613b9f565b93505060608601356001600160401b0381111561422b575f80fd5b61423788828901613b9f565b92505060808601356001600160401b03811115613f1d575f80fd5b5f805f8060608587031215614265575f80fd5b8435614270816139e0565b93506020850135925060408501356001600160401b03811115613fa1575f80fd5b5f805f805f8060c087890312156142a6575f80fd5b86356001600160401b038111156142bb575f80fd5b6142c789828a01613b3b565b96505060208701356001600160401b038111156142e2575f80fd5b6142ee89828a01613b9f565b95505060408701356001600160401b03811115614309575f80fd5b61431589828a01613bfa565b94505060608701356001600160401b03811115614330575f80fd5b61433c89828a01613a5e565b93505060808701356001600160401b03811115614357575f80fd5b61436389828a01613a5e565b92505060a08701356001600160401b0381111561437e575f80fd5b61438a89828a01613a5e565b9150509295509295509295565b5f602082840312156143a7575f80fd5b813563ffffffff81168114611345575f80fd5b5f80604083850312156143cb575f80fd5b82356143d6816139e0565b946020939093013593505050565b60a081525f6143f660a08301886139a0565b828103602084015261440881886139a0565b9050828103604084015261441c81876139a0565b6001600160a01b039590951660608401525050608001529392505050565b5f805f805f60a0868803121561444e575f80fd5b8535614459816139e0565b94506020860135614469816139e0565b9350604086013592506060860135915060808601356001600160401b03811115613f1d575f80fd5b600181811c908216806144a557607f821691505b6020821081036144c357634e487b7160e01b5f52602260045260245ffd5b50919050565b634e487b7160e01b5f52603260045260245ffd5b5f602082840312156144ed575f80fd5b81516001600160401b03811115614502575f80fd5b8201601f81018413614512575f80fd5b8051614520613a8082613a38565b818152856020838501011115614534575f80fd5b8160208401602083015e5f91810160200191909152949350505050565b634e487b7160e01b5f52601160045260245ffd5b65ffffffffffff8281168282160390811115610b1f57610b1f614551565b5f60208284031215614593575f80fd5b815161134581613f36565b65ffffffffffff8181168382160190811115610b1f57610b1f614551565b818382375f9101908152919050565b5f8151808452602084019350602083015f5b828110156140a15781516001600160a01b03168652602095860195909101906001016145dd565b5f82825180855260208501945060208160051b830101602085015f5b8381101561465257601f1985840301885261463c8383516139a0565b6020988901989093509190910190600101614620565b50909695505050505050565b608081525f61467060808301876145cb565b82810360208401526146828187614071565b905082810360408401526146968186614604565b91505082606083015295945050505050565b5f81518060208401855e5f93019283525090919050565b5f6146ca82856146a8565b61050560f11b81526112a660028201856146a8565b601f82111561472357805f5260205f20601f840160051c810160208510156147045750805b601f840160051c820191505b81811015611c4c575f8155600101614710565b505050565b81516001600160401b03811115614741576147416139f4565b6147558161474f8454614491565b846146df565b6020601f821160018114614787575f83156147705750848201515b5f19600385901b1c1916600184901b178455611c4c565b5f84815260208120601f198516915b828110156147b65787850151825560209485019460019092019101614796565b50848210156147d357868401515f19600387901b60f8161c191681555b50505050600190811b01905550565b604081525f6147f460408301856139a0565b82810360208401526112a681856139a0565b8381526060810161481a6020830185613d1f565b826040830152949350505050565b5f60208284031215614838575f80fd5b81518015158114611345575f80fd5b84815260ff84166020820152826040820152608060608201525f61115560808301846139a0565b85815260ff8516602082015283604082015260a060608201525f61489560a08301856139a0565b828103608084015261109e81856139a0565b80820180821115610b1f57610b1f614551565b8981526001600160a01b0389166020820152610120604082018190525f906148e49083018a6145cb565b82810360608401526148f6818a614071565b9050828103608084015280885180835260208301915060208160051b84010160208b015f5b8381101561494d57601f198684030185526149378383516139a0565b602095860195909350919091019060010161491b565b505085810360a0870152614961818b614604565b93505050508560c08401528460e084015282810361010084015261498581856139a0565b9c9b505050505050505050505050565b5f602082840312156149a5575f80fd5b5051919050565b81810381811115610b1f57610b1f614551565b60a081525f6149d160a08301886145cb565b82810360208401526149e38188614071565b905082810360408401526149f78187614604565b60608401959095525050608001529392505050565b60c081525f614a1e60c08301896145cb565b8281036020840152614a308189614071565b90508281036040840152614a448188614604565b60608401969096525050608081019290925260a0909101529392505050565b8082028115828204841417610b1f57610b1f614551565b634e487b7160e01b5f52601260045260245ffd5b60ff8181168382160190811115610b1f57610b1f614551565b6001815b600184111561277357808504811115614ac657614ac6614551565b6001841615614ad457908102905b60019390931c928002614aab565b5f82614af057506001610b1f565b81614afc57505f610b1f565b8160018114614b125760028114614b1c57614b38565b6001915050610b1f565b60ff841115614b2d57614b2d614551565b50506001821b610b1f565b5060208310610133831016604e8410600b8410161715614b5b575081810a610b1f565b614b675f198484614aa7565b805f1904821115614b7a57614b7a614551565b029392505050565b5f61134560ff841683614ae2565b828152604060208201525f61134260408301846139a0565b5f61134582846146a8565b5f82614bcd57634e487b7160e01b5f52601260045260245ffd5b50049056fea2646970667358221220841f62ab81a4352f6fe39aa7cf81eb02c0defcef71ed746dc18c095dd86be7bb64736f6c634300081a0033",
  "linkReferences": {},
  "deployedLinkReferences": {}
}