{
  "_format": "hh-sol-artifact-1",
  "contractName": "ArcToken",
  "sourceName": "contracts/ArcToken.sol",
  "abi": [
    {
      "inputs": [],
      "stateMutability": "nonpayable",
      "type": "constructor"
    },
    {
      "inputs": [
        {
          "internalType": "address",
          "name": "spender",
          "type": "address"
        },
        {
          "internalType": "uint256",
          "name": "allowance",
          "type": "uint256"
        },
        {
          "internalType": "uint256",
          "name": "needed",
          "type": "uint256"
        }
      ],
      "name": "ERC20InsufficientAllowance",
      "type": "error"
    },
    {
      "inputs": [
        {
          "internalType": "address",
          "name": "sender",
          "type": "address"
        },
        {
          "internalType": "uint256",
          "name": "balance",
          "type": "uint256"
        },
        {
          "internalType": "uint256",
          "name": "needed",
          "type": "uint256"
        }
      ],
      "name": "ERC20InsufficientBalance",
      "type": "error"
    },
    {
      "inputs": [
        {
          "internalType": "address",
          "name": "approver",
          "type": "address"
        }
      ],
      "name": "ERC20InvalidApprover",
      "type": "error"
    },
    {
      "inputs": [
        {
          "internalType": "address",
          "name": "receiver",
          "type": "address"
        }
      ],
      "name": "ERC20InvalidReceiver",
      "type": "error"
    },
    {
      "inputs": [
        {
          "internalType": "address",
          "name": "sender",
          "type": "address"
        }
      ],
      "name": "ERC20InvalidSender",
      "type": "error"
    },
    {
      "inputs": [
        {
          "internalType": "address",
          "name": "spender",
          "type": "address"
        }
      ],
      "name": "ERC20InvalidSpender",
      "type": "error"
    },
    {
      "inputs": [
        {
          "internalType": "address",
          "name": "owner",
          "type": "address"
        }
      ],
      "name": "OwnableInvalidOwner",
      "type": "error"
    },
    {
      "inputs": [
        {
          "internalType": "address",
          "name": "account",
          "type": "address"
        }
      ],
      "name": "OwnableUnauthorizedAccount",
      "type": "error"
    },
    {
      "anonymous": false,
      "inputs": [
        {
          "indexed": true,
          "internalType": "address",
          "name": "owner",
          "type": "address"
        },
        {
          "indexed": true,
          "internalType": "address",
          "name": "spender",
          "type": "address"
        },
        {
          "indexed": false,
          "internalType": "uint256",
          "name": "value",
          "type": "uint256"
        }
      ],
      "name": "Approval",
      "type": "event"
    },
    {
      "anonymous": false,
      "inputs": [
        {
          "indexed": true,
          "internalType": "address",
          "name": "minter",
          "type": "address"
        }
      ],
      "name": "MinterAdded",
      "type": "event"
    },
    {
      "anonymous": false,
      "inputs": [
        {
          "indexed": true,
          "internalType": "address",
          "name": "minter",
          "type": "address"
        }
      ],
      "name": "MinterRemoved",
      "type": "event"
    },
    {
      "anonymous": false,
      "inputs": [
        {
          "indexed": true,
          "internalType": "address",
          "name": "previousOwner",
          "type": "address"
        },
        {
          "indexed": true,
          "internalType": "address",
          "name": "newOwner",
          "type": "address"
        }
      ],
      "name": "OwnershipTransferred",
      "type": "event"
    },
    {
      "anonymous": false,
      "inputs": [
        {
          "indexed": true,
          "internalType": "address",
          "name": "from",
          "type": "address"
        },
        {
          "indexed": true,
          "internalType": "address",
          "name": "to",
          "type": "address"
        },
        {
          "indexed": false,
          "internalType": "uint256",
          "name": "value",
          "type": "uint256"
        }
      ],
      "name": "Transfer",
      "type": "event"
    },
    {
      "inputs": [],
      "name": "MAX_SUPPLY",
      "outputs": [
        {
          "internalType": "uint256",
          "name": "",
          "type": "uint256"
        }
      ],
      "stateMutability": "view",
      "type": "function"
    },
    {
      "inputs": [
        {
          "internalType": "address",
          "name": "minter",
          "type": "address"
        }
      ],
      "name": "addMinter",
      "outputs": [],
      "stateMutability": "nonpayable",
      "type": "function"
    },
    {
      "inputs": [
        {
          "internalType": "address",
          "name": "owner",
          "type": "address"
        },
        {
          "internalType": "address",
          "name": "spender",
          "type": "address"
        }
      ],
      "name": "allowance",
      "outputs": [
        {
          "internalType": "uint256",
          "name": "",
          "type": "uint256"
        }
      ],
      "stateMutability": "view",
      "type": "function"
    },
    {
      "inputs": [
        {
          "internalType": "address",
          "name": "spender",
          "type": "address"
        },
        {
          "internalType": "uint256",
          "name": "value",
          "type": "uint256"
        }
      ],
      "name": "approve",
      "outputs": [
        {
          "internalType": "bool",
          "name": "",
          "type": "bool"
        }
      ],
      "stateMutability": "nonpayable",
      "type": "function"
    },
    {
      "inputs": [
        {
          "internalType": "address",
          "name": "account",
          "type": "address"
        }
      ],
      "name": "balanceOf",
      "outputs": [
        {
          "internalType": "uint256",
          "name": "",
          "type": "uint256"
        }
      ],
      "stateMutability": "view",
      "type": "function"
    },
    {
      "inputs": [
        {
          "internalType": "uint256",
          "name": "amount",
          "type": "uint256"
        }
      ],
      "name": "burn",
      "outputs": [],
      "stateMutability": "nonpayable",
      "type": "function"
    },
    {
      "inputs": [],
      "name": "decimals",
      "outputs": [
        {
          "internalType": "uint8",
          "name": "",
          "type": "uint8"
        }
      ],
      "stateMutability": "view",
      "type": "function"
    },
    {
      "inputs": [
        {
          "internalType": "address",
          "name": "to",
          "type": "address"
        },
        {
          "internalType": "uint256",
          "name": "amount",
          "type": "uint256"
        }
      ],
      "name": "mint",
      "outputs": [],
      "stateMutability": "nonpayable",
      "type": "function"
    },
    {
      "inputs": [
        {
          "internalType": "address",
          "name": "",
          "type": "address"
        }
      ],
      "name": "minters",
      "outputs": [
        {
          "internalType": "bool",
          "name": "",
          "type": "bool"
        }
      ],
      "stateMutability": "view",
      "type": "function"
    },
    {
      "inputs": [],
      "name": "name",
      "outputs": [
        {
          "internalType": "string",
          "name": "",
          "type": "string"
        }
      ],
      "stateMutability": "view",
      "type": "function"
    },
    {
      "inputs": [],
      "name": "owner",
      "outputs": [
        {
          "internalType": "address",
          "name": "",
          "type": "address"
        }
      ],
      "stateMutability": "view",
      "type": "function"
    },
    {
      "inputs": [
        {
          "internalType": "address",
          "name": "minter",
          "type": "address"
        }
      ],
      "name": "removeMinter",
      "outputs": [],
      "stateMutability": "nonpayable",
      "type": "function"
    },
    {
      "inputs": [],
      "name": "renounceOwnership",
      "outputs": [],
      "stateMutability": "nonpayable",
      "type": "function"
    },
    {
      "inputs": [],
      "name": "symbol",
      "outputs": [
        {
          "internalType": "string",
          "name": "",
          "type": "string"
        }
      ],
      "stateMutability": "view",
      "type": "function"
    },
    {
      "inputs": [],
      "name": "totalSupply",
      "outputs": [
        {
          "internalType": "uint256",
          "name": "",
          "type": "uint256"
        }
      ],
      "stateMutability": "view",
      "type": "function"
    },
    {
      "inputs": [
        {
          "internalType": "address",
          "name": "to",
          "type": "address"
        },
        {
          "internalType": "uint256",
          "name": "value",
          "type": "uint256"
        }
      ],
      "name": "transfer",
      "outputs": [
        {
          "internalType": "bool",
          "name": "",
          "type": "bool"
        }
      ],
      "stateMutability": "nonpayable",
      "type": "function"
    },
    {
      "inputs": [
        {
          "internalType": "address",
          "name": "from",
          "type": "address"
        },
        {
          "internalType": "address",
          "name": "to",
          "type": "address"
        },
        {
          "internalType": "uint256",
          "name": "value",
          "type": "uint256"
        }
      ],
      "name": "transferFrom",
      "outputs": [
        {
          "internalType": "bool",
          "name": "",
          "type": "bool"
        }
      ],
      "stateMutability": "nonpayable",
      "type": "function"
    },
    {
      "inputs": [
        {
          "internalType": "address",
          "name": "newOwner",
          "type": "address"
        }
      ],
      "name": "transferOwnership",
      "outputs": [],
      "stateMutability": "nonpayable",
      "type": "function"
    }
  ],
  "bytecode": "0x60806040523480156200001157600080fd5b50336040518060400160405280600981526020016820b931902a37b5b2b760b91b8152506040518060400160405280600381526020016241524360e81b815250816003908162000062919062000334565b50600462000071828262000334565b5050506001600160a01b038116620000a457604051631e4fbdf760e01b8152600060048201526024015b60405180910390fd5b620000af81620000cc565b50620000c63369152d02c7e14af68000006200011e565b62000428565b600580546001600160a01b038381166001600160a01b0319831681179093556040519116919082907f8be0079c531659141344cd1fd0a4f28419497f9722a3daafe3b4186f6b6457e090600090a35050565b6001600160a01b0382166200014a5760405163ec442f0560e01b8152600060048201526024016200009b565b62000158600083836200015c565b5050565b6001600160a01b0383166200018b5780600260008282546200017f919062000400565b90915550620001ff9050565b6001600160a01b03831660009081526020819052604090205481811015620001e05760405163391434e360e21b81526001600160a01b038516600482015260248101829052604481018390526064016200009b565b6001600160a01b03841660009081526020819052604090209082900390555b6001600160a01b0382166200021d576002805482900390556200023c565b6001600160a01b03821660009081526020819052604090208054820190555b816001600160a01b0316836001600160a01b03167fddf252ad1be2c89b69c2b068fc378daa952ba7f163c4a11628f55a4df523b3ef836040516200028291815260200190565b60405180910390a3505050565b634e487b7160e01b600052604160045260246000fd5b600181811c90821680620002ba57607f821691505b602082108103620002db57634e487b7160e01b600052602260045260246000fd5b50919050565b601f8211156200032f57600081815260208120601f850160051c810160208610156200030a5750805b601f850160051c820191505b818110156200032b5782815560010162000316565b5050505b505050565b81516001600160401b038111156200035057620003506200028f565b6200036881620003618454620002a5565b84620002e1565b602080601f831160018114620003a05760008415620003875750858301515b600019600386901b1c1916600185901b1785556200032b565b600085815260208120601f198616915b82811015620003d157888601518255948401946001909101908401620003b0565b5085821015620003f05787850151600019600388901b60f8161c191681555b5050505050600190811b01905550565b808201808211156200042257634e487b7160e01b600052601160045260246000fd5b92915050565b610b8e80620004386000396000f3fe608060405234801561001057600080fd5b50600436106101165760003560e01c806370a08231116100a2578063983b2d5611610071578063983b2d5614610230578063a9059cbb14610243578063dd62ed3e14610256578063f2fde38b1461028f578063f46eccc4146102a257600080fd5b806370a08231146101dc578063715018a6146102055780638da5cb5b1461020d57806395d89b411461022857600080fd5b80633092afd5116100e95780633092afd514610181578063313ce5671461019657806332cb6b0c146101a557806340c10f19146101b657806342966c68146101c957600080fd5b806306fdde031461011b578063095ea7b31461013957806318160ddd1461015c57806323b872dd1461016e575b600080fd5b6101236102c5565b60405161013091906109bf565b60405180910390f35b61014c610147366004610a29565b610357565b6040519015158152602001610130565b6002545b604051908152602001610130565b61014c61017c366004610a53565b610371565b61019461018f366004610a8f565b610395565b005b60405160128152602001610130565b61016069d3c21bcecceda100000081565b6101946101c4366004610a29565b6103e6565b6101946101d7366004610ab1565b6104c9565b6101606101ea366004610a8f565b6001600160a01b031660009081526020819052604090205490565b6101946104d6565b6005546040516001600160a01b039091168152602001610130565b6101236104ea565b61019461023e366004610a8f565b6104f9565b61014c610251366004610a29565b61059c565b610160610264366004610aca565b6001600160a01b03918216600090815260016020908152604080832093909416825291909152205490565b61019461029d366004610a8f565b6105aa565b61014c6102b0366004610a8f565b60066020526000908152604090205460ff1681565b6060600380546102d490610afd565b80601f016020809104026020016040519081016040528092919081815260200182805461030090610afd565b801561034d5780601f106103225761010080835404028352916020019161034d565b820191906000526020600020905b81548152906001019060200180831161033057829003601f168201915b5050505050905090565b6000336103658185856105e5565b60019150505b92915050565b60003361037f8582856105f7565b61038a858585610676565b506001949350505050565b61039d6106d5565b6001600160a01b038116600081815260066020526040808220805460ff19169055517fe94479a9f7e1952cc78f2d6baab678adc1b772d936c6583def489e524cb666929190a250565b3360009081526006602052604090205460ff168061040e57506005546001600160a01b031633145b6104585760405162461bcd60e51b8152602060048201526016602482015275139bdd08185d5d1a1bdc9a5e9959081d1bc81b5a5b9d60521b60448201526064015b60405180910390fd5b69d3c21bcecceda10000008161046d60025490565b6104779190610b37565b11156104bb5760405162461bcd60e51b815260206004820152601360248201527213585e081cdd5c1c1b1e48195e18d959591959606a1b604482015260640161044f565b6104c58282610702565b5050565b6104d33382610738565b50565b6104de6106d5565b6104e8600061076e565b565b6060600480546102d490610afd565b6105016106d5565b6001600160a01b0381166105505760405162461bcd60e51b8152602060048201526016602482015275496e76616c6964206d696e746572206164647265737360501b604482015260640161044f565b6001600160a01b038116600081815260066020526040808220805460ff19166001179055517f6ae172837ea30b801fbfcdd4108aa1d5bf8ff775444fd70256b44e6bf3dfc3f69190a250565b600033610365818585610676565b6105b26106d5565b6001600160a01b0381166105dc57604051631e4fbdf760e01b81526000600482015260240161044f565b6104d38161076e565b6105f283838360016107c0565b505050565b6001600160a01b03838116600090815260016020908152604080832093861683529290522054600019811015610670578181101561066157604051637dc7a0d960e11b81526001600160a01b0384166004820152602481018290526044810183905260640161044f565b610670848484840360006107c0565b50505050565b6001600160a01b0383166106a057604051634b637e8f60e11b81526000600482015260240161044f565b6001600160a01b0382166106ca5760405163ec442f0560e01b81526000600482015260240161044f565b6105f2838383610895565b6005546001600160a01b031633146104e85760405163118cdaa760e01b815233600482015260240161044f565b6001600160a01b03821661072c5760405163ec442f0560e01b81526000600482015260240161044f565b6104c560008383610895565b6001600160a01b03821661076257604051634b637e8f60e11b81526000600482015260240161044f565b6104c582600083610895565b600580546001600160a01b038381166001600160a01b0319831681179093556040519116919082907f8be0079c531659141344cd1fd0a4f28419497f9722a3daafe3b4186f6b6457e090600090a35050565b6001600160a01b0384166107ea5760405163e602df0560e01b81526000600482015260240161044f565b6001600160a01b03831661081457604051634a1406b160e11b81526000600482015260240161044f565b6001600160a01b038085166000908152600160209081526040808320938716835292905220829055801561067057826001600160a01b0316846001600160a01b03167f8c5be1e5ebec7d5bd14f71427d1e84f3dd0314c0f7b2291e5b200ac8c7c3b9258460405161088791815260200190565b60405180910390a350505050565b6001600160a01b0383166108c05780600260008282546108b59190610b37565b909155506109329050565b6001600160a01b038316600090815260208190526040902054818110156109135760405163391434e360e21b81526001600160a01b0385166004820152602481018290526044810183905260640161044f565b6001600160a01b03841660009081526020819052604090209082900390555b6001600160a01b03821661094e5760028054829003905561096d565b6001600160a01b03821660009081526020819052604090208054820190555b816001600160a01b0316836001600160a01b03167fddf252ad1be2c89b69c2b068fc378daa952ba7f163c4a11628f55a4df523b3ef836040516109b291815260200190565b60405180910390a3505050565b600060208083528351808285015260005b818110156109ec578581018301518582016040015282016109d0565b506000604082860101526040601f19601f8301168501019250505092915050565b80356001600160a01b0381168114610a2457600080fd5b919050565b60008060408385031215610a3c57600080fd5b610a4583610a0d565b946020939093013593505050565b600080600060608486031215610a6857600080fd5b610a7184610a0d565b9250610a7f60208501610a0d565b9150604084013590509250925092565b600060208284031215610aa157600080fd5b610aaa82610a0d565b9392505050565b600060208284031215610ac357600080fd5b5035919050565b60008060408385031215610add57600080fd5b610ae683610a0d565b9150610af460208401610a0d565b90509250929050565b600181811c90821680610b1157607f821691505b602082108103610b3157634e487b7160e01b600052602260045260246000fd5b50919050565b8082018082111561036b57634e487b7160e01b600052601160045260246000fdfea264697066735822122082db67a567525fc0d63bbbd308548eb8e7c7cc443569e2799bf3ddbfa741682764736f6c63430008140033",
  "linkReferences": {},
  "deployedLinkReferences": {}
}