{
  "_format": "hh-sol-artifact-1",
  "contractName": "ArcToken",
  "sourceName": "contracts/ArcToken.sol",
  "abi": [
    {
      "inputs": [],
      "stateMutability": "nonpayable",
      "type": "constructor"
    },
    {
      "inputs": [
        {
          "internalType": "address",
          "name": "spender",
          "type": "address"
        },
        {
          "internalType": "uint256",
          "name": "allowance",
          "type": "uint256"
        },
        {
          "internalType": "uint256",
          "name": "needed",
          "type": "uint256"
        }
      ],
      "name": "ERC20InsufficientAllowance",
      "type": "error"
    },
    {
      "inputs": [
        {
          "internalType": "address",
          "name": "sender",
          "type": "address"
        },
        {
          "internalType": "uint256",
          "name": "balance",
          "type": "uint256"
        },
        {
          "internalType": "uint256",
          "name": "needed",
          "type": "uint256"
        }
      ],
      "name": "ERC20InsufficientBalance",
      "type": "error"
    },
    {
      "inputs": [
        {
          "internalType": "address",
          "name": "approver",
          "type": "address"
        }
      ],
      "name": "ERC20InvalidApprover",
      "type": "error"
    },
    {
      "inputs": [
        {
          "internalType": "address",
          "name": "receiver",
          "type": "address"
        }
      ],
      "name": "ERC20InvalidReceiver",
      "type": "error"
    },
    {
      "inputs": [
        {
          "internalType": "address",
          "name": "sender",
          "type": "address"
        }
      ],
      "name": "ERC20InvalidSender",
      "type": "error"
    },
    {
      "inputs": [
        {
          "internalType": "address",
          "name": "spender",
          "type": "address"
        }
      ],
      "name": "ERC20InvalidSpender",
      "type": "error"
    },
    {
      "inputs": [
        {
          "internalType": "address",
          "name": "owner",
          "type": "address"
        }
      ],
      "name": "OwnableInvalidOwner",
      "type": "error"
    },
    {
      "inputs": [
        {
          "internalType": "address",
          "name": "account",
          "type": "address"
        }
      ],
      "name": "OwnableUnauthorizedAccount",
      "type": "error"
    },
    {
      "anonymous": false,
      "inputs": [
        {
          "indexed": true,
          "internalType": "address",
          "name": "owner",
          "type": "address"
        },
        {
          "indexed": true,
          "internalType": "address",
          "name": "spender",
          "type": "address"
        },
        {
          "indexed": false,
          "internalType": "uint256",
          "name": "value",
          "type": "uint256"
        }
      ],
      "name": "Approval",
      "type": "event"
    },
    {
      "anonymous": false,
      "inputs": [
        {
          "indexed": true,
          "internalType": "address",
          "name": "minter",
          "type": "address"
        }
      ],
      "name": "MinterAdded",
      "type": "event"
    },
    {
      "anonymous": false,
      "inputs": [
        {
          "indexed": true,
          "internalType": "address",
          "name": "minter",
          "type": "address"
        }
      ],
      "name": "MinterRemoved",
      "type": "event"
    },
    {
      "anonymous": false,
      "inputs": [
        {
          "indexed": true,
          "internalType": "address",
          "name": "previousOwner",
          "type": "address"
        },
        {
          "indexed": true,
          "internalType": "address",
          "name": "newOwner",
          "type": "address"
        }
      ],
      "name": "OwnershipTransferred",
      "type": "event"
    },
    {
      "anonymous": false,
      "inputs": [
        {
          "indexed": true,
          "internalType": "address",
          "name": "from",
          "type": "address"
        },
        {
          "indexed": true,
          "internalType": "address",
          "name": "to",
          "type": "address"
        },
        {
          "indexed": false,
          "internalType": "uint256",
          "name": "value",
          "type": "uint256"
        }
      ],
      "name": "Transfer",
      "type": "event"
    },
    {
      "inputs": [],
      "name": "MAX_SUPPLY",
      "outputs": [
        {
          "internalType": "uint256",
          "name": "",
          "type": "uint256"
        }
      ],
      "stateMutability": "view",
      "type": "function"
    },
    {
      "inputs": [
        {
          "internalType": "address",
          "name": "minter",
          "type": "address"
        }
      ],
      "name": "addMinter",
      "outputs": [],
      "stateMutability": "nonpayable",
      "type": "function"
    },
    {
      "inputs": [
        {
          "internalType": "address",
          "name": "owner",
          "type": "address"
        },
        {
          "internalType": "address",
          "name": "spender",
          "type": "address"
        }
      ],
      "name": "allowance",
      "outputs": [
        {
          "internalType": "uint256",
          "name": "",
          "type": "uint256"
        }
      ],
      "stateMutability": "view",
      "type": "function"
    },
    {
      "inputs": [
        {
          "internalType": "address",
          "name": "spender",
          "type": "address"
        },
        {
          "internalType": "uint256",
          "name": "value",
          "type": "uint256"
        }
      ],
      "name": "approve",
      "outputs": [
        {
          "internalType": "bool",
          "name": "",
          "type": "bool"
        }
      ],
      "stateMutability": "nonpayable",
      "type": "function"
    },
    {
      "inputs": [
        {
          "internalType": "address",
          "name": "account",
          "type": "address"
        }
      ],
      "name": "balanceOf",
      "outputs": [
        {
          "internalType": "uint256",
          "name": "",
          "type": "uint256"
        }
      ],
      "stateMutability": "view",
      "type": "function"
    },
    {
      "inputs": [
        {
          "internalType": "uint256",
          "name": "amount",
          "type": "uint256"
        }
      ],
      "name": "burn",
      "outputs": [],
      "stateMutability": "nonpayable",
      "type": "function"
    },
    {
      "inputs": [],
      "name": "decimals",
      "outputs": [
        {
          "internalType": "uint8",
          "name": "",
          "type": "uint8"
        }
      ],
      "stateMutability": "view",
      "type": "function"
    },
    {
      "inputs": [
        {
          "internalType": "address",
          "name": "to",
          "type": "address"
        },
        {
          "internalType": "uint256",
          "name": "amount",
          "type": "uint256"
        }
      ],
      "name": "mint",
      "outputs": [],
      "stateMutability": "nonpayable",
      "type": "function"
    },
    {
      "inputs": [
        {
          "internalType": "address",
          "name": "",
          "type": "address"
        }
      ],
      "name": "minters",
      "outputs": [
        {
          "internalType": "bool",
          "name": "",
          "type": "bool"
        }
      ],
      "stateMutability": "view",
      "type": "function"
    },
    {
      "inputs": [],
      "name": "name",
      "outputs": [
        {
          "internalType": "string",
          "name": "",
          "type": "string"
        }
      ],
      "stateMutability": "view",
      "type": "function"
    },
    {
      "inputs": [],
      "name": "owner",
      "outputs": [
        {
          "internalType": "address",
          "name": "",
          "type": "address"
        }
      ],
      "stateMutability": "view",
      "type": "function"
    },
    {
      "inputs": [
        {
          "internalType": "address",
          "name": "minter",
          "type": "address"
        }
      ],
      "name": "removeMinter",
      "outputs": [],
      "stateMutability": "nonpayable",
      "type": "function"
    },
    {
      "inputs": [],
      "name": "renounceOwnership",
      "outputs": [],
      "stateMutability": "nonpayable",
      "type": "function"
    },
    {
      "inputs": [],
      "name": "symbol",
      "outputs": [
        {
          "internalType": "string",
          "name": "",
          "type": "string"
        }
      ],
      "stateMutability": "view",
      "type": "function"
    },
    {
      "inputs": [],
      "name": "totalSupply",
      "outputs": [
        {
          "internalType": "uint256",
          "name": "",
          "type": "uint256"
        }
      ],
      "stateMutability": "view",
      "type": "function"
    },
    {
      "inputs": [
        {
          "internalType": "address",
          "name": "to",
          "type": "address"
        },
        {
          "internalType": "uint256",
          "name": "value",
          "type": "uint256"
        }
      ],
      "name": "transfer",
      "outputs": [
        {
          "internalType": "bool",
          "name": "",
          "type": "bool"
        }
      ],
      "stateMutability": "nonpayable",
      "type": "function"
    },
    {
      "inputs": [
        {
          "internalType": "address",
          "name": "from",
          "type": "address"
        },
        {
          "internalType": "address",
          "name": "to",
          "type": "address"
        },
        {
          "internalType": "uint256",
          "name": "value",
          "type": "uint256"
        }
      ],
      "name": "transferFrom",
      "outputs": [
        {
          "internalType": "bool",
          "name": "",
          "type": "bool"
        }
      ],
      "stateMutability": "nonpayable",
      "type": "function"
    },
    {
      "inputs": [
        {
          "internalType": "address",
          "name": "newOwner",
          "type": "address"
        }
      ],
      "name": "transferOwnership",
      "outputs": [],
      "stateMutability": "nonpayable",
      "type": "function"
    }
  ],
  "bytecode": "0x608060405234801561000f575f80fd5b50336040518060400160405280600981526020016820b931902a37b5b2b760b91b8152506040518060400160405280600381526020016241524360e81b815250816003908161005e9190610306565b50600461006b8282610306565b5050506001600160a01b03811661009c57604051631e4fbdf760e01b81525f60048201526024015b60405180910390fd5b6100a5816100bf565b506100ba3369152d02c7e14af6800000610110565b6103e5565b600580546001600160a01b038381166001600160a01b0319831681179093556040519116919082907f8be0079c531659141344cd1fd0a4f28419497f9722a3daafe3b4186f6b6457e0905f90a35050565b6001600160a01b0382166101395760405163ec442f0560e01b81525f6004820152602401610093565b6101445f8383610148565b5050565b6001600160a01b038316610172578060025f82825461016791906103c0565b909155506101e29050565b6001600160a01b0383165f90815260208190526040902054818110156101c45760405163391434e360e21b81526001600160a01b03851660048201526024810182905260448101839052606401610093565b6001600160a01b0384165f9081526020819052604090209082900390555b6001600160a01b0382166101fe5760028054829003905561021c565b6001600160a01b0382165f9081526020819052604090208054820190555b816001600160a01b0316836001600160a01b03167fddf252ad1be2c89b69c2b068fc378daa952ba7f163c4a11628f55a4df523b3ef8360405161026191815260200190565b60405180910390a3505050565b634e487b7160e01b5f52604160045260245ffd5b600181811c9082168061029657607f821691505b6020821081036102b457634e487b7160e01b5f52602260045260245ffd5b50919050565b601f82111561030157805f5260205f20601f840160051c810160208510156102df5750805b601f840160051c820191505b818110156102fe575f81556001016102eb565b50505b505050565b81516001600160401b0381111561031f5761031f61026e565b6103338161032d8454610282565b846102ba565b6020601f821160018114610365575f831561034e5750848201515b5f19600385901b1c1916600184901b1784556102fe565b5f84815260208120601f198516915b828110156103945787850151825560209485019460019092019101610374565b50848210156103b157868401515f19600387901b60f8161c191681555b50505050600190811b01905550565b808201808211156103df57634e487b7160e01b5f52601160045260245ffd5b92915050565b610b42806103f25f395ff3fe608060405234801561000f575f80fd5b5060043610610111575f3560e01c806370a082311161009e578063983b2d561161006e578063983b2d5614610229578063a9059cbb1461023c578063dd62ed3e1461024f578063f2fde38b14610287578063f46eccc41461029a575f80fd5b806370a08231146101d6578063715018a6146101fe5780638da5cb5b1461020657806395d89b4114610221575f80fd5b80633092afd5116100e45780633092afd51461017b578063313ce5671461019057806332cb6b0c1461019f57806340c10f19146101b057806342966c68146101c3575f80fd5b806306fdde0314610115578063095ea7b31461013357806318160ddd1461015657806323b872dd14610168575b5f80fd5b61011d6102bc565b60405161012a919061099b565b60405180910390f35b6101466101413660046109eb565b61034c565b604051901515815260200161012a565b6002545b60405190815260200161012a565b610146610176366004610a13565b610365565b61018e610189366004610a4d565b610388565b005b6040516012815260200161012a565b61015a69d3c21bcecceda100000081565b61018e6101be3660046109eb565b6103d8565b61018e6101d1366004610a6d565b6104ba565b61015a6101e4366004610a4d565b6001600160a01b03165f9081526020819052604090205490565b61018e6104c7565b6005546040516001600160a01b03909116815260200161012a565b61011d6104da565b61018e610237366004610a4d565b6104e9565b61014661024a3660046109eb565b61058b565b61015a61025d366004610a84565b6001600160a01b039182165f90815260016020908152604080832093909416825291909152205490565b61018e610295366004610a4d565b610598565b6101466102a8366004610a4d565b60066020525f908152604090205460ff1681565b6060600380546102cb90610ab5565b80601f01602080910402602001604051908101604052809291908181526020018280546102f790610ab5565b80156103425780601f1061031957610100808354040283529160200191610342565b820191905f5260205f20905b81548152906001019060200180831161032557829003601f168201915b5050505050905090565b5f336103598185856105d2565b60019150505b92915050565b5f336103728582856105e4565b61037d858585610660565b506001949350505050565b6103906106bd565b6001600160a01b0381165f81815260066020526040808220805460ff19169055517fe94479a9f7e1952cc78f2d6baab678adc1b772d936c6583def489e524cb666929190a250565b335f9081526006602052604090205460ff16806103ff57506005546001600160a01b031633145b6104495760405162461bcd60e51b8152602060048201526016602482015275139bdd08185d5d1a1bdc9a5e9959081d1bc81b5a5b9d60521b60448201526064015b60405180910390fd5b69d3c21bcecceda10000008161045e60025490565b6104689190610aed565b11156104ac5760405162461bcd60e51b815260206004820152601360248201527213585e081cdd5c1c1b1e48195e18d959591959606a1b6044820152606401610440565b6104b682826106ea565b5050565b6104c4338261071e565b50565b6104cf6106bd565b6104d85f610752565b565b6060600480546102cb90610ab5565b6104f16106bd565b6001600160a01b0381166105405760405162461bcd60e51b8152602060048201526016602482015275496e76616c6964206d696e746572206164647265737360501b6044820152606401610440565b6001600160a01b0381165f81815260066020526040808220805460ff19166001179055517f6ae172837ea30b801fbfcdd4108aa1d5bf8ff775444fd70256b44e6bf3dfc3f69190a250565b5f33610359818585610660565b6105a06106bd565b6001600160a01b0381166105c957604051631e4fbdf760e01b81525f6004820152602401610440565b6104c481610752565b6105df83838360016107a3565b505050565b6001600160a01b038381165f908152600160209081526040808320938616835292905220545f1981101561065a578181101561064c57604051637dc7a0d960e11b81526001600160a01b03841660048201526024810182905260448101839052606401610440565b61065a84848484035f6107a3565b50505050565b6001600160a01b03831661068957604051634b637e8f60e11b81525f6004820152602401610440565b6001600160a01b0382166106b25760405163ec442f0560e01b81525f6004820152602401610440565b6105df838383610875565b6005546001600160a01b031633146104d85760405163118cdaa760e01b8152336004820152602401610440565b6001600160a01b0382166107135760405163ec442f0560e01b81525f6004820152602401610440565b6104b65f8383610875565b6001600160a01b03821661074757604051634b637e8f60e11b81525f6004820152602401610440565b6104b6825f83610875565b600580546001600160a01b038381166001600160a01b0319831681179093556040519116919082907f8be0079c531659141344cd1fd0a4f28419497f9722a3daafe3b4186f6b6457e0905f90a35050565b6001600160a01b0384166107cc5760405163e602df0560e01b81525f6004820152602401610440565b6001600160a01b0383166107f557604051634a1406b160e11b81525f6004820152602401610440565b6001600160a01b038085165f908152600160209081526040808320938716835292905220829055801561065a57826001600160a01b0316846001600160a01b03167f8c5be1e5ebec7d5bd14f71427d1e84f3dd0314c0f7b2291e5b200ac8c7c3b9258460405161086791815260200190565b60405180910390a350505050565b6001600160a01b03831661089f578060025f8282546108949190610aed565b9091555061090f9050565b6001600160a01b0383165f90815260208190526040902054818110156108f15760405163391434e360e21b81526001600160a01b03851660048201526024810182905260448101839052606401610440565b6001600160a01b0384165f9081526020819052604090209082900390555b6001600160a01b03821661092b57600280548290039055610949565b6001600160a01b0382165f9081526020819052604090208054820190555b816001600160a01b0316836001600160a01b03167fddf252ad1be2c89b69c2b068fc378daa952ba7f163c4a11628f55a4df523b3ef8360405161098e91815260200190565b60405180910390a3505050565b602081525f82518060208401528060208501604085015e5f604082850101526040601f19601f83011684010191505092915050565b80356001600160a01b03811681146109e6575f80fd5b919050565b5f80604083850312156109fc575f80fd5b610a05836109d0565b946020939093013593505050565b5f805f60608486031215610a25575f80fd5b610a2e846109d0565b9250610a3c602085016109d0565b929592945050506040919091013590565b5f60208284031215610a5d575f80fd5b610a66826109d0565b9392505050565b5f60208284031215610a7d575f80fd5b5035919050565b5f8060408385031215610a95575f80fd5b610a9e836109d0565b9150610aac602084016109d0565b90509250929050565b600181811c90821680610ac957607f821691505b602082108103610ae757634e487b7160e01b5f52602260045260245ffd5b50919050565b8082018082111561035f57634e487b7160e01b5f52601160045260245ffdfea26469706673582212202ad8b57ba05aec2af64dbd2dd53082e19efd1cab84f6ed66092523dccc6309f464736f6c634300081a0033",
  "linkReferences": {},
  "deployedLinkReferences": {}
}