{"contracts/ArcVault.sol":{"ArcVault":{"abi":[{"inputs":[{"internalType":"address","name":"_stakingToken","type":"address"},{"internalType":"address","name":"_rewardToken","type":"address"}],"stateMutability":"nonpayable","type":"constructor"},{"inputs":[{"internalType":"address","name":"owner","type":"address"}],"name":"OwnableInvalidOwner","type":"error"},{"inputs":[{"internalType":"address","name":"account","type":"address"}],"name":"OwnableUnauthorizedAccount","type":"error"},{"inputs":[],"name":"ReentrancyGuardReentrantCall","type":"error"},{"inputs":[{"internalType":"address","name":"token","type":"address"}],"name":"SafeERC20FailedOperation","type":"error"},{"anonymous":false,"inputs":[{"indexed":false,"internalType":"uint256","name":"newFee","type":"uint256"}],"name":"EarlyWithdrawFeeUpdated","type":"event"},{"anonymous":false,"inputs":[{"indexed":false,"internalType":"uint256","name":"newPeriod","type":"uint256"}],"name":"MinStakePeriodUpdated","type":"event"},{"anonymous":false,"inputs":[{"indexed":true,"internalType":"address","name":"previousOwner","type":"address"},{"indexed":true,"internalType":"address","name":"newOwner","type":"address"}],"name":"OwnershipTransferred","type":"event"},{"anonymous":false,"inputs":[{"indexed":true,"internalType":"address","name":"user","type":"address"},{"indexed":false,"internalType":"uint256","name":"amount","type":"uint256"}],"name":"RewardClaimed","type":"event"},{"anonymous":false,"inputs":[{"indexed":false,"internalType":"uint256","name":"newRate","type":"uint256"}],"name":"RewardRateUpdated","type":"event"},{"anonymous":false,"inputs":[{"indexed":true,"internalType":"address","name":"user","type":"address"},{"indexed":false,"internalType":"uint256","name":"amount","type":"uint256"}],"name":"Staked","type":"event"},{"anonymous":false,"inputs":[{"indexed":true,"internalType":"address","name":"user","type":"address"},{"indexed":false,"internalType":"uint256","name":"amount","type":"uint256"},{"indexed":false,"internalType":"uint256","name":"fee","type":"uint256"}],"name":"Unstaked","type":"event"},{"inputs":[],"name":"accRewardPerShare","outputs":[{"internalType":"uint256","name":"","type":"uint256"}],"stateMutability":"view","type":"function"},{"inputs":[],"name":"claimRewards","outputs":[],"stateMutability":"nonpayable","type":"function"},{"inputs":[],"name":"currentAPY","outputs":[{"internalType":"uint256","name":"","type":"uint256"}],"stateMutability":"view","type":"function"},{"inputs":[{"internalType":"uint256","name":"amount","type":"uint256"}],"name":"depositRewards","outputs":[],"stateMutability":"nonpayable","type":"function"},{"inputs":[],"name":"earlyWithdrawFee","outputs":[{"internalType":"uint256","name":"","type":"uint256"}],"stateMutability":"view","type":"function"},{"inputs":[],"name":"emergencyWithdraw","outputs":[],"stateMutability":"nonpayable","type":"function"},{"inputs":[],"name":"lastRewardTime","outputs":[{"internalType":"uint256","name":"","type":"uint256"}],"stateMutability":"view","type":"function"},{"inputs":[],"name":"minStakePeriod","outputs":[{"internalType":"uint256","name":"","type":"uint256"}],"stateMutability":"view","type":"function"},{"inputs":[],"name":"owner","outputs":[{"internalType":"address","name":"","type":"address"}],"stateMutability":"view","type":"function"},{"inputs":[{"internalType":"address","name":"user","type":"address"}],"name":"pendingRewards","outputs":[{"internalType":"uint256","name":"","type":"uint256"}],"stateMutability":"view","type":"function"},{"inputs":[],"name":"renounceOwnership","outputs":[],"stateMutability":"nonpayable","type":"function"},{"inputs":[],"name":"rewardPerSecond","outputs":[{"internalType":"uint256","name":"","type":"uint256"}],"stateMutability":"view","type":"function"},{"inputs":[],"name":"rewardToken","outputs":[{"internalType":"contract IERC20","name":"","type":"address"}],"stateMutability":"view","type":"function"},{"inputs":[{"internalType":"uint256","name":"_fee","type":"uint256"}],"name":"setEarlyWithdrawFee","outputs":[],"stateMutability":"nonpayable","type":"function"},{"inputs":[{"internalType":"uint256","name":"_minStakePeriod","type":"uint256"}],"name":"setMinStakePeriod","outputs":[],"stateMutability":"nonpayable","type":"function"},{"inputs":[{"internalType":"uint256","name":"_rewardPerSecond","type":"uint256"}],"name":"setRewardPerSecond","outputs":[],"stateMutability":"nonpayable","type":"function"},{"inputs":[{"internalType":"uint256","name":"amount","type":"uint256"}],"name":"stake","outputs":[],"stateMutability":"nonpayable","type":"function"},{"inputs":[{"internalType":"address","name":"","type":"address"}],"name":"stakes","outputs":[{"internalType":"uint256","name":"amount","type":"uint256"},{"internalType":"uint256","name":"rewardDebt","type":"uint256"},{"internalType":"uint256","name":"stakedAt","type":"uint256"},{"internalType":"uint256","name":"lastClaimAt","type":"uint256"}],"stateMutability":"view","type":"function"},{"inputs":[],"name":"stakingToken","outputs":[{"internalType":"contract IERC20","name":"","type":"address"}],"stateMutability":"view","type":"function"},{"inputs":[],"name":"totalStaked","outputs":[{"internalType":"uint256","name":"","type":"uint256"}],"stateMutability":"view","type":"function"},{"inputs":[{"internalType":"address","name":"newOwner","type":"address"}],"name":"transferOwnership","outputs":[],"stateMutability":"nonpayable","type":"function"},{"inputs":[{"internalType":"uint256","name":"amount","type":"uint256"}],"name":"unstake","outputs":[],"stateMutability":"nonpayable","type":"function"},{"inputs":[],"name":"updatePool","outputs":[],"stateMutability":"nonpayable","type":"function"},{"inputs":[{"internalType":"uint256","name":"amount","type":"uint256"}],"name":"withdrawExcessRewards","outputs":[],"stateMutability":"nonpayable","type":"function"}],"evm":{"bytecode":{"linkReferences":{},"object":"608060405262093a806009556101f4600a5534801561001d57600080fd5b5060405161127d38038061127d83398101604081905261003c91610111565b338061006257604051631e4fbdf760e01b81526000600482015260240160405180910390fd5b61006b816100a5565b5060018055600280546001600160a01b039384166001600160a01b0319918216179091556003805492909316911617905542600855610144565b600080546001600160a01b038381166001600160a01b0319831681178455604051919092169283917f8be0079c531659141344cd1fd0a4f28419497f9722a3daafe3b4186f6b6457e09190a35050565b80516001600160a01b038116811461010c57600080fd5b919050565b6000806040838503121561012457600080fd5b61012d836100f5565b915061013b602084016100f5565b90509250929050565b61112a806101536000396000f3fe608060405234801561001057600080fd5b50600436106101585760003560e01c80638f10369a116100c3578063c22982f41161007c578063c22982f4146102cd578063d84f2bc6146102e0578063db2e21bc146102e9578063e3161ddd146102f1578063f2fde38b146102f9578063f7c618c11461030c57600080fd5b80638f10369a1461028e5780639231cf7414610297578063939d6237146102a05780639a79d32b146102a9578063a694fc3a146102b1578063a80a7882146102c457600080fd5b806366da58151161011557806366da58151461021b578063715018a61461022e57806372f702f314610236578063817b1cd2146102615780638bdf67f21461026a5780638da5cb5b1461027d57600080fd5b806316934fc41461015d5780632e17de78146101b757806331d7a262146101cc57806336a79f00146101ed578063372500ab14610200578063499b86d814610208575b600080fd5b61019261016b366004611017565b60046020526000908152604090208054600182015460028301546003909301549192909184565b6040805194855260208501939093529183015260608201526080015b60405180910390f35b6101ca6101c5366004611047565b61031f565b005b6101df6101da366004611017565b61059b565b6040519081526020016101ae565b6101ca6101fb366004611047565b610664565b6101ca61077b565b6101ca610216366004611047565b6108cb565b6101ca610229366004611047565b61090f565b6101ca610954565b600254610249906001600160a01b031681565b6040516001600160a01b0390911681526020016101ae565b6101df60055481565b6101ca610278366004611047565b610966565b6000546001600160a01b0316610249565b6101df60065481565b6101df60085481565b6101df60075481565b6101df610986565b6101ca6102bf366004611047565b6109ce565b6101df600a5481565b6101ca6102db366004611047565b610b7f565b6101df60095481565b6101ca610bfd565b6101ca610ccd565b6101ca610307366004611017565b610d47565b600354610249906001600160a01b031681565b610327610d82565b336000908152600460205260409020805482111561038c5760405162461bcd60e51b815260206004820152601a60248201527f496e73756666696369656e74207374616b656420616d6f756e7400000000000060448201526064015b60405180910390fd5b600082116103dc5760405162461bcd60e51b815260206004820152601d60248201527f416d6f756e74206d7573742062652067726561746572207468616e20300000006044820152606401610383565b6103e4610ccd565b6000816001015464e8d4a5100060075484600001546104039190611076565b61040d9190611093565b61041791906110b5565b9050801561045f576104293382610dac565b60405181815233907f106f923f993c2149d49b4255ff723acafa1f2d94393f561d3eda32ae348f72419060200160405180910390a25b6000600954836002015461047391906110c8565b42101561049857612710600a548561048b9190611076565b6104959190611093565b90505b60006104a482866110b5565b9050848460000160008282546104ba91906110b5565b9091555050600754845464e8d4a51000916104d491611076565b6104de9190611093565b600185015583546000036104f457600060028501555b846005600082825461050691906110b5565b9091555050600254610522906001600160a01b03163383610e8b565b81156105505761055061053d6000546001600160a01b031690565b6002546001600160a01b03169084610e8b565b604080518681526020810184905233917f7fc4727e062e336010f2c282598ef5f14facb3de68cf8195c2f23e1454b2b74e910160405180910390a25050505061059860018055565b50565b6001600160a01b0381166000908152600460205260408120805482036105c45750600092915050565b600754600854421180156105da57506000600554115b1561062f576000600854426105ef91906110b5565b90506000600654826106019190611076565b60055490915061061664e8d4a5100083611076565b6106209190611093565b61062a90846110c8565b925050505b6001820154825464e8d4a5100090610648908490611076565b6106529190611093565b61065c91906110b5565b949350505050565b61066c610eea565b6003546040516370a0823160e01b81523060048201526000916001600160a01b0316906370a0823190602401602060405180830381865afa1580156106b5573d6000803e3d6000fd5b505050506040513d601f19601f820116820180604052508101906106d991906110db565b6002546003549192506001600160a01b0390811691160361074f5760055461070183836110b5565b101561074f5760405162461bcd60e51b815260206004820152601d60248201527f43616e6e6f74207769746864726177207374616b656420746f6b656e730000006044820152606401610383565b6107776107646000546001600160a01b031690565b6003546001600160a01b03169084610e8b565b5050565b610783610d82565b61078b610ccd565b33600090815260046020526040902080546107d95760405162461bcd60e51b815260206004820152600e60248201526d139bc81cdd185ad948199bdd5b9960921b6044820152606401610383565b6000816001015464e8d4a5100060075484600001546107f89190611076565b6108029190611093565b61080c91906110b5565b9050600081116108545760405162461bcd60e51b81526020600482015260136024820152724e6f207265776172647320746f20636c61696d60681b6044820152606401610383565b600754825464e8d4a510009161086991611076565b6108739190611093565b60018301554260038301556108883382610dac565b60405181815233907f106f923f993c2149d49b4255ff723acafa1f2d94393f561d3eda32ae348f7241906020015b60405180910390a250506108c960018055565b565b6108d3610eea565b60098190556040518181527f1725ed9ed9a12d0ce92132a82d3f85ccc777ce267226f7faa69507b2df14c79e906020015b60405180910390a150565b610917610eea565b61091f610ccd565b60068190556040518181527f41d466ebd06fb97e7786086ac8b69b7eb7da798592036251291d34e9791cde0190602001610904565b61095c610eea565b6108c96000610f17565b61096e610eea565b600354610598906001600160a01b0316333084610f67565b60006005546000036109985750600090565b60006006546301e133806109ac9190611076565b6005549091506109be82612710611076565b6109c89190611093565b91505090565b6109d6610d82565b60008111610a265760405162461bcd60e51b815260206004820152601d60248201527f416d6f756e74206d7573742062652067726561746572207468616e20300000006044820152606401610383565b610a2e610ccd565b336000908152600460205260409020805415610ac1576000816001015464e8d4a510006007548460000154610a639190611076565b610a6d9190611093565b610a7791906110b5565b90508015610abf57610a893382610dac565b60405181815233907f106f923f993c2149d49b4255ff723acafa1f2d94393f561d3eda32ae348f72419060200160405180910390a25b505b600254610ad9906001600160a01b0316333085610f67565b81816000016000828254610aed91906110c8565b9091555050600754815464e8d4a5100091610b0791611076565b610b119190611093565b60018201556002810154600003610b29574260028201555b8160056000828254610b3b91906110c8565b909155505060405182815233907f9e71bc8eea02a63969f509818f2dafb9254532904319f9dbda79b67bd34a5f3d9060200160405180910390a25061059860018055565b610b87610eea565b6107d0811115610bc85760405162461bcd60e51b815260206004820152600c60248201526b08ccaca40e8dede40d0d2ced60a31b6044820152606401610383565b600a8190556040518181527f864cabeb83698b194f9b49e7f58558d83cd8e635575ba53f511f37c834ece71c90602001610904565b610c05610d82565b336000908152600460205260409020805480610c545760405162461bcd60e51b815260206004820152600e60248201526d139bc81cdd185ad948199bdd5b9960921b6044820152606401610383565b6000808355600183018190556002830181905560058054839290610c799084906110b5565b9091555050600254610c95906001600160a01b03163383610e8b565b604080518281526000602082015233917f7fc4727e062e336010f2c282598ef5f14facb3de68cf8195c2f23e1454b2b74e91016108b6565b6008544211610cd857565b600554600003610ce85742600855565b600060085442610cf891906110b5565b9050600060065482610d0a9190611076565b600554909150610d1f64e8d4a5100083611076565b610d299190611093565b60076000828254610d3a91906110c8565b9091555050426008555050565b610d4f610eea565b6001600160a01b038116610d7957604051631e4fbdf760e01b815260006004820152602401610383565b61059881610f17565b600260015403610da557604051633ee5aeb560e01b815260040160405180910390fd5b6002600155565b6003546040516370a0823160e01b81523060048201526000916001600160a01b0316906370a0823190602401602060405180830381865afa158015610df5573d6000803e3d6000fd5b505050506040513d601f19601f82011682018060405250810190610e1991906110db565b6002546003549192506001600160a01b03908116911603610e54576005548111610e44576000610e51565b600554610e5190826110b5565b90505b80821115610e7857600354610e73906001600160a01b03168483610e8b565b505050565b600354610e73906001600160a01b031684845b6040516001600160a01b03838116602483015260448201839052610e7391859182169063a9059cbb906064015b604051602081830303815290604052915060e01b6020820180516001600160e01b038381831617835250505050610fa6565b6000546001600160a01b031633146108c95760405163118cdaa760e01b8152336004820152602401610383565b600080546001600160a01b038381166001600160a01b0319831681178455604051919092169283917f8be0079c531659141344cd1fd0a4f28419497f9722a3daafe3b4186f6b6457e09190a35050565b6040516001600160a01b038481166024830152838116604483015260648201839052610fa09186918216906323b872dd90608401610eb8565b50505050565b600080602060008451602086016000885af180610fc9576040513d6000823e3d81fd5b50506000513d91508115610fe1578060011415610fee565b6001600160a01b0384163b155b15610fa057604051635274afe760e01b81526001600160a01b0385166004820152602401610383565b60006020828403121561102957600080fd5b81356001600160a01b038116811461104057600080fd5b9392505050565b60006020828403121561105957600080fd5b5035919050565b634e487b7160e01b600052601160045260246000fd5b808202811582820484141761108d5761108d611060565b92915050565b6000826110b057634e487b7160e01b600052601260045260246000fd5b500490565b8181038181111561108d5761108d611060565b8082018082111561108d5761108d611060565b6000602082840312156110ed57600080fd5b505191905056fea264697066735822122017145ceb11b504b036d572d524f7567983877aeb23b7fefdacd7fef3baa7014464736f6c63430008140033","opcodes":"PUSH1 0x80 PUSH1 0x40 MSTORE PUSH3 0x93A80 PUSH1 0x9 SSTORE PUSH2 0x1F4 PUSH1 0xA SSTORE CALLVALUE DUP1 ISZERO PUSH2 0x1D JUMPI PUSH1 0x0 DUP1 REVERT JUMPDEST POP PUSH1 0x40 MLOAD PUSH2 0x127D CODESIZE SUB DUP1 PUSH2 0x127D DUP4 CODECOPY DUP2 ADD PUSH1 0x40 DUP2 SWAP1 MSTORE PUSH2 0x3C SWAP2 PUSH2 0x111 JUMP JUMPDEST CALLER DUP1 PUSH2 0x62 JUMPI PUSH1 0x40 MLOAD PUSH4 0x1E4FBDF7 PUSH1 0xE0 SHL DUP2 MSTORE PUSH1 0x0 PUSH1 0x4 DUP3 ADD MSTORE PUSH1 0x24 ADD PUSH1 0x40 MLOAD DUP1 SWAP2 SUB SWAP1 REVERT JUMPDEST PUSH2 0x6B DUP2 PUSH2 0xA5 JUMP JUMPDEST POP PUSH1 0x1 DUP1 SSTORE PUSH1 0x2 DUP1 SLOAD PUSH1 0x1 PUSH1 0x1 PUSH1 0xA0 SHL SUB SWAP4 DUP5 AND PUSH1 0x1 PUSH1 0x1 PUSH1 0xA0 SHL SUB NOT SWAP2 DUP3 AND OR SWAP1 SWAP2 SSTORE PUSH1 0x3 DUP1 SLOAD SWAP3 SWAP1 SWAP4 AND SWAP2 AND OR SWAP1 SSTORE TIMESTAMP PUSH1 0x8 SSTORE PUSH2 0x144 JUMP JUMPDEST PUSH1 0x0 DUP1 SLOAD PUSH1 0x1 PUSH1 0x1 PUSH1 0xA0 SHL SUB DUP4 DUP2 AND PUSH1 0x1 PUSH1 0x1 PUSH1 0xA0 SHL SUB NOT DUP4 AND DUP2 OR DUP5 SSTORE PUSH1 0x40 MLOAD SWAP2 SWAP1 SWAP3 AND SWAP3 DUP4 SWAP2 PUSH32 0x8BE0079C531659141344CD1FD0A4F28419497F9722A3DAAFE3B4186F6B6457E0 SWAP2 SWAP1 LOG3 POP POP JUMP JUMPDEST DUP1 MLOAD PUSH1 0x1 PUSH1 0x1 PUSH1 0xA0 SHL SUB DUP2 AND DUP2 EQ PUSH2 0x10C JUMPI PUSH1 0x0 DUP1 REVERT JUMPDEST SWAP2 SWAP1 POP JUMP JUMPDEST PUSH1 0x0 DUP1 PUSH1 0x40 DUP4 DUP6 SUB SLT ISZERO PUSH2 0x124 JUMPI PUSH1 0x0 DUP1 REVERT JUMPDEST PUSH2 0x12D DUP4 PUSH2 0xF5 JUMP JUMPDEST SWAP2 POP PUSH2 0x13B PUSH1 0x20 DUP5 ADD PUSH2 0xF5 JUMP JUMPDEST SWAP1 POP SWAP3 POP SWAP3 SWAP1 POP JUMP JUMPDEST PUSH2 0x112A DUP1 PUSH2 0x153 PUSH1 0x0 CODECOPY PUSH1 0x0 RETURN INVALID PUSH1 0x80 PUSH1 0x40 MSTORE CALLVALUE DUP1 ISZERO PUSH2 0x10 JUMPI PUSH1 0x0 DUP1 REVERT JUMPDEST POP PUSH1 0x4 CALLDATASIZE LT PUSH2 0x158 JUMPI PUSH1 0x0 CALLDATALOAD PUSH1 0xE0 SHR DUP1 PUSH4 0x8F10369A GT PUSH2 0xC3 JUMPI DUP1 PUSH4 0xC22982F4 GT PUSH2 0x7C JUMPI DUP1 PUSH4 0xC22982F4 EQ PUSH2 0x2CD JUMPI DUP1 PUSH4 0xD84F2BC6 EQ PUSH2 0x2E0 JUMPI DUP1 PUSH4 0xDB2E21BC EQ PUSH2 0x2E9 JUMPI DUP1 PUSH4 0xE3161DDD EQ PUSH2 0x2F1 JUMPI DUP1 PUSH4 0xF2FDE38B EQ PUSH2 0x2F9 JUMPI DUP1 PUSH4 0xF7C618C1 EQ PUSH2 0x30C JUMPI PUSH1 0x0 DUP1 REVERT JUMPDEST DUP1 PUSH4 0x8F10369A EQ PUSH2 0x28E JUMPI DUP1 PUSH4 0x9231CF74 EQ PUSH2 0x297 JUMPI DUP1 PUSH4 0x939D6237 EQ PUSH2 0x2A0 JUMPI DUP1 PUSH4 0x9A79D32B EQ PUSH2 0x2A9 JUMPI DUP1 PUSH4 0xA694FC3A EQ PUSH2 0x2B1 JUMPI DUP1 PUSH4 0xA80A7882 EQ PUSH2 0x2C4 JUMPI PUSH1 0x0 DUP1 REVERT JUMPDEST DUP1 PUSH4 0x66DA5815 GT PUSH2 0x115 JUMPI DUP1 PUSH4 0x66DA5815 EQ PUSH2 0x21B JUMPI DUP1 PUSH4 0x715018A6 EQ PUSH2 0x22E JUMPI DUP1 PUSH4 0x72F702F3 EQ PUSH2 0x236 JUMPI DUP1 PUSH4 0x817B1CD2 EQ PUSH2 0x261 JUMPI DUP1 PUSH4 0x8BDF67F2 EQ PUSH2 0x26A JUMPI DUP1 PUSH4 0x8DA5CB5B EQ PUSH2 0x27D JUMPI PUSH1 0x0 DUP1 REVERT JUMPDEST DUP1 PUSH4 0x16934FC4 EQ PUSH2 0x15D JUMPI DUP1 PUSH4 0x2E17DE78 EQ PUSH2 0x1B7 JUMPI DUP1 PUSH4 0x31D7A262 EQ PUSH2 0x1CC JUMPI DUP1 PUSH4 0x36A79F00 EQ PUSH2 0x1ED JUMPI DUP1 PUSH4 0x372500AB EQ PUSH2 0x200 JUMPI DUP1 PUSH4 0x499B86D8 EQ PUSH2 0x208 JUMPI JUMPDEST PUSH1 0x0 DUP1 REVERT JUMPDEST PUSH2 0x192 PUSH2 0x16B CALLDATASIZE PUSH1 0x4 PUSH2 0x1017 JUMP JUMPDEST PUSH1 0x4 PUSH1 0x20 MSTORE PUSH1 0x0 SWAP1 DUP2 MSTORE PUSH1 0x40 SWAP1 KECCAK256 DUP1 SLOAD PUSH1 0x1 DUP3 ADD SLOAD PUSH1 0x2 DUP4 ADD SLOAD PUSH1 0x3 SWAP1 SWAP4 ADD SLOAD SWAP2 SWAP3 SWAP1 SWAP2 DUP5 JUMP JUMPDEST PUSH1 0x40 DUP1 MLOAD SWAP5 DUP6 MSTORE PUSH1 0x20 DUP6 ADD SWAP4 SWAP1 SWAP4 MSTORE SWAP2 DUP4 ADD MSTORE PUSH1 0x60 DUP3 ADD MSTORE PUSH1 0x80 ADD JUMPDEST PUSH1 0x40 MLOAD DUP1 SWAP2 SUB SWAP1 RETURN JUMPDEST PUSH2 0x1CA PUSH2 0x1C5 CALLDATASIZE PUSH1 0x4 PUSH2 0x1047 JUMP JUMPDEST PUSH2 0x31F JUMP JUMPDEST STOP JUMPDEST PUSH2 0x1DF PUSH2 0x1DA CALLDATASIZE PUSH1 0x4 PUSH2 0x1017 JUMP JUMPDEST PUSH2 0x59B JUMP JUMPDEST PUSH1 0x40 MLOAD SWAP1 DUP2 MSTORE PUSH1 0x20 ADD PUSH2 0x1AE JUMP JUMPDEST PUSH2 0x1CA PUSH2 0x1FB CALLDATASIZE PUSH1 0x4 PUSH2 0x1047 JUMP JUMPDEST PUSH2 0x664 JUMP JUMPDEST PUSH2 0x1CA PUSH2 0x77B JUMP JUMPDEST PUSH2 0x1CA PUSH2 0x216 CALLDATASIZE PUSH1 0x4 PUSH2 0x1047 JUMP JUMPDEST PUSH2 0x8CB JUMP JUMPDEST PUSH2 0x1CA PUSH2 0x229 CALLDATASIZE PUSH1 0x4 PUSH2 0x1047 JUMP JUMPDEST PUSH2 0x90F JUMP JUMPDEST PUSH2 0x1CA PUSH2 0x954 JUMP JUMPDEST PUSH1 0x2 SLOAD PUSH2 0x249 SWAP1 PUSH1 0x1 PUSH1 0x1 PUSH1 0xA0 SHL SUB AND DUP2 JUMP JUMPDEST PUSH1 0x40 MLOAD PUSH1 0x1 PUSH1 0x1 PUSH1 0xA0 SHL SUB SWAP1 SWAP2 AND DUP2 MSTORE PUSH1 0x20 ADD PUSH2 0x1AE JUMP JUMPDEST PUSH2 0x1DF PUSH1 0x5 SLOAD DUP2 JUMP JUMPDEST PUSH2 0x1CA PUSH2 0x278 CALLDATASIZE PUSH1 0x4 PUSH2 0x1047 JUMP JUMPDEST PUSH2 0x966 JUMP JUMPDEST PUSH1 0x0 SLOAD PUSH1 0x1 PUSH1 0x1 PUSH1 0xA0 SHL SUB AND PUSH2 0x249 JUMP JUMPDEST PUSH2 0x1DF PUSH1 0x6 SLOAD DUP2 JUMP JUMPDEST PUSH2 0x1DF PUSH1 0x8 SLOAD DUP2 JUMP JUMPDEST PUSH2 0x1DF PUSH1 0x7 SLOAD DUP2 JUMP JUMPDEST PUSH2 0x1DF PUSH2 0x986 JUMP JUMPDEST PUSH2 0x1CA PUSH2 0x2BF CALLDATASIZE PUSH1 0x4 PUSH2 0x1047 JUMP JUMPDEST PUSH2 0x9CE JUMP JUMPDEST PUSH2 0x1DF PUSH1 0xA SLOAD DUP2 JUMP JUMPDEST PUSH2 0x1CA PUSH2 0x2DB CALLDATASIZE PUSH1 0x4 PUSH2 0x1047 JUMP JUMPDEST PUSH2 0xB7F JUMP JUMPDEST PUSH2 0x1DF PUSH1 0x9 SLOAD DUP2 JUMP JUMPDEST PUSH2 0x1CA PUSH2 0xBFD JUMP JUMPDEST PUSH2 0x1CA PUSH2 0xCCD JUMP JUMPDEST PUSH2 0x1CA PUSH2 0x307 CALLDATASIZE PUSH1 0x4 PUSH2 0x1017 JUMP JUMPDEST PUSH2 0xD47 JUMP JUMPDEST PUSH1 0x3 SLOAD PUSH2 0x249 SWAP1 PUSH1 0x1 PUSH1 0x1 PUSH1 0xA0 SHL SUB AND DUP2 JUMP JUMPDEST PUSH2 0x327 PUSH2 0xD82 JUMP JUMPDEST CALLER PUSH1 0x0 SWAP1 DUP2 MSTORE PUSH1 0x4 PUSH1 0x20 MSTORE PUSH1 0x40 SWAP1 KECCAK256 DUP1 SLOAD DUP3 GT ISZERO PUSH2 0x38C JUMPI PUSH1 0x40 MLOAD PUSH3 0x461BCD PUSH1 0xE5 SHL DUP2 MSTORE PUSH1 0x20 PUSH1 0x4 DUP3 ADD MSTORE PUSH1 0x1A PUSH1 0x24 DUP3 ADD MSTORE PUSH32 0x496E73756666696369656E74207374616B656420616D6F756E74000000000000 PUSH1 0x44 DUP3 ADD MSTORE PUSH1 0x64 ADD JUMPDEST PUSH1 0x40 MLOAD DUP1 SWAP2 SUB SWAP1 REVERT JUMPDEST PUSH1 0x0 DUP3 GT PUSH2 0x3DC JUMPI PUSH1 0x40 MLOAD PUSH3 0x461BCD PUSH1 0xE5 SHL DUP2 MSTORE PUSH1 0x20 PUSH1 0x4 DUP3 ADD MSTORE PUSH1 0x1D PUSH1 0x24 DUP3 ADD MSTORE PUSH32 0x416D6F756E74206D7573742062652067726561746572207468616E2030000000 PUSH1 0x44 DUP3 ADD MSTORE PUSH1 0x64 ADD PUSH2 0x383 JUMP JUMPDEST PUSH2 0x3E4 PUSH2 0xCCD JUMP JUMPDEST PUSH1 0x0 DUP2 PUSH1 0x1 ADD SLOAD PUSH5 0xE8D4A51000 PUSH1 0x7 SLOAD DUP5 PUSH1 0x0 ADD SLOAD PUSH2 0x403 SWAP2 SWAP1 PUSH2 0x1076 JUMP JUMPDEST PUSH2 0x40D SWAP2 SWAP1 PUSH2 0x1093 JUMP JUMPDEST PUSH2 0x417 SWAP2 SWAP1 PUSH2 0x10B5 JUMP JUMPDEST SWAP1 POP DUP1 ISZERO PUSH2 0x45F JUMPI PUSH2 0x429 CALLER DUP3 PUSH2 0xDAC JUMP JUMPDEST PUSH1 0x40 MLOAD DUP2 DUP2 MSTORE CALLER SWAP1 PUSH32 0x106F923F993C2149D49B4255FF723ACAFA1F2D94393F561D3EDA32AE348F7241 SWAP1 PUSH1 0x20 ADD PUSH1 0x40 MLOAD DUP1 SWAP2 SUB SWAP1 LOG2 JUMPDEST PUSH1 0x0 PUSH1 0x9 SLOAD DUP4 PUSH1 0x2 ADD SLOAD PUSH2 0x473 SWAP2 SWAP1 PUSH2 0x10C8 JUMP JUMPDEST TIMESTAMP LT ISZERO PUSH2 0x498 JUMPI PUSH2 0x2710 PUSH1 0xA SLOAD DUP6 PUSH2 0x48B SWAP2 SWAP1 PUSH2 0x1076 JUMP JUMPDEST PUSH2 0x495 SWAP2 SWAP1 PUSH2 0x1093 JUMP JUMPDEST SWAP1 POP JUMPDEST PUSH1 0x0 PUSH2 0x4A4 DUP3 DUP7 PUSH2 0x10B5 JUMP JUMPDEST SWAP1 POP DUP5 DUP5 PUSH1 0x0 ADD PUSH1 0x0 DUP3 DUP3 SLOAD PUSH2 0x4BA SWAP2 SWAP1 PUSH2 0x10B5 JUMP JUMPDEST SWAP1 SWAP2 SSTORE POP POP PUSH1 0x7 SLOAD DUP5 SLOAD PUSH5 0xE8D4A51000 SWAP2 PUSH2 0x4D4 SWAP2 PUSH2 0x1076 JUMP JUMPDEST PUSH2 0x4DE SWAP2 SWAP1 PUSH2 0x1093 JUMP JUMPDEST PUSH1 0x1 DUP6 ADD SSTORE DUP4 SLOAD PUSH1 0x0 SUB PUSH2 0x4F4 JUMPI PUSH1 0x0 PUSH1 0x2 DUP6 ADD SSTORE JUMPDEST DUP5 PUSH1 0x5 PUSH1 0x0 DUP3 DUP3 SLOAD PUSH2 0x506 SWAP2 SWAP1 PUSH2 0x10B5 JUMP JUMPDEST SWAP1 SWAP2 SSTORE POP POP PUSH1 0x2 SLOAD PUSH2 0x522 SWAP1 PUSH1 0x1 PUSH1 0x1 PUSH1 0xA0 SHL SUB AND CALLER DUP4 PUSH2 0xE8B JUMP JUMPDEST DUP2 ISZERO PUSH2 0x550 JUMPI PUSH2 0x550 PUSH2 0x53D PUSH1 0x0 SLOAD PUSH1 0x1 PUSH1 0x1 PUSH1 0xA0 SHL SUB AND SWAP1 JUMP JUMPDEST PUSH1 0x2 SLOAD PUSH1 0x1 PUSH1 0x1 PUSH1 0xA0 SHL SUB AND SWAP1 DUP5 PUSH2 0xE8B JUMP JUMPDEST PUSH1 0x40 DUP1 MLOAD DUP7 DUP2 MSTORE PUSH1 0x20 DUP2 ADD DUP5 SWAP1 MSTORE CALLER SWAP2 PUSH32 0x7FC4727E062E336010F2C282598EF5F14FACB3DE68CF8195C2F23E1454B2B74E SWAP2 ADD PUSH1 0x40 MLOAD DUP1 SWAP2 SUB SWAP1 LOG2 POP POP POP POP PUSH2 0x598 PUSH1 0x1 DUP1 SSTORE JUMP JUMPDEST POP JUMP JUMPDEST PUSH1 0x1 PUSH1 0x1 PUSH1 0xA0 SHL SUB DUP2 AND PUSH1 0x0 SWAP1 DUP2 MSTORE PUSH1 0x4 PUSH1 0x20 MSTORE PUSH1 0x40 DUP2 KECCAK256 DUP1 SLOAD DUP3 SUB PUSH2 0x5C4 JUMPI POP PUSH1 0x0 SWAP3 SWAP2 POP POP JUMP JUMPDEST PUSH1 0x7 SLOAD PUSH1 0x8 SLOAD TIMESTAMP GT DUP1 ISZERO PUSH2 0x5DA JUMPI POP PUSH1 0x0 PUSH1 0x5 SLOAD GT JUMPDEST ISZERO PUSH2 0x62F JUMPI PUSH1 0x0 PUSH1 0x8 SLOAD TIMESTAMP PUSH2 0x5EF SWAP2 SWAP1 PUSH2 0x10B5 JUMP JUMPDEST SWAP1 POP PUSH1 0x0 PUSH1 0x6 SLOAD DUP3 PUSH2 0x601 SWAP2 SWAP1 PUSH2 0x1076 JUMP JUMPDEST PUSH1 0x5 SLOAD SWAP1 SWAP2 POP PUSH2 0x616 PUSH5 0xE8D4A51000 DUP4 PUSH2 0x1076 JUMP JUMPDEST PUSH2 0x620 SWAP2 SWAP1 PUSH2 0x1093 JUMP JUMPDEST PUSH2 0x62A SWAP1 DUP5 PUSH2 0x10C8 JUMP JUMPDEST SWAP3 POP POP POP JUMPDEST PUSH1 0x1 DUP3 ADD SLOAD DUP3 SLOAD PUSH5 0xE8D4A51000 SWAP1 PUSH2 0x648 SWAP1 DUP5 SWAP1 PUSH2 0x1076 JUMP JUMPDEST PUSH2 0x652 SWAP2 SWAP1 PUSH2 0x1093 JUMP JUMPDEST PUSH2 0x65C SWAP2 SWAP1 PUSH2 0x10B5 JUMP JUMPDEST SWAP5 SWAP4 POP POP POP POP JUMP JUMPDEST PUSH2 0x66C PUSH2 0xEEA JUMP JUMPDEST PUSH1 0x3 SLOAD PUSH1 0x40 MLOAD PUSH4 0x70A08231 PUSH1 0xE0 SHL DUP2 MSTORE ADDRESS PUSH1 0x4 DUP3 ADD MSTORE PUSH1 0x0 SWAP2 PUSH1 0x1 PUSH1 0x1 PUSH1 0xA0 SHL SUB AND SWAP1 PUSH4 0x70A08231 SWAP1 PUSH1 0x24 ADD PUSH1 0x20 PUSH1 0x40 MLOAD DUP1 DUP4 SUB DUP2 DUP7 GAS STATICCALL ISZERO DUP1 ISZERO PUSH2 0x6B5 JUMPI RETURNDATASIZE PUSH1 0x0 DUP1 RETURNDATACOPY RETURNDATASIZE PUSH1 0x0 REVERT JUMPDEST POP POP POP POP PUSH1 0x40 MLOAD RETURNDATASIZE PUSH1 0x1F NOT PUSH1 0x1F DUP3 ADD AND DUP3 ADD DUP1 PUSH1 0x40 MSTORE POP DUP2 ADD SWAP1 PUSH2 0x6D9 SWAP2 SWAP1 PUSH2 0x10DB JUMP JUMPDEST PUSH1 0x2 SLOAD PUSH1 0x3 SLOAD SWAP2 SWAP3 POP PUSH1 0x1 PUSH1 0x1 PUSH1 0xA0 SHL SUB SWAP1 DUP2 AND SWAP2 AND SUB PUSH2 0x74F JUMPI PUSH1 0x5 SLOAD PUSH2 0x701 DUP4 DUP4 PUSH2 0x10B5 JUMP JUMPDEST LT ISZERO PUSH2 0x74F JUMPI PUSH1 0x40 MLOAD PUSH3 0x461BCD PUSH1 0xE5 SHL DUP2 MSTORE PUSH1 0x20 PUSH1 0x4 DUP3 ADD MSTORE PUSH1 0x1D PUSH1 0x24 DUP3 ADD MSTORE PUSH32 0x43616E6E6F74207769746864726177207374616B656420746F6B656E73000000 PUSH1 0x44 DUP3 ADD MSTORE PUSH1 0x64 ADD PUSH2 0x383 JUMP JUMPDEST PUSH2 0x777 PUSH2 0x764 PUSH1 0x0 SLOAD PUSH1 0x1 PUSH1 0x1 PUSH1 0xA0 SHL SUB AND SWAP1 JUMP JUMPDEST PUSH1 0x3 SLOAD PUSH1 0x1 PUSH1 0x1 PUSH1 0xA0 SHL SUB AND SWAP1 DUP5 PUSH2 0xE8B JUMP JUMPDEST POP POP JUMP JUMPDEST PUSH2 0x783 PUSH2 0xD82 JUMP JUMPDEST PUSH2 0x78B PUSH2 0xCCD JUMP JUMPDEST CALLER PUSH1 0x0 SWAP1 DUP2 MSTORE PUSH1 0x4 PUSH1 0x20 MSTORE PUSH1 0x40 SWAP1 KECCAK256 DUP1 SLOAD PUSH2 0x7D9 JUMPI PUSH1 0x40 MLOAD PUSH3 0x461BCD PUSH1 0xE5 SHL DUP2 MSTORE PUSH1 0x20 PUSH1 0x4 DUP3 ADD MSTORE PUSH1 0xE PUSH1 0x24 DUP3 ADD MSTORE PUSH14 0x139BC81CDD185AD948199BDD5B99 PUSH1 0x92 SHL PUSH1 0x44 DUP3 ADD MSTORE PUSH1 0x64 ADD PUSH2 0x383 JUMP JUMPDEST PUSH1 0x0 DUP2 PUSH1 0x1 ADD SLOAD PUSH5 0xE8D4A51000 PUSH1 0x7 SLOAD DUP5 PUSH1 0x0 ADD SLOAD PUSH2 0x7F8 SWAP2 SWAP1 PUSH2 0x1076 JUMP JUMPDEST PUSH2 0x802 SWAP2 SWAP1 PUSH2 0x1093 JUMP JUMPDEST PUSH2 0x80C SWAP2 SWAP1 PUSH2 0x10B5 JUMP JUMPDEST SWAP1 POP PUSH1 0x0 DUP2 GT PUSH2 0x854 JUMPI PUSH1 0x40 MLOAD PUSH3 0x461BCD PUSH1 0xE5 SHL DUP2 MSTORE PUSH1 0x20 PUSH1 0x4 DUP3 ADD MSTORE PUSH1 0x13 PUSH1 0x24 DUP3 ADD MSTORE PUSH19 0x4E6F207265776172647320746F20636C61696D PUSH1 0x68 SHL PUSH1 0x44 DUP3 ADD MSTORE PUSH1 0x64 ADD PUSH2 0x383 JUMP JUMPDEST PUSH1 0x7 SLOAD DUP3 SLOAD PUSH5 0xE8D4A51000 SWAP2 PUSH2 0x869 SWAP2 PUSH2 0x1076 JUMP JUMPDEST PUSH2 0x873 SWAP2 SWAP1 PUSH2 0x1093 JUMP JUMPDEST PUSH1 0x1 DUP4 ADD SSTORE TIMESTAMP PUSH1 0x3 DUP4 ADD SSTORE PUSH2 0x888 CALLER DUP3 PUSH2 0xDAC JUMP JUMPDEST PUSH1 0x40 MLOAD DUP2 DUP2 MSTORE CALLER SWAP1 PUSH32 0x106F923F993C2149D49B4255FF723ACAFA1F2D94393F561D3EDA32AE348F7241 SWAP1 PUSH1 0x20 ADD JUMPDEST PUSH1 0x40 MLOAD DUP1 SWAP2 SUB SWAP1 LOG2 POP POP PUSH2 0x8C9 PUSH1 0x1 DUP1 SSTORE JUMP JUMPDEST JUMP JUMPDEST PUSH2 0x8D3 PUSH2 0xEEA JUMP JUMPDEST PUSH1 0x9 DUP2 SWAP1 SSTORE PUSH1 0x40 MLOAD DUP2 DUP2 MSTORE PUSH32 0x1725ED9ED9A12D0CE92132A82D3F85CCC777CE267226F7FAA69507B2DF14C79E SWAP1 PUSH1 0x20 ADD JUMPDEST PUSH1 0x40 MLOAD DUP1 SWAP2 SUB SWAP1 LOG1 POP JUMP JUMPDEST PUSH2 0x917 PUSH2 0xEEA JUMP JUMPDEST PUSH2 0x91F PUSH2 0xCCD JUMP JUMPDEST PUSH1 0x6 DUP2 SWAP1 SSTORE PUSH1 0x40 MLOAD DUP2 DUP2 MSTORE PUSH32 0x41D466EBD06FB97E7786086AC8B69B7EB7DA798592036251291D34E9791CDE01 SWAP1 PUSH1 0x20 ADD PUSH2 0x904 JUMP JUMPDEST PUSH2 0x95C PUSH2 0xEEA JUMP JUMPDEST PUSH2 0x8C9 PUSH1 0x0 PUSH2 0xF17 JUMP JUMPDEST PUSH2 0x96E PUSH2 0xEEA JUMP JUMPDEST PUSH1 0x3 SLOAD PUSH2 0x598 SWAP1 PUSH1 0x1 PUSH1 0x1 PUSH1 0xA0 SHL SUB AND CALLER ADDRESS DUP5 PUSH2 0xF67 JUMP JUMPDEST PUSH1 0x0 PUSH1 0x5 SLOAD PUSH1 0x0 SUB PUSH2 0x998 JUMPI POP PUSH1 0x0 SWAP1 JUMP JUMPDEST PUSH1 0x0 PUSH1 0x6 SLOAD PUSH4 0x1E13380 PUSH2 0x9AC SWAP2 SWAP1 PUSH2 0x1076 JUMP JUMPDEST PUSH1 0x5 SLOAD SWAP1 SWAP2 POP PUSH2 0x9BE DUP3 PUSH2 0x2710 PUSH2 0x1076 JUMP JUMPDEST PUSH2 0x9C8 SWAP2 SWAP1 PUSH2 0x1093 JUMP JUMPDEST SWAP2 POP POP SWAP1 JUMP JUMPDEST PUSH2 0x9D6 PUSH2 0xD82 JUMP JUMPDEST PUSH1 0x0 DUP2 GT PUSH2 0xA26 JUMPI PUSH1 0x40 MLOAD PUSH3 0x461BCD PUSH1 0xE5 SHL DUP2 MSTORE PUSH1 0x20 PUSH1 0x4 DUP3 ADD MSTORE PUSH1 0x1D PUSH1 0x24 DUP3 ADD MSTORE PUSH32 0x416D6F756E74206D7573742062652067726561746572207468616E2030000000 PUSH1 0x44 DUP3 ADD MSTORE PUSH1 0x64 ADD PUSH2 0x383 JUMP JUMPDEST PUSH2 0xA2E PUSH2 0xCCD JUMP JUMPDEST CALLER PUSH1 0x0 SWAP1 DUP2 MSTORE PUSH1 0x4 PUSH1 0x20 MSTORE PUSH1 0x40 SWAP1 KECCAK256 DUP1 SLOAD ISZERO PUSH2 0xAC1 JUMPI PUSH1 0x0 DUP2 PUSH1 0x1 ADD SLOAD PUSH5 0xE8D4A51000 PUSH1 0x7 SLOAD DUP5 PUSH1 0x0 ADD SLOAD PUSH2 0xA63 SWAP2 SWAP1 PUSH2 0x1076 JUMP JUMPDEST PUSH2 0xA6D SWAP2 SWAP1 PUSH2 0x1093 JUMP JUMPDEST PUSH2 0xA77 SWAP2 SWAP1 PUSH2 0x10B5 JUMP JUMPDEST SWAP1 POP DUP1 ISZERO PUSH2 0xABF JUMPI PUSH2 0xA89 CALLER DUP3 PUSH2 0xDAC JUMP JUMPDEST PUSH1 0x40 MLOAD DUP2 DUP2 MSTORE CALLER SWAP1 PUSH32 0x106F923F993C2149D49B4255FF723ACAFA1F2D94393F561D3EDA32AE348F7241 SWAP1 PUSH1 0x20 ADD PUSH1 0x40 MLOAD DUP1 SWAP2 SUB SWAP1 LOG2 JUMPDEST POP JUMPDEST PUSH1 0x2 SLOAD PUSH2 0xAD9 SWAP1 PUSH1 0x1 PUSH1 0x1 PUSH1 0xA0 SHL SUB AND CALLER ADDRESS DUP6 PUSH2 0xF67 JUMP JUMPDEST DUP2 DUP2 PUSH1 0x0 ADD PUSH1 0x0 DUP3 DUP3 SLOAD PUSH2 0xAED SWAP2 SWAP1 PUSH2 0x10C8 JUMP JUMPDEST SWAP1 SWAP2 SSTORE POP POP PUSH1 0x7 SLOAD DUP2 SLOAD PUSH5 0xE8D4A51000 SWAP2 PUSH2 0xB07 SWAP2 PUSH2 0x1076 JUMP JUMPDEST PUSH2 0xB11 SWAP2 SWAP1 PUSH2 0x1093 JUMP JUMPDEST PUSH1 0x1 DUP3 ADD SSTORE PUSH1 0x2 DUP2 ADD SLOAD PUSH1 0x0 SUB PUSH2 0xB29 JUMPI TIMESTAMP PUSH1 0x2 DUP3 ADD SSTORE JUMPDEST DUP2 PUSH1 0x5 PUSH1 0x0 DUP3 DUP3 SLOAD PUSH2 0xB3B SWAP2 SWAP1 PUSH2 0x10C8 JUMP JUMPDEST SWAP1 SWAP2 SSTORE POP POP PUSH1 0x40 MLOAD DUP3 DUP2 MSTORE CALLER SWAP1 PUSH32 0x9E71BC8EEA02A63969F509818F2DAFB9254532904319F9DBDA79B67BD34A5F3D SWAP1 PUSH1 0x20 ADD PUSH1 0x40 MLOAD DUP1 SWAP2 SUB SWAP1 LOG2 POP PUSH2 0x598 PUSH1 0x1 DUP1 SSTORE JUMP JUMPDEST PUSH2 0xB87 PUSH2 0xEEA JUMP JUMPDEST PUSH2 0x7D0 DUP2 GT ISZERO PUSH2 0xBC8 JUMPI PUSH1 0x40 MLOAD PUSH3 0x461BCD PUSH1 0xE5 SHL DUP2 MSTORE PUSH1 0x20 PUSH1 0x4 DUP3 ADD MSTORE PUSH1 0xC PUSH1 0x24 DUP3 ADD MSTORE PUSH12 0x8CCACA40E8DEDE40D0D2CED PUSH1 0xA3 SHL PUSH1 0x44 DUP3 ADD MSTORE PUSH1 0x64 ADD PUSH2 0x383 JUMP JUMPDEST PUSH1 0xA DUP2 SWAP1 SSTORE PUSH1 0x40 MLOAD DUP2 DUP2 MSTORE PUSH32 0x864CABEB83698B194F9B49E7F58558D83CD8E635575BA53F511F37C834ECE71C SWAP1 PUSH1 0x20 ADD PUSH2 0x904 JUMP JUMPDEST PUSH2 0xC05 PUSH2 0xD82 JUMP JUMPDEST CALLER PUSH1 0x0 SWAP1 DUP2 MSTORE PUSH1 0x4 PUSH1 0x20 MSTORE PUSH1 0x40 SWAP1 KECCAK256 DUP1 SLOAD DUP1 PUSH2 0xC54 JUMPI PUSH1 0x40 MLOAD PUSH3 0x461BCD PUSH1 0xE5 SHL DUP2 MSTORE PUSH1 0x20 PUSH1 0x4 DUP3 ADD MSTORE PUSH1 0xE PUSH1 0x24 DUP3 ADD MSTORE PUSH14 0x139BC81CDD185AD948199BDD5B99 PUSH1 0x92 SHL PUSH1 0x44 DUP3 ADD MSTORE PUSH1 0x64 ADD PUSH2 0x383 JUMP JUMPDEST PUSH1 0x0 DUP1 DUP4 SSTORE PUSH1 0x1 DUP4 ADD DUP2 SWAP1 SSTORE PUSH1 0x2 DUP4 ADD DUP2 SWAP1 SSTORE PUSH1 0x5 DUP1 SLOAD DUP4 SWAP3 SWAP1 PUSH2 0xC79 SWAP1 DUP5 SWAP1 PUSH2 0x10B5 JUMP JUMPDEST SWAP1 SWAP2 SSTORE POP POP PUSH1 0x2 SLOAD PUSH2 0xC95 SWAP1 PUSH1 0x1 PUSH1 0x1 PUSH1 0xA0 SHL SUB AND CALLER DUP4 PUSH2 0xE8B JUMP JUMPDEST PUSH1 0x40 DUP1 MLOAD DUP3 DUP2 MSTORE PUSH1 0x0 PUSH1 0x20 DUP3 ADD MSTORE CALLER SWAP2 PUSH32 0x7FC4727E062E336010F2C282598EF5F14FACB3DE68CF8195C2F23E1454B2B74E SWAP2 ADD PUSH2 0x8B6 JUMP JUMPDEST PUSH1 0x8 SLOAD TIMESTAMP GT PUSH2 0xCD8 JUMPI JUMP JUMPDEST PUSH1 0x5 SLOAD PUSH1 0x0 SUB PUSH2 0xCE8 JUMPI TIMESTAMP PUSH1 0x8 SSTORE JUMP JUMPDEST PUSH1 0x0 PUSH1 0x8 SLOAD TIMESTAMP PUSH2 0xCF8 SWAP2 SWAP1 PUSH2 0x10B5 JUMP JUMPDEST SWAP1 POP PUSH1 0x0 PUSH1 0x6 SLOAD DUP3 PUSH2 0xD0A SWAP2 SWAP1 PUSH2 0x1076 JUMP JUMPDEST PUSH1 0x5 SLOAD SWAP1 SWAP2 POP PUSH2 0xD1F PUSH5 0xE8D4A51000 DUP4 PUSH2 0x1076 JUMP JUMPDEST PUSH2 0xD29 SWAP2 SWAP1 PUSH2 0x1093 JUMP JUMPDEST PUSH1 0x7 PUSH1 0x0 DUP3 DUP3 SLOAD PUSH2 0xD3A SWAP2 SWAP1 PUSH2 0x10C8 JUMP JUMPDEST SWAP1 SWAP2 SSTORE POP POP TIMESTAMP PUSH1 0x8 SSTORE POP POP JUMP JUMPDEST PUSH2 0xD4F PUSH2 0xEEA JUMP JUMPDEST PUSH1 0x1 PUSH1 0x1 PUSH1 0xA0 SHL SUB DUP2 AND PUSH2 0xD79 JUMPI PUSH1 0x40 MLOAD PUSH4 0x1E4FBDF7 PUSH1 0xE0 SHL DUP2 MSTORE PUSH1 0x0 PUSH1 0x4 DUP3 ADD MSTORE PUSH1 0x24 ADD PUSH2 0x383 JUMP JUMPDEST PUSH2 0x598 DUP2 PUSH2 0xF17 JUMP JUMPDEST PUSH1 0x2 PUSH1 0x1 SLOAD SUB PUSH2 0xDA5 JUMPI PUSH1 0x40 MLOAD PUSH4 0x3EE5AEB5 PUSH1 0xE0 SHL DUP2 MSTORE PUSH1 0x4 ADD PUSH1 0x40 MLOAD DUP1 SWAP2 SUB SWAP1 REVERT JUMPDEST PUSH1 0x2 PUSH1 0x1 SSTORE JUMP JUMPDEST PUSH1 0x3 SLOAD PUSH1 0x40 MLOAD PUSH4 0x70A08231 PUSH1 0xE0 SHL DUP2 MSTORE ADDRESS PUSH1 0x4 DUP3 ADD MSTORE PUSH1 0x0 SWAP2 PUSH1 0x1 PUSH1 0x1 PUSH1 0xA0 SHL SUB AND SWAP1 PUSH4 0x70A08231 SWAP1 PUSH1 0x24 ADD PUSH1 0x20 PUSH1 0x40 MLOAD DUP1 DUP4 SUB DUP2 DUP7 GAS STATICCALL ISZERO DUP1 ISZERO PUSH2 0xDF5 JUMPI RETURNDATASIZE PUSH1 0x0 DUP1 RETURNDATACOPY RETURNDATASIZE PUSH1 0x0 REVERT JUMPDEST POP POP POP POP PUSH1 0x40 MLOAD RETURNDATASIZE PUSH1 0x1F NOT PUSH1 0x1F DUP3 ADD AND DUP3 ADD DUP1 PUSH1 0x40 MSTORE POP DUP2 ADD SWAP1 PUSH2 0xE19 SWAP2 SWAP1 PUSH2 0x10DB JUMP JUMPDEST PUSH1 0x2 SLOAD PUSH1 0x3 SLOAD SWAP2 SWAP3 POP PUSH1 0x1 PUSH1 0x1 PUSH1 0xA0 SHL SUB SWAP1 DUP2 AND SWAP2 AND SUB PUSH2 0xE54 JUMPI PUSH1 0x5 SLOAD DUP2 GT PUSH2 0xE44 JUMPI PUSH1 0x0 PUSH2 0xE51 JUMP JUMPDEST PUSH1 0x5 SLOAD PUSH2 0xE51 SWAP1 DUP3 PUSH2 0x10B5 JUMP JUMPDEST SWAP1 POP JUMPDEST DUP1 DUP3 GT ISZERO PUSH2 0xE78 JUMPI PUSH1 0x3 SLOAD PUSH2 0xE73 SWAP1 PUSH1 0x1 PUSH1 0x1 PUSH1 0xA0 SHL SUB AND DUP5 DUP4 PUSH2 0xE8B JUMP JUMPDEST POP POP POP JUMP JUMPDEST PUSH1 0x3 SLOAD PUSH2 0xE73 SWAP1 PUSH1 0x1 PUSH1 0x1 PUSH1 0xA0 SHL SUB AND DUP5 DUP5 JUMPDEST PUSH1 0x40 MLOAD PUSH1 0x1 PUSH1 0x1 PUSH1 0xA0 SHL SUB DUP4 DUP2 AND PUSH1 0x24 DUP4 ADD MSTORE PUSH1 0x44 DUP3 ADD DUP4 SWAP1 MSTORE PUSH2 0xE73 SWAP2 DUP6 SWAP2 DUP3 AND SWAP1 PUSH4 0xA9059CBB SWAP1 PUSH1 0x64 ADD JUMPDEST PUSH1 0x40 MLOAD PUSH1 0x20 DUP2 DUP4 SUB SUB DUP2 MSTORE SWAP1 PUSH1 0x40 MSTORE SWAP2 POP PUSH1 0xE0 SHL PUSH1 0x20 DUP3 ADD DUP1 MLOAD PUSH1 0x1 PUSH1 0x1 PUSH1 0xE0 SHL SUB DUP4 DUP2 DUP4 AND OR DUP4 MSTORE POP POP POP POP PUSH2 0xFA6 JUMP JUMPDEST PUSH1 0x0 SLOAD PUSH1 0x1 PUSH1 0x1 PUSH1 0xA0 SHL SUB AND CALLER EQ PUSH2 0x8C9 JUMPI PUSH1 0x40 MLOAD PUSH4 0x118CDAA7 PUSH1 0xE0 SHL DUP2 MSTORE CALLER PUSH1 0x4 DUP3 ADD MSTORE PUSH1 0x24 ADD PUSH2 0x383 JUMP JUMPDEST PUSH1 0x0 DUP1 SLOAD PUSH1 0x1 PUSH1 0x1 PUSH1 0xA0 SHL SUB DUP4 DUP2 AND PUSH1 0x1 PUSH1 0x1 PUSH1 0xA0 SHL SUB NOT DUP4 AND DUP2 OR DUP5 SSTORE PUSH1 0x40 MLOAD SWAP2 SWAP1 SWAP3 AND SWAP3 DUP4 SWAP2 PUSH32 0x8BE0079C531659141344CD1FD0A4F28419497F9722A3DAAFE3B4186F6B6457E0 SWAP2 SWAP1 LOG3 POP POP JUMP JUMPDEST PUSH1 0x40 MLOAD PUSH1 0x1 PUSH1 0x1 PUSH1 0xA0 SHL SUB DUP5 DUP2 AND PUSH1 0x24 DUP4 ADD MSTORE DUP4 DUP2 AND PUSH1 0x44 DUP4 ADD MSTORE PUSH1 0x64 DUP3 ADD DUP4 SWAP1 MSTORE PUSH2 0xFA0 SWAP2 DUP7 SWAP2 DUP3 AND SWAP1 PUSH4 0x23B872DD SWAP1 PUSH1 0x84 ADD PUSH2 0xEB8 JUMP JUMPDEST POP POP POP POP JUMP JUMPDEST PUSH1 0x0 DUP1 PUSH1 0x20 PUSH1 0x0 DUP5 MLOAD PUSH1 0x20 DUP7 ADD PUSH1 0x0 DUP9 GAS CALL DUP1 PUSH2 0xFC9 JUMPI PUSH1 0x40 MLOAD RETURNDATASIZE PUSH1 0x0 DUP3 RETURNDATACOPY RETURNDATASIZE DUP2 REVERT JUMPDEST POP POP PUSH1 0x0 MLOAD RETURNDATASIZE SWAP2 POP DUP2 ISZERO PUSH2 0xFE1 JUMPI DUP1 PUSH1 0x1 EQ ISZERO PUSH2 0xFEE JUMP JUMPDEST PUSH1 0x1 PUSH1 0x1 PUSH1 0xA0 SHL SUB DUP5 AND EXTCODESIZE ISZERO JUMPDEST ISZERO PUSH2 0xFA0 JUMPI PUSH1 0x40 MLOAD PUSH4 0x5274AFE7 PUSH1 0xE0 SHL DUP2 MSTORE PUSH1 0x1 PUSH1 0x1 PUSH1 0xA0 SHL SUB DUP6 AND PUSH1 0x4 DUP3 ADD MSTORE PUSH1 0x24 ADD PUSH2 0x383 JUMP JUMPDEST PUSH1 0x0 PUSH1 0x20 DUP3 DUP5 SUB SLT ISZERO PUSH2 0x1029 JUMPI PUSH1 0x0 DUP1 REVERT JUMPDEST DUP2 CALLDATALOAD PUSH1 0x1 PUSH1 0x1 PUSH1 0xA0 SHL SUB DUP2 AND DUP2 EQ PUSH2 0x1040 JUMPI PUSH1 0x0 DUP1 REVERT JUMPDEST SWAP4 SWAP3 POP POP POP JUMP JUMPDEST PUSH1 0x0 PUSH1 0x20 DUP3 DUP5 SUB SLT ISZERO PUSH2 0x1059 JUMPI PUSH1 0x0 DUP1 REVERT JUMPDEST POP CALLDATALOAD SWAP2 SWAP1 POP JUMP JUMPDEST PUSH4 0x4E487B71 PUSH1 0xE0 SHL PUSH1 0x0 MSTORE PUSH1 0x11 PUSH1 0x4 MSTORE PUSH1 0x24 PUSH1 0x0 REVERT JUMPDEST DUP1 DUP3 MUL DUP2 ISZERO DUP3 DUP3 DIV DUP5 EQ OR PUSH2 0x108D JUMPI PUSH2 0x108D PUSH2 0x1060 JUMP JUMPDEST SWAP3 SWAP2 POP POP JUMP JUMPDEST PUSH1 0x0 DUP3 PUSH2 0x10B0 JUMPI PUSH4 0x4E487B71 PUSH1 0xE0 SHL PUSH1 0x0 MSTORE PUSH1 0x12 PUSH1 0x4 MSTORE PUSH1 0x24 PUSH1 0x0 REVERT JUMPDEST POP DIV SWAP1 JUMP JUMPDEST DUP2 DUP2 SUB DUP2 DUP2 GT ISZERO PUSH2 0x108D JUMPI PUSH2 0x108D PUSH2 0x1060 JUMP JUMPDEST DUP1 DUP3 ADD DUP1 DUP3 GT ISZERO PUSH2 0x108D JUMPI PUSH2 0x108D PUSH2 0x1060 JUMP JUMPDEST PUSH1 0x0 PUSH1 0x20 DUP3 DUP5 SUB SLT ISZERO PUSH2 0x10ED JUMPI PUSH1 0x0 DUP1 REVERT JUMPDEST POP MLOAD SWAP2 SWAP1 POP JUMP INVALID LOG2 PUSH5 0x6970667358 0x22 SLT KECCAK256 OR EQ 0x5C 0xEB GT 0xB5 DIV 0xB0 CALLDATASIZE 0xD5 PUSH19 0xD524F7567983877AEB23B7FEFDACD7FEF3BAA7 ADD PREVRANDAO PUSH5 0x736F6C6343 STOP ADDMOD EQ STOP CALLER "},"methodIdentifiers":{"accRewardPerShare()":"939d6237","claimRewards()":"372500ab","currentAPY()":"9a79d32b","depositRewards(uint256)":"8bdf67f2","earlyWithdrawFee()":"a80a7882","emergencyWithdraw()":"db2e21bc","lastRewardTime()":"9231cf74","minStakePeriod()":"d84f2bc6","owner()":"8da5cb5b","pendingRewards(address)":"31d7a262","renounceOwnership()":"715018a6","rewardPerSecond()":"8f10369a","rewardToken()":"f7c618c1","setEarlyWithdrawFee(uint256)":"c22982f4","setMinStakePeriod(uint256)":"499b86d8","setRewardPerSecond(uint256)":"66da5815","stake(uint256)":"a694fc3a","stakes(address)":"16934fc4","stakingToken()":"72f702f3","totalStaked()":"817b1cd2","transferOwnership(address)":"f2fde38b","unstake(uint256)":"2e17de78","updatePool()":"e3161ddd","withdrawExcessRewards(uint256)":"36a79f00"}}}}}