{
  "_format": "hh-sol-artifact-1",
  "contractName": "ArcNFT",
  "sourceName": "contracts/ArcNFT.sol",
  "abi": [
    {
      "inputs": [],
      "stateMutability": "nonpayable",
      "type": "constructor"
    },
    {
      "inputs": [],
      "name": "ERC721EnumerableForbiddenBatchMint",
      "type": "error"
    },
    {
      "inputs": [
        {
          "internalType": "address",
          "name": "sender",
          "type": "address"
        },
        {
          "internalType": "uint256",
          "name": "tokenId",
          "type": "uint256"
        },
        {
          "internalType": "address",
          "name": "owner",
          "type": "address"
        }
      ],
      "name": "ERC721IncorrectOwner",
      "type": "error"
    },
    {
      "inputs": [
        {
          "internalType": "address",
          "name": "operator",
          "type": "address"
        },
        {
          "internalType": "uint256",
          "name": "tokenId",
          "type": "uint256"
        }
      ],
      "name": "ERC721InsufficientApproval",
      "type": "error"
    },
    {
      "inputs": [
        {
          "internalType": "address",
          "name": "approver",
          "type": "address"
        }
      ],
      "name": "ERC721InvalidApprover",
      "type": "error"
    },
    {
      "inputs": [
        {
          "internalType": "address",
          "name": "operator",
          "type": "address"
        }
      ],
      "name": "ERC721InvalidOperator",
      "type": "error"
    },
    {
      "inputs": [
        {
          "internalType": "address",
          "name": "owner",
          "type": "address"
        }
      ],
      "name": "ERC721InvalidOwner",
      "type": "error"
    },
    {
      "inputs": [
        {
          "internalType": "address",
          "name": "receiver",
          "type": "address"
        }
      ],
      "name": "ERC721InvalidReceiver",
      "type": "error"
    },
    {
      "inputs": [
        {
          "internalType": "address",
          "name": "sender",
          "type": "address"
        }
      ],
      "name": "ERC721InvalidSender",
      "type": "error"
    },
    {
      "inputs": [
        {
          "internalType": "uint256",
          "name": "tokenId",
          "type": "uint256"
        }
      ],
      "name": "ERC721NonexistentToken",
      "type": "error"
    },
    {
      "inputs": [
        {
          "internalType": "address",
          "name": "owner",
          "type": "address"
        },
        {
          "internalType": "uint256",
          "name": "index",
          "type": "uint256"
        }
      ],
      "name": "ERC721OutOfBoundsIndex",
      "type": "error"
    },
    {
      "inputs": [
        {
          "internalType": "address",
          "name": "owner",
          "type": "address"
        }
      ],
      "name": "OwnableInvalidOwner",
      "type": "error"
    },
    {
      "inputs": [
        {
          "internalType": "address",
          "name": "account",
          "type": "address"
        }
      ],
      "name": "OwnableUnauthorizedAccount",
      "type": "error"
    },
    {
      "anonymous": false,
      "inputs": [
        {
          "indexed": true,
          "internalType": "address",
          "name": "owner",
          "type": "address"
        },
        {
          "indexed": true,
          "internalType": "address",
          "name": "approved",
          "type": "address"
        },
        {
          "indexed": true,
          "internalType": "uint256",
          "name": "tokenId",
          "type": "uint256"
        }
      ],
      "name": "Approval",
      "type": "event"
    },
    {
      "anonymous": false,
      "inputs": [
        {
          "indexed": true,
          "internalType": "address",
          "name": "owner",
          "type": "address"
        },
        {
          "indexed": true,
          "internalType": "address",
          "name": "operator",
          "type": "address"
        },
        {
          "indexed": false,
          "internalType": "bool",
          "name": "approved",
          "type": "bool"
        }
      ],
      "name": "ApprovalForAll",
      "type": "event"
    },
    {
      "anonymous": false,
      "inputs": [
        {
          "indexed": false,
          "internalType": "uint256",
          "name": "_fromTokenId",
          "type": "uint256"
        },
        {
          "indexed": false,
          "internalType": "uint256",
          "name": "_toTokenId",
          "type": "uint256"
        }
      ],
      "name": "BatchMetadataUpdate",
      "type": "event"
    },
    {
      "anonymous": false,
      "inputs": [
        {
          "indexed": false,
          "internalType": "uint256",
          "name": "_tokenId",
          "type": "uint256"
        }
      ],
      "name": "MetadataUpdate",
      "type": "event"
    },
    {
      "anonymous": false,
      "inputs": [
        {
          "indexed": false,
          "internalType": "uint256",
          "name": "newPrice",
          "type": "uint256"
        }
      ],
      "name": "MintPriceUpdated",
      "type": "event"
    },
    {
      "anonymous": false,
      "inputs": [
        {
          "indexed": false,
          "internalType": "bool",
          "name": "isActive",
          "type": "bool"
        }
      ],
      "name": "MintingToggled",
      "type": "event"
    },
    {
      "anonymous": false,
      "inputs": [
        {
          "indexed": true,
          "internalType": "address",
          "name": "to",
          "type": "address"
        },
        {
          "indexed": true,
          "internalType": "uint256",
          "name": "tokenId",
          "type": "uint256"
        },
        {
          "indexed": false,
          "internalType": "string",
          "name": "tokenURI",
          "type": "string"
        }
      ],
      "name": "NFTMinted",
      "type": "event"
    },
    {
      "anonymous": false,
      "inputs": [
        {
          "indexed": true,
          "internalType": "address",
          "name": "previousOwner",
          "type": "address"
        },
        {
          "indexed": true,
          "internalType": "address",
          "name": "newOwner",
          "type": "address"
        }
      ],
      "name": "OwnershipTransferred",
      "type": "event"
    },
    {
      "anonymous": false,
      "inputs": [
        {
          "indexed": true,
          "internalType": "address",
          "name": "from",
          "type": "address"
        },
        {
          "indexed": true,
          "internalType": "address",
          "name": "to",
          "type": "address"
        },
        {
          "indexed": true,
          "internalType": "uint256",
          "name": "tokenId",
          "type": "uint256"
        }
      ],
      "name": "Transfer",
      "type": "event"
    },
    {
      "inputs": [],
      "name": "MAX_SUPPLY",
      "outputs": [
        {
          "internalType": "uint256",
          "name": "",
          "type": "uint256"
        }
      ],
      "stateMutability": "view",
      "type": "function"
    },
    {
      "inputs": [
        {
          "internalType": "address",
          "name": "to",
          "type": "address"
        },
        {
          "internalType": "uint256",
          "name": "tokenId",
          "type": "uint256"
        }
      ],
      "name": "approve",
      "outputs": [],
      "stateMutability": "nonpayable",
      "type": "function"
    },
    {
      "inputs": [
        {
          "internalType": "address",
          "name": "owner",
          "type": "address"
        }
      ],
      "name": "balanceOf",
      "outputs": [
        {
          "internalType": "uint256",
          "name": "",
          "type": "uint256"
        }
      ],
      "stateMutability": "view",
      "type": "function"
    },
    {
      "inputs": [
        {
          "internalType": "uint256",
          "name": "tokenId",
          "type": "uint256"
        }
      ],
      "name": "getApproved",
      "outputs": [
        {
          "internalType": "address",
          "name": "",
          "type": "address"
        }
      ],
      "stateMutability": "view",
      "type": "function"
    },
    {
      "inputs": [
        {
          "internalType": "address",
          "name": "owner",
          "type": "address"
        },
        {
          "internalType": "address",
          "name": "operator",
          "type": "address"
        }
      ],
      "name": "isApprovedForAll",
      "outputs": [
        {
          "internalType": "bool",
          "name": "",
          "type": "bool"
        }
      ],
      "stateMutability": "view",
      "type": "function"
    },
    {
      "inputs": [],
      "name": "isMintingActive",
      "outputs": [
        {
          "internalType": "bool",
          "name": "",
          "type": "bool"
        }
      ],
      "stateMutability": "view",
      "type": "function"
    },
    {
      "inputs": [],
      "name": "maxMintPerWallet",
      "outputs": [
        {
          "internalType": "uint256",
          "name": "",
          "type": "uint256"
        }
      ],
      "stateMutability": "view",
      "type": "function"
    },
    {
      "inputs": [
        {
          "internalType": "string",
          "name": "uri",
          "type": "string"
        }
      ],
      "name": "mint",
      "outputs": [
        {
          "internalType": "uint256",
          "name": "",
          "type": "uint256"
        }
      ],
      "stateMutability": "payable",
      "type": "function"
    },
    {
      "inputs": [
        {
          "internalType": "address",
          "name": "to",
          "type": "address"
        },
        {
          "internalType": "string",
          "name": "uri",
          "type": "string"
        }
      ],
      "name": "mintForAddress",
      "outputs": [
        {
          "internalType": "uint256",
          "name": "",
          "type": "uint256"
        }
      ],
      "stateMutability": "nonpayable",
      "type": "function"
    },
    {
      "inputs": [],
      "name": "mintPrice",
      "outputs": [
        {
          "internalType": "uint256",
          "name": "",
          "type": "uint256"
        }
      ],
      "stateMutability": "view",
      "type": "function"
    },
    {
      "inputs": [
        {
          "internalType": "address",
          "name": "",
          "type": "address"
        }
      ],
      "name": "mintedPerWallet",
      "outputs": [
        {
          "internalType": "uint256",
          "name": "",
          "type": "uint256"
        }
      ],
      "stateMutability": "view",
      "type": "function"
    },
    {
      "inputs": [],
      "name": "name",
      "outputs": [
        {
          "internalType": "string",
          "name": "",
          "type": "string"
        }
      ],
      "stateMutability": "view",
      "type": "function"
    },
    {
      "inputs": [],
      "name": "owner",
      "outputs": [
        {
          "internalType": "address",
          "name": "",
          "type": "address"
        }
      ],
      "stateMutability": "view",
      "type": "function"
    },
    {
      "inputs": [
        {
          "internalType": "uint256",
          "name": "tokenId",
          "type": "uint256"
        }
      ],
      "name": "ownerOf",
      "outputs": [
        {
          "internalType": "address",
          "name": "",
          "type": "address"
        }
      ],
      "stateMutability": "view",
      "type": "function"
    },
    {
      "inputs": [],
      "name": "renounceOwnership",
      "outputs": [],
      "stateMutability": "nonpayable",
      "type": "function"
    },
    {
      "inputs": [
        {
          "internalType": "address",
          "name": "from",
          "type": "address"
        },
        {
          "internalType": "address",
          "name": "to",
          "type": "address"
        },
        {
          "internalType": "uint256",
          "name": "tokenId",
          "type": "uint256"
        }
      ],
      "name": "safeTransferFrom",
      "outputs": [],
      "stateMutability": "nonpayable",
      "type": "function"
    },
    {
      "inputs": [
        {
          "internalType": "address",
          "name": "from",
          "type": "address"
        },
        {
          "internalType": "address",
          "name": "to",
          "type": "address"
        },
        {
          "internalType": "uint256",
          "name": "tokenId",
          "type": "uint256"
        },
        {
          "internalType": "bytes",
          "name": "data",
          "type": "bytes"
        }
      ],
      "name": "safeTransferFrom",
      "outputs": [],
      "stateMutability": "nonpayable",
      "type": "function"
    },
    {
      "inputs": [
        {
          "internalType": "address",
          "name": "operator",
          "type": "address"
        },
        {
          "internalType": "bool",
          "name": "approved",
          "type": "bool"
        }
      ],
      "name": "setApprovalForAll",
      "outputs": [],
      "stateMutability": "nonpayable",
      "type": "function"
    },
    {
      "inputs": [
        {
          "internalType": "uint256",
          "name": "newMax",
          "type": "uint256"
        }
      ],
      "name": "setMaxMintPerWallet",
      "outputs": [],
      "stateMutability": "nonpayable",
      "type": "function"
    },
    {
      "inputs": [
        {
          "internalType": "uint256",
          "name": "newPrice",
          "type": "uint256"
        }
      ],
      "name": "setMintPrice",
      "outputs": [],
      "stateMutability": "nonpayable",
      "type": "function"
    },
    {
      "inputs": [
        {
          "internalType": "bytes4",
          "name": "interfaceId",
          "type": "bytes4"
        }
      ],
      "name": "supportsInterface",
      "outputs": [
        {
          "internalType": "bool",
          "name": "",
          "type": "bool"
        }
      ],
      "stateMutability": "view",
      "type": "function"
    },
    {
      "inputs": [],
      "name": "symbol",
      "outputs": [
        {
          "internalType": "string",
          "name": "",
          "type": "string"
        }
      ],
      "stateMutability": "view",
      "type": "function"
    },
    {
      "inputs": [],
      "name": "toggleMinting",
      "outputs": [],
      "stateMutability": "nonpayable",
      "type": "function"
    },
    {
      "inputs": [
        {
          "internalType": "uint256",
          "name": "index",
          "type": "uint256"
        }
      ],
      "name": "tokenByIndex",
      "outputs": [
        {
          "internalType": "uint256",
          "name": "",
          "type": "uint256"
        }
      ],
      "stateMutability": "view",
      "type": "function"
    },
    {
      "inputs": [
        {
          "internalType": "address",
          "name": "owner",
          "type": "address"
        },
        {
          "internalType": "uint256",
          "name": "index",
          "type": "uint256"
        }
      ],
      "name": "tokenOfOwnerByIndex",
      "outputs": [
        {
          "internalType": "uint256",
          "name": "",
          "type": "uint256"
        }
      ],
      "stateMutability": "view",
      "type": "function"
    },
    {
      "inputs": [
        {
          "internalType": "uint256",
          "name": "tokenId",
          "type": "uint256"
        }
      ],
      "name": "tokenURI",
      "outputs": [
        {
          "internalType": "string",
          "name": "",
          "type": "string"
        }
      ],
      "stateMutability": "view",
      "type": "function"
    },
    {
      "inputs": [],
      "name": "totalMinted",
      "outputs": [
        {
          "internalType": "uint256",
          "name": "",
          "type": "uint256"
        }
      ],
      "stateMutability": "view",
      "type": "function"
    },
    {
      "inputs": [],
      "name": "totalSupply",
      "outputs": [
        {
          "internalType": "uint256",
          "name": "",
          "type": "uint256"
        }
      ],
      "stateMutability": "view",
      "type": "function"
    },
    {
      "inputs": [
        {
          "internalType": "address",
          "name": "from",
          "type": "address"
        },
        {
          "internalType": "address",
          "name": "to",
          "type": "address"
        },
        {
          "internalType": "uint256",
          "name": "tokenId",
          "type": "uint256"
        }
      ],
      "name": "transferFrom",
      "outputs": [],
      "stateMutability": "nonpayable",
      "type": "function"
    },
    {
      "inputs": [
        {
          "internalType": "address",
          "name": "newOwner",
          "type": "address"
        }
      ],
      "name": "transferOwnership",
      "outputs": [],
      "stateMutability": "nonpayable",
      "type": "function"
    },
    {
      "inputs": [],
      "name": "withdraw",
      "outputs": [],
      "stateMutability": "nonpayable",
      "type": "function"
    }
  ],
  "bytecode": "0x6080604052662386f26fc10000600d55600e805460ff19166001179055600a60105534801561002c575f80fd5b50336040518060400160405280601281526020017120b9319027232a1021b7b63632b1ba34b7b760711b81525060405180604001604052806006815260200165105490d3919560d21b815250815f908161008691906101bb565b50600161009382826101bb565b5050506001600160a01b0381166100c357604051631e4fbdf760e01b81525f600482015260240160405180910390fd5b6100cc816100d2565b50610275565b600b80546001600160a01b038381166001600160a01b0319831681179093556040519116919082907f8be0079c531659141344cd1fd0a4f28419497f9722a3daafe3b4186f6b6457e0905f90a35050565b634e487b7160e01b5f52604160045260245ffd5b600181811c9082168061014b57607f821691505b60208210810361016957634e487b7160e01b5f52602260045260245ffd5b50919050565b601f8211156101b657805f5260205f20601f840160051c810160208510156101945750805b601f840160051c820191505b818110156101b3575f81556001016101a0565b50505b505050565b81516001600160401b038111156101d4576101d4610123565b6101e8816101e28454610137565b8461016f565b6020601f82116001811461021a575f83156102035750848201515b5f19600385901b1c1916600184901b1784556101b3565b5f84815260208120601f198516915b828110156102495787850151825560209485019460019092019101610229565b508482101561026657868401515f19600387901b60f8161c191681555b50505050600190811b01905550565b611dc8806102825f395ff3fe6080604052600436106101d0575f3560e01c80636ac437b0116100fd578063afdf613411610092578063d85d3d2711610062578063d85d3d27146104f8578063e985e9c51461050b578063f2fde38b1461052a578063f4a0a52814610549575f80fd5b8063afdf613414610486578063b228d925146104a5578063b88d4fde146104ba578063c87b56dd146104d9575f80fd5b80638da5cb5b116100cd5780638da5cb5b1461042257806395d89b411461043f578063a22cb46514610453578063a2309ff814610472575f80fd5b80636ac437b0146103c257806370a08231146103db578063715018a6146103fa5780637d55094d1461040e575f80fd5b80632f745c591161017357806342842e0e1161014357806342842e0e146103505780634f6ccce71461036f5780636352211e1461038e5780636817c76c146103ad575f80fd5b80632f745c59146102dd57806332cb6b0c146102fc5780633a602b4d146103115780633ccfd60b1461033c575f80fd5b8063095ea7b3116101ae578063095ea7b31461026057806318160ddd146102815780631ff0afd71461029f57806323b872dd146102be575f80fd5b806301ffc9a7146101d457806306fdde0314610208578063081812fc14610229575b5f80fd5b3480156101df575f80fd5b506101f36101ee366004611863565b610568565b60405190151581526020015b60405180910390f35b348015610213575f80fd5b5061021c610578565b6040516101ff91906118ac565b348015610234575f80fd5b506102486102433660046118be565b610607565b6040516001600160a01b0390911681526020016101ff565b34801561026b575f80fd5b5061027f61027a3660046118f0565b61062e565b005b34801561028c575f80fd5b506009545b6040519081526020016101ff565b3480156102aa575f80fd5b506102916102b93660046119c1565b61063d565b3480156102c9575f80fd5b5061027f6102d8366004611a0c565b610707565b3480156102e8575f80fd5b506102916102f73660046118f0565b610790565b348015610307575f80fd5b5061029161271081565b34801561031c575f80fd5b5061029161032b366004611a46565b600f6020525f908152604090205481565b348015610347575f80fd5b5061027f6107f3565b34801561035b575f80fd5b5061027f61036a366004611a0c565b610877565b34801561037a575f80fd5b506102916103893660046118be565b610896565b348015610399575f80fd5b506102486103a83660046118be565b6108eb565b3480156103b8575f80fd5b50610291600d5481565b3480156103cd575f80fd5b50600e546101f39060ff1681565b3480156103e6575f80fd5b506102916103f5366004611a46565b6108f5565b348015610405575f80fd5b5061027f61093a565b348015610419575f80fd5b5061027f61094d565b34801561042d575f80fd5b50600b546001600160a01b0316610248565b34801561044a575f80fd5b5061021c6109a2565b34801561045e575f80fd5b5061027f61046d366004611a5f565b6109b1565b34801561047d575f80fd5b50600c54610291565b348015610491575f80fd5b5061027f6104a03660046118be565b6109bc565b3480156104b0575f80fd5b5061029160105481565b3480156104c5575f80fd5b5061027f6104d4366004611a98565b6109c9565b3480156104e4575f80fd5b5061021c6104f33660046118be565b6109e1565b610291610506366004611b0f565b6109ec565b348015610516575f80fd5b506101f3610525366004611b41565b610bba565b348015610535575f80fd5b5061027f610544366004611a46565b610be7565b348015610554575f80fd5b5061027f6105633660046118be565b610c24565b5f61057282610c67565b92915050565b60605f805461058690611b72565b80601f01602080910402602001604051908101604052809291908181526020018280546105b290611b72565b80156105fd5780601f106105d4576101008083540402835291602001916105fd565b820191905f5260205f20905b8154815290600101906020018083116105e057829003601f168201915b5050505050905090565b5f61061182610c8b565b505f828152600460205260409020546001600160a01b0316610572565b610639828233610cc3565b5050565b5f610646610cd0565b612710600c54106106935760405162461bcd60e51b815260206004820152601260248201527113585e081cdd5c1c1b1e481c995858da195960721b60448201526064015b60405180910390fd5b600c8054905f6106a283611bbe565b9091555050600c546106b48482610cfd565b6106be8184610d16565b80846001600160a01b03167fd35bb95e09c04b219e35047ce7b7b300e3384264ef84a40456943dbc0fc17c14856040516106f891906118ac565b60405180910390a39392505050565b6001600160a01b03821661073057604051633250574960e11b81525f600482015260240161068a565b5f61073c838333610d65565b9050836001600160a01b0316816001600160a01b03161461078a576040516364283d7b60e01b81526001600160a01b038086166004830152602482018490528216604482015260640161068a565b50505050565b5f61079a836108f5565b82106107cb5760405163295f44f760e21b81526001600160a01b03841660048201526024810183905260440161068a565b506001600160a01b03919091165f908152600760209081526040808320938352929052205490565b6107fb610cd0565b47806108405760405162461bcd60e51b81526020600482015260146024820152734e6f2066756e647320746f20776974686472617760601b604482015260640161068a565b600b546040516001600160a01b039091169082156108fc029083905f818181858888f19350505050158015610639573d5f803e3d5ffd5b61089183838360405180602001604052805f8152506109c9565b505050565b5f6108a060095490565b82106108c85760405163295f44f760e21b81525f60048201526024810183905260440161068a565b600982815481106108db576108db611bd6565b905f5260205f2001549050919050565b5f61057282610c8b565b5f6001600160a01b03821661091f576040516322718ad960e21b81525f600482015260240161068a565b506001600160a01b03165f9081526003602052604090205490565b610942610cd0565b61094b5f610d79565b565b610955610cd0565b600e805460ff8082161560ff1990921682179092556040519116151581527f6bdfe227d5db299c59aa56d5f846f40dbd73b271aaa78e18ed74fc3e00b8aa6b9060200160405180910390a1565b60606001805461058690611b72565b610639338383610dca565b6109c4610cd0565b601055565b6109d4848484610707565b61078a3385858585610e68565b606061057282610f90565b600e545f9060ff16610a385760405162461bcd60e51b81526020600482015260156024820152744d696e74696e67206973206e6f742061637469766560581b604482015260640161068a565b612710600c5410610a805760405162461bcd60e51b815260206004820152601260248201527113585e081cdd5c1c1b1e481c995858da195960721b604482015260640161068a565b600d54341015610ac95760405162461bcd60e51b8152602060048201526014602482015273125b9cdd59999a58da595b9d081c185e5b595b9d60621b604482015260640161068a565b601054335f908152600f602052604090205410610b285760405162461bcd60e51b815260206004820152601b60248201527f4d6178206d696e74207065722077616c6c657420726561636865640000000000604482015260640161068a565b600c8054905f610b3783611bbe565b9091555050600c54610b493382610cfd565b610b538184610d16565b335f908152600f60205260408120805491610b6d83611bbe565b919050555080336001600160a01b03167fd35bb95e09c04b219e35047ce7b7b300e3384264ef84a40456943dbc0fc17c1485604051610bac91906118ac565b60405180910390a392915050565b6001600160a01b039182165f90815260056020908152604080832093909416825291909152205460ff1690565b610bef610cd0565b6001600160a01b038116610c1857604051631e4fbdf760e01b81525f600482015260240161068a565b610c2181610d79565b50565b610c2c610cd0565b600d8190556040518181527f525b762709cc2a983aec5ccdfd807a061f993c91090b5bcd7da92ca254976aaa9060200160405180910390a150565b5f6001600160e01b0319821663780e9d6360e01b1480610572575061057282611093565b5f818152600260205260408120546001600160a01b03168061057257604051637e27328960e01b81526004810184905260240161068a565b61089183838360016110b7565b600b546001600160a01b0316331461094b5760405163118cdaa760e01b815233600482015260240161068a565b610639828260405180602001604052805f8152506111bb565b5f828152600660205260409020610d2d8282611c2e565b506040518281527ff8e1a15aba9398e019f0b49df1a4fde98ee17ae345cb5f6b5e2c27f5033e8ce79060200160405180910390a15050565b5f610d718484846111d2565b949350505050565b600b80546001600160a01b038381166001600160a01b0319831681179093556040519116919082907f8be0079c531659141344cd1fd0a4f28419497f9722a3daafe3b4186f6b6457e0905f90a35050565b6001600160a01b038216610dfc57604051630b61174360e31b81526001600160a01b038316600482015260240161068a565b6001600160a01b038381165f81815260056020908152604080832094871680845294825291829020805460ff191686151590811790915591519182527f17307eab39ab6107e8899845ad3d59bd9653f200f220920489ca2b5937696c31910160405180910390a3505050565b6001600160a01b0383163b15610f8957604051630a85bd0160e11b81526001600160a01b0384169063150b7a0290610eaa908890889087908790600401611ce9565b6020604051808303815f875af1925050508015610ee4575060408051601f3d908101601f19168201909252610ee191810190611d25565b60015b610f4b573d808015610f11576040519150601f19603f3d011682016040523d82523d5f602084013e610f16565b606091505b5080515f03610f4357604051633250574960e11b81526001600160a01b038516600482015260240161068a565b805160208201fd5b6001600160e01b03198116630a85bd0160e11b14610f8757604051633250574960e11b81526001600160a01b038516600482015260240161068a565b505b5050505050565b6060610f9b82610c8b565b505f8281526006602052604081208054610fb490611b72565b80601f0160208091040260200160405190810160405280929190818152602001828054610fe090611b72565b801561102b5780601f106110025761010080835404028352916020019161102b565b820191905f5260205f20905b81548152906001019060200180831161100e57829003601f168201915b505050505090505f61104760408051602081019091525f815290565b905080515f03611058575092915050565b81511561108a578082604051602001611072929190611d57565b60405160208183030381529060405292505050919050565b610d718461129d565b5f6001600160e01b03198216632483248360e11b148061057257506105728261130e565b80806110cb57506001600160a01b03821615155b1561118c575f6110da84610c8b565b90506001600160a01b038316158015906111065750826001600160a01b0316816001600160a01b031614155b801561111957506111178184610bba565b155b156111425760405163a9fbf51f60e01b81526001600160a01b038416600482015260240161068a565b811561118a5783856001600160a01b0316826001600160a01b03167f8c5be1e5ebec7d5bd14f71427d1e84f3dd0314c0f7b2291e5b200ac8c7c3b92560405160405180910390a45b505b50505f90815260046020526040902080546001600160a01b0319166001600160a01b0392909216919091179055565b6111c5838361135d565b610891335f858585610e68565b5f806111df8585856113be565b90506001600160a01b03811661123b5761123684600980545f838152600a60205260408120829055600182018355919091527f6e1540171b6c0c960b71a7020d9f60077f6af931a8bbf590da0223dacf75c7af0155565b61125e565b846001600160a01b0316816001600160a01b03161461125e5761125e81856114b0565b6001600160a01b03851661127a576112758461152d565b610d71565b846001600160a01b0316816001600160a01b031614610d7157610d7185856115d4565b60606112a882610c8b565b505f6112be60408051602081019091525f815290565b90505f8151116112dc5760405180602001604052805f815250611307565b806112e684611622565b6040516020016112f7929190611d57565b6040516020818303038152906040525b9392505050565b5f6001600160e01b031982166380ac58cd60e01b148061133e57506001600160e01b03198216635b5e139f60e01b145b8061057257506301ffc9a760e01b6001600160e01b0319831614610572565b6001600160a01b03821661138657604051633250574960e11b81525f600482015260240161068a565b5f61139283835f610d65565b90506001600160a01b03811615610891576040516339e3563760e11b81525f600482015260240161068a565b5f828152600260205260408120546001600160a01b03908116908316156113ea576113ea8184866116b2565b6001600160a01b03811615611424576114055f855f806110b7565b6001600160a01b0381165f90815260036020526040902080545f190190555b6001600160a01b03851615611452576001600160a01b0385165f908152600360205260409020805460010190555b5f8481526002602052604080822080546001600160a01b0319166001600160a01b0389811691821790925591518793918516917fddf252ad1be2c89b69c2b068fc378daa952ba7f163c4a11628f55a4df523b3ef91a4949350505050565b5f6114ba836108f5565b5f838152600860209081526040808320546001600160a01b038816845260079092529091209192509081831461150f575f83815260208281526040808320548584528184208190558352600890915290208290555b5f938452600860209081526040808620869055938552525081205550565b6009545f9061153e90600190611d6b565b5f838152600a60205260408120546009805493945090928490811061156557611565611bd6565b905f5260205f2001549050806009838154811061158457611584611bd6565b5f918252602080832090910192909255828152600a909152604080822084905585825281205560098054806115bb576115bb611d7e565b600190038181905f5260205f20015f9055905550505050565b5f60016115e0846108f5565b6115ea9190611d6b565b6001600160a01b039093165f908152600760209081526040808320868452825280832085905593825260089052919091209190915550565b60605f61162e83611716565b60010190505f8167ffffffffffffffff81111561164d5761164d611918565b6040519080825280601f01601f191660200182016040528015611677576020820181803683370190505b5090508181016020015b5f19016f181899199a1a9b1b9c1cb0b131b232b360811b600a86061a8153600a850494508461168157509392505050565b6116bd8383836117ed565b610891576001600160a01b0383166116eb57604051637e27328960e01b81526004810182905260240161068a565b60405163177e802f60e01b81526001600160a01b03831660048201526024810182905260440161068a565b5f8072184f03e93ff9f4daa797ed6e38ed64bf6a1f0160401b83106117545772184f03e93ff9f4daa797ed6e38ed64bf6a1f0160401b830492506040015b6d04ee2d6d415b85acef81000000008310611780576d04ee2d6d415b85acef8100000000830492506020015b662386f26fc10000831061179e57662386f26fc10000830492506010015b6305f5e10083106117b6576305f5e100830492506008015b61271083106117ca57612710830492506004015b606483106117dc576064830492506002015b600a83106105725760010192915050565b5f6001600160a01b03831615801590610d715750826001600160a01b0316846001600160a01b0316148061182657506118268484610bba565b80610d715750505f908152600460205260409020546001600160a01b03908116911614919050565b6001600160e01b031981168114610c21575f80fd5b5f60208284031215611873575f80fd5b81356113078161184e565b5f81518084528060208401602086015e5f602082860101526020601f19601f83011685010191505092915050565b602081525f611307602083018461187e565b5f602082840312156118ce575f80fd5b5035919050565b80356001600160a01b03811681146118eb575f80fd5b919050565b5f8060408385031215611901575f80fd5b61190a836118d5565b946020939093013593505050565b634e487b7160e01b5f52604160045260245ffd5b5f8067ffffffffffffffff84111561194657611946611918565b50604051601f19601f85018116603f0116810181811067ffffffffffffffff8211171561197557611975611918565b60405283815290508082840185101561198c575f80fd5b838360208301375f60208583010152509392505050565b5f82601f8301126119b2575f80fd5b6113078383356020850161192c565b5f80604083850312156119d2575f80fd5b6119db836118d5565b9150602083013567ffffffffffffffff8111156119f6575f80fd5b611a02858286016119a3565b9150509250929050565b5f805f60608486031215611a1e575f80fd5b611a27846118d5565b9250611a35602085016118d5565b929592945050506040919091013590565b5f60208284031215611a56575f80fd5b611307826118d5565b5f8060408385031215611a70575f80fd5b611a79836118d5565b915060208301358015158114611a8d575f80fd5b809150509250929050565b5f805f8060808587031215611aab575f80fd5b611ab4856118d5565b9350611ac2602086016118d5565b925060408501359150606085013567ffffffffffffffff811115611ae4575f80fd5b8501601f81018713611af4575f80fd5b611b038782356020840161192c565b91505092959194509250565b5f60208284031215611b1f575f80fd5b813567ffffffffffffffff811115611b35575f80fd5b610d71848285016119a3565b5f8060408385031215611b52575f80fd5b611b5b836118d5565b9150611b69602084016118d5565b90509250929050565b600181811c90821680611b8657607f821691505b602082108103611ba457634e487b7160e01b5f52602260045260245ffd5b50919050565b634e487b7160e01b5f52601160045260245ffd5b5f60018201611bcf57611bcf611baa565b5060010190565b634e487b7160e01b5f52603260045260245ffd5b601f82111561089157805f5260205f20601f840160051c81016020851015611c0f5750805b601f840160051c820191505b81811015610f89575f8155600101611c1b565b815167ffffffffffffffff811115611c4857611c48611918565b611c5c81611c568454611b72565b84611bea565b6020601f821160018114611c8e575f8315611c775750848201515b5f19600385901b1c1916600184901b178455610f89565b5f84815260208120601f198516915b82811015611cbd5787850151825560209485019460019092019101611c9d565b5084821015611cda57868401515f19600387901b60f8161c191681555b50505050600190811b01905550565b6001600160a01b03858116825284166020820152604081018390526080606082018190525f90611d1b9083018461187e565b9695505050505050565b5f60208284031215611d35575f80fd5b81516113078161184e565b5f81518060208401855e5f93019283525090919050565b5f610d71611d658386611d40565b84611d40565b8181038181111561057257610572611baa565b634e487b7160e01b5f52603160045260245ffdfea2646970667358221220e2e08a3dbebc4ba6346cfa0119a0975dc662b14f6312691fb30fb85c6a2dda8564736f6c634300081a0033",
  "linkReferences": {},
  "deployedLinkReferences": {}
}