{
  "_format": "hh-sol-artifact-1",
  "contractName": "ArcNFT",
  "sourceName": "contracts/ArcNFT.sol",
  "abi": [
    {
      "inputs": [],
      "stateMutability": "nonpayable",
      "type": "constructor"
    },
    {
      "inputs": [],
      "name": "ERC721EnumerableForbiddenBatchMint",
      "type": "error"
    },
    {
      "inputs": [
        {
          "internalType": "address",
          "name": "sender",
          "type": "address"
        },
        {
          "internalType": "uint256",
          "name": "tokenId",
          "type": "uint256"
        },
        {
          "internalType": "address",
          "name": "owner",
          "type": "address"
        }
      ],
      "name": "ERC721IncorrectOwner",
      "type": "error"
    },
    {
      "inputs": [
        {
          "internalType": "address",
          "name": "operator",
          "type": "address"
        },
        {
          "internalType": "uint256",
          "name": "tokenId",
          "type": "uint256"
        }
      ],
      "name": "ERC721InsufficientApproval",
      "type": "error"
    },
    {
      "inputs": [
        {
          "internalType": "address",
          "name": "approver",
          "type": "address"
        }
      ],
      "name": "ERC721InvalidApprover",
      "type": "error"
    },
    {
      "inputs": [
        {
          "internalType": "address",
          "name": "operator",
          "type": "address"
        }
      ],
      "name": "ERC721InvalidOperator",
      "type": "error"
    },
    {
      "inputs": [
        {
          "internalType": "address",
          "name": "owner",
          "type": "address"
        }
      ],
      "name": "ERC721InvalidOwner",
      "type": "error"
    },
    {
      "inputs": [
        {
          "internalType": "address",
          "name": "receiver",
          "type": "address"
        }
      ],
      "name": "ERC721InvalidReceiver",
      "type": "error"
    },
    {
      "inputs": [
        {
          "internalType": "address",
          "name": "sender",
          "type": "address"
        }
      ],
      "name": "ERC721InvalidSender",
      "type": "error"
    },
    {
      "inputs": [
        {
          "internalType": "uint256",
          "name": "tokenId",
          "type": "uint256"
        }
      ],
      "name": "ERC721NonexistentToken",
      "type": "error"
    },
    {
      "inputs": [
        {
          "internalType": "address",
          "name": "owner",
          "type": "address"
        },
        {
          "internalType": "uint256",
          "name": "index",
          "type": "uint256"
        }
      ],
      "name": "ERC721OutOfBoundsIndex",
      "type": "error"
    },
    {
      "inputs": [
        {
          "internalType": "address",
          "name": "owner",
          "type": "address"
        }
      ],
      "name": "OwnableInvalidOwner",
      "type": "error"
    },
    {
      "inputs": [
        {
          "internalType": "address",
          "name": "account",
          "type": "address"
        }
      ],
      "name": "OwnableUnauthorizedAccount",
      "type": "error"
    },
    {
      "anonymous": false,
      "inputs": [
        {
          "indexed": true,
          "internalType": "address",
          "name": "owner",
          "type": "address"
        },
        {
          "indexed": true,
          "internalType": "address",
          "name": "approved",
          "type": "address"
        },
        {
          "indexed": true,
          "internalType": "uint256",
          "name": "tokenId",
          "type": "uint256"
        }
      ],
      "name": "Approval",
      "type": "event"
    },
    {
      "anonymous": false,
      "inputs": [
        {
          "indexed": true,
          "internalType": "address",
          "name": "owner",
          "type": "address"
        },
        {
          "indexed": true,
          "internalType": "address",
          "name": "operator",
          "type": "address"
        },
        {
          "indexed": false,
          "internalType": "bool",
          "name": "approved",
          "type": "bool"
        }
      ],
      "name": "ApprovalForAll",
      "type": "event"
    },
    {
      "anonymous": false,
      "inputs": [
        {
          "indexed": false,
          "internalType": "uint256",
          "name": "_fromTokenId",
          "type": "uint256"
        },
        {
          "indexed": false,
          "internalType": "uint256",
          "name": "_toTokenId",
          "type": "uint256"
        }
      ],
      "name": "BatchMetadataUpdate",
      "type": "event"
    },
    {
      "anonymous": false,
      "inputs": [
        {
          "indexed": false,
          "internalType": "uint256",
          "name": "_tokenId",
          "type": "uint256"
        }
      ],
      "name": "MetadataUpdate",
      "type": "event"
    },
    {
      "anonymous": false,
      "inputs": [
        {
          "indexed": false,
          "internalType": "uint256",
          "name": "newPrice",
          "type": "uint256"
        }
      ],
      "name": "MintPriceUpdated",
      "type": "event"
    },
    {
      "anonymous": false,
      "inputs": [
        {
          "indexed": false,
          "internalType": "bool",
          "name": "isActive",
          "type": "bool"
        }
      ],
      "name": "MintingToggled",
      "type": "event"
    },
    {
      "anonymous": false,
      "inputs": [
        {
          "indexed": true,
          "internalType": "address",
          "name": "to",
          "type": "address"
        },
        {
          "indexed": true,
          "internalType": "uint256",
          "name": "tokenId",
          "type": "uint256"
        },
        {
          "indexed": false,
          "internalType": "string",
          "name": "tokenURI",
          "type": "string"
        }
      ],
      "name": "NFTMinted",
      "type": "event"
    },
    {
      "anonymous": false,
      "inputs": [
        {
          "indexed": true,
          "internalType": "address",
          "name": "previousOwner",
          "type": "address"
        },
        {
          "indexed": true,
          "internalType": "address",
          "name": "newOwner",
          "type": "address"
        }
      ],
      "name": "OwnershipTransferred",
      "type": "event"
    },
    {
      "anonymous": false,
      "inputs": [
        {
          "indexed": true,
          "internalType": "address",
          "name": "from",
          "type": "address"
        },
        {
          "indexed": true,
          "internalType": "address",
          "name": "to",
          "type": "address"
        },
        {
          "indexed": true,
          "internalType": "uint256",
          "name": "tokenId",
          "type": "uint256"
        }
      ],
      "name": "Transfer",
      "type": "event"
    },
    {
      "inputs": [],
      "name": "MAX_SUPPLY",
      "outputs": [
        {
          "internalType": "uint256",
          "name": "",
          "type": "uint256"
        }
      ],
      "stateMutability": "view",
      "type": "function"
    },
    {
      "inputs": [
        {
          "internalType": "address",
          "name": "to",
          "type": "address"
        },
        {
          "internalType": "uint256",
          "name": "tokenId",
          "type": "uint256"
        }
      ],
      "name": "approve",
      "outputs": [],
      "stateMutability": "nonpayable",
      "type": "function"
    },
    {
      "inputs": [
        {
          "internalType": "address",
          "name": "owner",
          "type": "address"
        }
      ],
      "name": "balanceOf",
      "outputs": [
        {
          "internalType": "uint256",
          "name": "",
          "type": "uint256"
        }
      ],
      "stateMutability": "view",
      "type": "function"
    },
    {
      "inputs": [
        {
          "internalType": "uint256",
          "name": "tokenId",
          "type": "uint256"
        }
      ],
      "name": "getApproved",
      "outputs": [
        {
          "internalType": "address",
          "name": "",
          "type": "address"
        }
      ],
      "stateMutability": "view",
      "type": "function"
    },
    {
      "inputs": [
        {
          "internalType": "address",
          "name": "owner",
          "type": "address"
        },
        {
          "internalType": "address",
          "name": "operator",
          "type": "address"
        }
      ],
      "name": "isApprovedForAll",
      "outputs": [
        {
          "internalType": "bool",
          "name": "",
          "type": "bool"
        }
      ],
      "stateMutability": "view",
      "type": "function"
    },
    {
      "inputs": [],
      "name": "isMintingActive",
      "outputs": [
        {
          "internalType": "bool",
          "name": "",
          "type": "bool"
        }
      ],
      "stateMutability": "view",
      "type": "function"
    },
    {
      "inputs": [],
      "name": "maxMintPerWallet",
      "outputs": [
        {
          "internalType": "uint256",
          "name": "",
          "type": "uint256"
        }
      ],
      "stateMutability": "view",
      "type": "function"
    },
    {
      "inputs": [
        {
          "internalType": "string",
          "name": "uri",
          "type": "string"
        }
      ],
      "name": "mint",
      "outputs": [
        {
          "internalType": "uint256",
          "name": "",
          "type": "uint256"
        }
      ],
      "stateMutability": "payable",
      "type": "function"
    },
    {
      "inputs": [
        {
          "internalType": "address",
          "name": "to",
          "type": "address"
        },
        {
          "internalType": "string",
          "name": "uri",
          "type": "string"
        }
      ],
      "name": "mintForAddress",
      "outputs": [
        {
          "internalType": "uint256",
          "name": "",
          "type": "uint256"
        }
      ],
      "stateMutability": "nonpayable",
      "type": "function"
    },
    {
      "inputs": [],
      "name": "mintPrice",
      "outputs": [
        {
          "internalType": "uint256",
          "name": "",
          "type": "uint256"
        }
      ],
      "stateMutability": "view",
      "type": "function"
    },
    {
      "inputs": [
        {
          "internalType": "address",
          "name": "",
          "type": "address"
        }
      ],
      "name": "mintedPerWallet",
      "outputs": [
        {
          "internalType": "uint256",
          "name": "",
          "type": "uint256"
        }
      ],
      "stateMutability": "view",
      "type": "function"
    },
    {
      "inputs": [],
      "name": "name",
      "outputs": [
        {
          "internalType": "string",
          "name": "",
          "type": "string"
        }
      ],
      "stateMutability": "view",
      "type": "function"
    },
    {
      "inputs": [],
      "name": "owner",
      "outputs": [
        {
          "internalType": "address",
          "name": "",
          "type": "address"
        }
      ],
      "stateMutability": "view",
      "type": "function"
    },
    {
      "inputs": [
        {
          "internalType": "uint256",
          "name": "tokenId",
          "type": "uint256"
        }
      ],
      "name": "ownerOf",
      "outputs": [
        {
          "internalType": "address",
          "name": "",
          "type": "address"
        }
      ],
      "stateMutability": "view",
      "type": "function"
    },
    {
      "inputs": [],
      "name": "renounceOwnership",
      "outputs": [],
      "stateMutability": "nonpayable",
      "type": "function"
    },
    {
      "inputs": [
        {
          "internalType": "address",
          "name": "from",
          "type": "address"
        },
        {
          "internalType": "address",
          "name": "to",
          "type": "address"
        },
        {
          "internalType": "uint256",
          "name": "tokenId",
          "type": "uint256"
        }
      ],
      "name": "safeTransferFrom",
      "outputs": [],
      "stateMutability": "nonpayable",
      "type": "function"
    },
    {
      "inputs": [
        {
          "internalType": "address",
          "name": "from",
          "type": "address"
        },
        {
          "internalType": "address",
          "name": "to",
          "type": "address"
        },
        {
          "internalType": "uint256",
          "name": "tokenId",
          "type": "uint256"
        },
        {
          "internalType": "bytes",
          "name": "data",
          "type": "bytes"
        }
      ],
      "name": "safeTransferFrom",
      "outputs": [],
      "stateMutability": "nonpayable",
      "type": "function"
    },
    {
      "inputs": [
        {
          "internalType": "address",
          "name": "operator",
          "type": "address"
        },
        {
          "internalType": "bool",
          "name": "approved",
          "type": "bool"
        }
      ],
      "name": "setApprovalForAll",
      "outputs": [],
      "stateMutability": "nonpayable",
      "type": "function"
    },
    {
      "inputs": [
        {
          "internalType": "uint256",
          "name": "newMax",
          "type": "uint256"
        }
      ],
      "name": "setMaxMintPerWallet",
      "outputs": [],
      "stateMutability": "nonpayable",
      "type": "function"
    },
    {
      "inputs": [
        {
          "internalType": "uint256",
          "name": "newPrice",
          "type": "uint256"
        }
      ],
      "name": "setMintPrice",
      "outputs": [],
      "stateMutability": "nonpayable",
      "type": "function"
    },
    {
      "inputs": [
        {
          "internalType": "bytes4",
          "name": "interfaceId",
          "type": "bytes4"
        }
      ],
      "name": "supportsInterface",
      "outputs": [
        {
          "internalType": "bool",
          "name": "",
          "type": "bool"
        }
      ],
      "stateMutability": "view",
      "type": "function"
    },
    {
      "inputs": [],
      "name": "symbol",
      "outputs": [
        {
          "internalType": "string",
          "name": "",
          "type": "string"
        }
      ],
      "stateMutability": "view",
      "type": "function"
    },
    {
      "inputs": [],
      "name": "toggleMinting",
      "outputs": [],
      "stateMutability": "nonpayable",
      "type": "function"
    },
    {
      "inputs": [
        {
          "internalType": "uint256",
          "name": "index",
          "type": "uint256"
        }
      ],
      "name": "tokenByIndex",
      "outputs": [
        {
          "internalType": "uint256",
          "name": "",
          "type": "uint256"
        }
      ],
      "stateMutability": "view",
      "type": "function"
    },
    {
      "inputs": [
        {
          "internalType": "address",
          "name": "owner",
          "type": "address"
        },
        {
          "internalType": "uint256",
          "name": "index",
          "type": "uint256"
        }
      ],
      "name": "tokenOfOwnerByIndex",
      "outputs": [
        {
          "internalType": "uint256",
          "name": "",
          "type": "uint256"
        }
      ],
      "stateMutability": "view",
      "type": "function"
    },
    {
      "inputs": [
        {
          "internalType": "uint256",
          "name": "tokenId",
          "type": "uint256"
        }
      ],
      "name": "tokenURI",
      "outputs": [
        {
          "internalType": "string",
          "name": "",
          "type": "string"
        }
      ],
      "stateMutability": "view",
      "type": "function"
    },
    {
      "inputs": [],
      "name": "totalMinted",
      "outputs": [
        {
          "internalType": "uint256",
          "name": "",
          "type": "uint256"
        }
      ],
      "stateMutability": "view",
      "type": "function"
    },
    {
      "inputs": [],
      "name": "totalSupply",
      "outputs": [
        {
          "internalType": "uint256",
          "name": "",
          "type": "uint256"
        }
      ],
      "stateMutability": "view",
      "type": "function"
    },
    {
      "inputs": [
        {
          "internalType": "address",
          "name": "from",
          "type": "address"
        },
        {
          "internalType": "address",
          "name": "to",
          "type": "address"
        },
        {
          "internalType": "uint256",
          "name": "tokenId",
          "type": "uint256"
        }
      ],
      "name": "transferFrom",
      "outputs": [],
      "stateMutability": "nonpayable",
      "type": "function"
    },
    {
      "inputs": [
        {
          "internalType": "address",
          "name": "newOwner",
          "type": "address"
        }
      ],
      "name": "transferOwnership",
      "outputs": [],
      "stateMutability": "nonpayable",
      "type": "function"
    },
    {
      "inputs": [],
      "name": "withdraw",
      "outputs": [],
      "stateMutability": "nonpayable",
      "type": "function"
    }
  ],
  "bytecode": "0x6080604052662386f26fc10000600d55600e805460ff19166001179055600a6010553480156200002e57600080fd5b50336040518060400160405280601281526020017120b9319027232a1021b7b63632b1ba34b7b760711b81525060405180604001604052806006815260200165105490d3919560d21b81525081600090816200008b9190620001d5565b5060016200009a8282620001d5565b5050506001600160a01b038116620000cc57604051631e4fbdf760e01b81526000600482015260240160405180910390fd5b620000d781620000de565b50620002a1565b600b80546001600160a01b038381166001600160a01b0319831681179093556040519116919082907f8be0079c531659141344cd1fd0a4f28419497f9722a3daafe3b4186f6b6457e090600090a35050565b634e487b7160e01b600052604160045260246000fd5b600181811c908216806200015b57607f821691505b6020821081036200017c57634e487b7160e01b600052602260045260246000fd5b50919050565b601f821115620001d057600081815260208120601f850160051c81016020861015620001ab5750805b601f850160051c820191505b81811015620001cc57828155600101620001b7565b5050505b505050565b81516001600160401b03811115620001f157620001f162000130565b620002098162000202845462000146565b8462000182565b602080601f831160018114620002415760008415620002285750858301515b600019600386901b1c1916600185901b178555620001cc565b600085815260208120601f198616915b82811015620002725788860151825594840194600190910190840162000251565b5085821015620002915787850151600019600388901b60f8161c191681555b5050505050600190811b01905550565b611ea280620002b16000396000f3fe6080604052600436106101d85760003560e01c80636ac437b011610102578063afdf613411610095578063d85d3d2711610064578063d85d3d271461051d578063e985e9c514610530578063f2fde38b14610550578063f4a0a5281461057057600080fd5b8063afdf6134146104a7578063b228d925146104c7578063b88d4fde146104dd578063c87b56dd146104fd57600080fd5b80638da5cb5b116100d15780638da5cb5b1461043f57806395d89b411461045d578063a22cb46514610472578063a2309ff81461049257600080fd5b80636ac437b0146103db57806370a08231146103f5578063715018a6146104155780637d55094d1461042a57600080fd5b80632f745c591161017a57806342842e0e1161014957806342842e0e146103655780634f6ccce7146103855780636352211e146103a55780636817c76c146103c557600080fd5b80632f745c59146102ed57806332cb6b0c1461030d5780633a602b4d146103235780633ccfd60b1461035057600080fd5b8063095ea7b3116101b6578063095ea7b31461026c57806318160ddd1461028e5780631ff0afd7146102ad57806323b872dd146102cd57600080fd5b806301ffc9a7146101dd57806306fdde0314610212578063081812fc14610234575b600080fd5b3480156101e957600080fd5b506101fd6101f83660046118e5565b610590565b60405190151581526020015b60405180910390f35b34801561021e57600080fd5b506102276105a1565b6040516102099190611952565b34801561024057600080fd5b5061025461024f366004611965565b610633565b6040516001600160a01b039091168152602001610209565b34801561027857600080fd5b5061028c61028736600461199a565b61065c565b005b34801561029a57600080fd5b506009545b604051908152602001610209565b3480156102b957600080fd5b5061029f6102c8366004611a70565b61066b565b3480156102d957600080fd5b5061028c6102e8366004611abe565b610737565b3480156102f957600080fd5b5061029f61030836600461199a565b6107c2565b34801561031957600080fd5b5061029f61271081565b34801561032f57600080fd5b5061029f61033e366004611afa565b600f6020526000908152604090205481565b34801561035c57600080fd5b5061028c610827565b34801561037157600080fd5b5061028c610380366004611abe565b6108ae565b34801561039157600080fd5b5061029f6103a0366004611965565b6108ce565b3480156103b157600080fd5b506102546103c0366004611965565b610927565b3480156103d157600080fd5b5061029f600d5481565b3480156103e757600080fd5b50600e546101fd9060ff1681565b34801561040157600080fd5b5061029f610410366004611afa565b610932565b34801561042157600080fd5b5061028c61097a565b34801561043657600080fd5b5061028c61098e565b34801561044b57600080fd5b50600b546001600160a01b0316610254565b34801561046957600080fd5b506102276109e3565b34801561047e57600080fd5b5061028c61048d366004611b15565b6109f2565b34801561049e57600080fd5b50600c5461029f565b3480156104b357600080fd5b5061028c6104c2366004611965565b6109fd565b3480156104d357600080fd5b5061029f60105481565b3480156104e957600080fd5b5061028c6104f8366004611b51565b610a0a565b34801561050957600080fd5b50610227610518366004611965565b610a22565b61029f61052b366004611bcd565b610a2d565b34801561053c57600080fd5b506101fd61054b366004611c02565b610bff565b34801561055c57600080fd5b5061028c61056b366004611afa565b610c2d565b34801561057c57600080fd5b5061028c61058b366004611965565b610c6b565b600061059b82610cae565b92915050565b6060600080546105b090611c35565b80601f01602080910402602001604051908101604052809291908181526020018280546105dc90611c35565b80156106295780601f106105fe57610100808354040283529160200191610629565b820191906000526020600020905b81548152906001019060200180831161060c57829003601f168201915b5050505050905090565b600061063e82610cd3565b506000828152600460205260409020546001600160a01b031661059b565b610667828233610d0c565b5050565b6000610675610d19565b612710600c54106106c25760405162461bcd60e51b815260206004820152601260248201527113585e081cdd5c1c1b1e481c995858da195960721b60448201526064015b60405180910390fd5b600c80549060006106d283611c85565b9091555050600c546106e48482610d46565b6106ee8184610d60565b80846001600160a01b03167fd35bb95e09c04b219e35047ce7b7b300e3384264ef84a40456943dbc0fc17c14856040516107289190611952565b60405180910390a39392505050565b6001600160a01b03821661076157604051633250574960e11b8152600060048201526024016106b9565b600061076e838333610db0565b9050836001600160a01b0316816001600160a01b0316146107bc576040516364283d7b60e01b81526001600160a01b03808616600483015260248201849052821660448201526064016106b9565b50505050565b60006107cd83610932565b82106107fe5760405163295f44f760e21b81526001600160a01b0384166004820152602481018390526044016106b9565b506001600160a01b03919091166000908152600760209081526040808320938352929052205490565b61082f610d19565b47806108745760405162461bcd60e51b81526020600482015260146024820152734e6f2066756e647320746f20776974686472617760601b60448201526064016106b9565b600b546040516001600160a01b039091169082156108fc029083906000818181858888f19350505050158015610667573d6000803e3d6000fd5b6108c983838360405180602001604052806000815250610a0a565b505050565b60006108d960095490565b82106109025760405163295f44f760e21b815260006004820152602481018390526044016106b9565b6009828154811061091557610915611c9e565b90600052602060002001549050919050565b600061059b82610cd3565b60006001600160a01b03821661095e576040516322718ad960e21b8152600060048201526024016106b9565b506001600160a01b031660009081526003602052604090205490565b610982610d19565b61098c6000610dc5565b565b610996610d19565b600e805460ff8082161560ff1990921682179092556040519116151581527f6bdfe227d5db299c59aa56d5f846f40dbd73b271aaa78e18ed74fc3e00b8aa6b9060200160405180910390a1565b6060600180546105b090611c35565b610667338383610e17565b610a05610d19565b601055565b610a15848484610737565b6107bc3385858585610eb6565b606061059b82610fe1565b600e5460009060ff16610a7a5760405162461bcd60e51b81526020600482015260156024820152744d696e74696e67206973206e6f742061637469766560581b60448201526064016106b9565b612710600c5410610ac25760405162461bcd60e51b815260206004820152601260248201527113585e081cdd5c1c1b1e481c995858da195960721b60448201526064016106b9565b600d54341015610b0b5760405162461bcd60e51b8152602060048201526014602482015273125b9cdd59999a58da595b9d081c185e5b595b9d60621b60448201526064016106b9565b601054336000908152600f602052604090205410610b6b5760405162461bcd60e51b815260206004820152601b60248201527f4d6178206d696e74207065722077616c6c65742072656163686564000000000060448201526064016106b9565b600c8054906000610b7b83611c85565b9091555050600c54610b8d3382610d46565b610b978184610d60565b336000908152600f60205260408120805491610bb283611c85565b919050555080336001600160a01b03167fd35bb95e09c04b219e35047ce7b7b300e3384264ef84a40456943dbc0fc17c1485604051610bf19190611952565b60405180910390a392915050565b6001600160a01b03918216600090815260056020908152604080832093909416825291909152205460ff1690565b610c35610d19565b6001600160a01b038116610c5f57604051631e4fbdf760e01b8152600060048201526024016106b9565b610c6881610dc5565b50565b610c73610d19565b600d8190556040518181527f525b762709cc2a983aec5ccdfd807a061f993c91090b5bcd7da92ca254976aaa9060200160405180910390a150565b60006001600160e01b0319821663780e9d6360e01b148061059b575061059b826110ea565b6000818152600260205260408120546001600160a01b03168061059b57604051637e27328960e01b8152600481018490526024016106b9565b6108c9838383600161110f565b600b546001600160a01b0316331461098c5760405163118cdaa760e01b81523360048201526024016106b9565b610667828260405180602001604052806000815250611215565b6000828152600660205260409020610d788282611cfa565b506040518281527ff8e1a15aba9398e019f0b49df1a4fde98ee17ae345cb5f6b5e2c27f5033e8ce79060200160405180910390a15050565b6000610dbd84848461122d565b949350505050565b600b80546001600160a01b038381166001600160a01b0319831681179093556040519116919082907f8be0079c531659141344cd1fd0a4f28419497f9722a3daafe3b4186f6b6457e090600090a35050565b6001600160a01b038216610e4957604051630b61174360e31b81526001600160a01b03831660048201526024016106b9565b6001600160a01b03838116600081815260056020908152604080832094871680845294825291829020805460ff191686151590811790915591519182527f17307eab39ab6107e8899845ad3d59bd9653f200f220920489ca2b5937696c31910160405180910390a3505050565b6001600160a01b0383163b15610fda57604051630a85bd0160e11b81526001600160a01b0384169063150b7a0290610ef8908890889087908790600401611dba565b6020604051808303816000875af1925050508015610f33575060408051601f3d908101601f19168201909252610f3091810190611df7565b60015b610f9c573d808015610f61576040519150601f19603f3d011682016040523d82523d6000602084013e610f66565b606091505b508051600003610f9457604051633250574960e11b81526001600160a01b03851660048201526024016106b9565b805160208201fd5b6001600160e01b03198116630a85bd0160e11b14610fd857604051633250574960e11b81526001600160a01b03851660048201526024016106b9565b505b5050505050565b6060610fec82610cd3565b506000828152600660205260408120805461100690611c35565b80601f016020809104026020016040519081016040528092919081815260200182805461103290611c35565b801561107f5780601f106110545761010080835404028352916020019161107f565b820191906000526020600020905b81548152906001019060200180831161106257829003601f168201915b50505050509050600061109d60408051602081019091526000815290565b905080516000036110af575092915050565b8151156110e15780826040516020016110c9929190611e14565b60405160208183030381529060405292505050919050565b610dbd846112fa565b60006001600160e01b03198216632483248360e11b148061059b575061059b8261136f565b808061112357506001600160a01b03821615155b156111e557600061113384610cd3565b90506001600160a01b0383161580159061115f5750826001600160a01b0316816001600160a01b031614155b801561117257506111708184610bff565b155b1561119b5760405163a9fbf51f60e01b81526001600160a01b03841660048201526024016106b9565b81156111e35783856001600160a01b0316826001600160a01b03167f8c5be1e5ebec7d5bd14f71427d1e84f3dd0314c0f7b2291e5b200ac8c7c3b92560405160405180910390a45b505b5050600090815260046020526040902080546001600160a01b0319166001600160a01b0392909216919091179055565b61121f83836113bf565b6108c9336000858585610eb6565b60008061123b858585611424565b90506001600160a01b0381166112985761129384600980546000838152600a60205260408120829055600182018355919091527f6e1540171b6c0c960b71a7020d9f60077f6af931a8bbf590da0223dacf75c7af0155565b6112bb565b846001600160a01b0316816001600160a01b0316146112bb576112bb818561151d565b6001600160a01b0385166112d7576112d28461159e565b610dbd565b846001600160a01b0316816001600160a01b031614610dbd57610dbd858561164d565b606061130582610cd3565b50600061131d60408051602081019091526000815290565b9050600081511161133d5760405180602001604052806000815250611368565b806113478461169d565b604051602001611358929190611e14565b6040516020818303038152906040525b9392505050565b60006001600160e01b031982166380ac58cd60e01b14806113a057506001600160e01b03198216635b5e139f60e01b145b8061059b57506301ffc9a760e01b6001600160e01b031983161461059b565b6001600160a01b0382166113e957604051633250574960e11b8152600060048201526024016106b9565b60006113f783836000610db0565b90506001600160a01b038116156108c9576040516339e3563760e11b8152600060048201526024016106b9565b6000828152600260205260408120546001600160a01b039081169083161561145157611451818486611730565b6001600160a01b0381161561148f5761146e60008560008061110f565b6001600160a01b038116600090815260036020526040902080546000190190555b6001600160a01b038516156114be576001600160a01b0385166000908152600360205260409020805460010190555b60008481526002602052604080822080546001600160a01b0319166001600160a01b0389811691821790925591518793918516917fddf252ad1be2c89b69c2b068fc378daa952ba7f163c4a11628f55a4df523b3ef91a4949350505050565b600061152883610932565b6000838152600860209081526040808320546001600160a01b038816845260079092529091209192509081831461157f57600083815260208281526040808320548584528184208190558352600890915290208290555b6000938452600860209081526040808620869055938552525081205550565b6009546000906115b090600190611e43565b6000838152600a6020526040812054600980549394509092849081106115d8576115d8611c9e565b9060005260206000200154905080600983815481106115f9576115f9611c9e565b6000918252602080832090910192909255828152600a9091526040808220849055858252812055600980548061163157611631611e56565b6001900381819060005260206000200160009055905550505050565b6000600161165a84610932565b6116649190611e43565b6001600160a01b039093166000908152600760209081526040808320868452825280832085905593825260089052919091209190915550565b606060006116aa83611794565b600101905060008167ffffffffffffffff8111156116ca576116ca6119c4565b6040519080825280601f01601f1916602001820160405280156116f4576020820181803683370190505b5090508181016020015b600019016f181899199a1a9b1b9c1cb0b131b232b360811b600a86061a8153600a85049450846116fe57509392505050565b61173b83838361186c565b6108c9576001600160a01b03831661176957604051637e27328960e01b8152600481018290526024016106b9565b60405163177e802f60e01b81526001600160a01b0383166004820152602481018290526044016106b9565b60008072184f03e93ff9f4daa797ed6e38ed64bf6a1f0160401b83106117d35772184f03e93ff9f4daa797ed6e38ed64bf6a1f0160401b830492506040015b6d04ee2d6d415b85acef810000000083106117ff576d04ee2d6d415b85acef8100000000830492506020015b662386f26fc10000831061181d57662386f26fc10000830492506010015b6305f5e1008310611835576305f5e100830492506008015b612710831061184957612710830492506004015b6064831061185b576064830492506002015b600a831061059b5760010192915050565b60006001600160a01b03831615801590610dbd5750826001600160a01b0316846001600160a01b031614806118a657506118a68484610bff565b80610dbd5750506000908152600460205260409020546001600160a01b03908116911614919050565b6001600160e01b031981168114610c6857600080fd5b6000602082840312156118f757600080fd5b8135611368816118cf565b60005b8381101561191d578181015183820152602001611905565b50506000910152565b6000815180845261193e816020860160208601611902565b601f01601f19169290920160200192915050565b6020815260006113686020830184611926565b60006020828403121561197757600080fd5b5035919050565b80356001600160a01b038116811461199557600080fd5b919050565b600080604083850312156119ad57600080fd5b6119b68361197e565b946020939093013593505050565b634e487b7160e01b600052604160045260246000fd5b600067ffffffffffffffff808411156119f5576119f56119c4565b604051601f8501601f19908116603f01168101908282118183101715611a1d57611a1d6119c4565b81604052809350858152868686011115611a3657600080fd5b858560208301376000602087830101525050509392505050565b600082601f830112611a6157600080fd5b611368838335602085016119da565b60008060408385031215611a8357600080fd5b611a8c8361197e565b9150602083013567ffffffffffffffff811115611aa857600080fd5b611ab485828601611a50565b9150509250929050565b600080600060608486031215611ad357600080fd5b611adc8461197e565b9250611aea6020850161197e565b9150604084013590509250925092565b600060208284031215611b0c57600080fd5b6113688261197e565b60008060408385031215611b2857600080fd5b611b318361197e565b915060208301358015158114611b4657600080fd5b809150509250929050565b60008060008060808587031215611b6757600080fd5b611b708561197e565b9350611b7e6020860161197e565b925060408501359150606085013567ffffffffffffffff811115611ba157600080fd5b8501601f81018713611bb257600080fd5b611bc1878235602084016119da565b91505092959194509250565b600060208284031215611bdf57600080fd5b813567ffffffffffffffff811115611bf657600080fd5b610dbd84828501611a50565b60008060408385031215611c1557600080fd5b611c1e8361197e565b9150611c2c6020840161197e565b90509250929050565b600181811c90821680611c4957607f821691505b602082108103611c6957634e487b7160e01b600052602260045260246000fd5b50919050565b634e487b7160e01b600052601160045260246000fd5b600060018201611c9757611c97611c6f565b5060010190565b634e487b7160e01b600052603260045260246000fd5b601f8211156108c957600081815260208120601f850160051c81016020861015611cdb5750805b601f850160051c820191505b81811015610fd857828155600101611ce7565b815167ffffffffffffffff811115611d1457611d146119c4565b611d2881611d228454611c35565b84611cb4565b602080601f831160018114611d5d5760008415611d455750858301515b600019600386901b1c1916600185901b178555610fd8565b600085815260208120601f198616915b82811015611d8c57888601518255948401946001909101908401611d6d565b5085821015611daa5787850151600019600388901b60f8161c191681555b5050505050600190811b01905550565b6001600160a01b0385811682528416602082015260408101839052608060608201819052600090611ded90830184611926565b9695505050505050565b600060208284031215611e0957600080fd5b8151611368816118cf565b60008351611e26818460208801611902565b835190830190611e3a818360208801611902565b01949350505050565b8181038181111561059b5761059b611c6f565b634e487b7160e01b600052603160045260246000fdfea2646970667358221220e9bba08937f6c37e8090fd993f953ac094766508ae319a0e5c0e9d9a2fdcc3bf64736f6c63430008140033",
  "linkReferences": {},
  "deployedLinkReferences": {}
}