{
  "_format": "hh-sol-artifact-1",
  "contractName": "ArcVault",
  "sourceName": "contracts/ArcVault.sol",
  "abi": [
    {
      "inputs": [
        {
          "internalType": "address",
          "name": "_stakingToken",
          "type": "address"
        },
        {
          "internalType": "address",
          "name": "_rewardToken",
          "type": "address"
        }
      ],
      "stateMutability": "nonpayable",
      "type": "constructor"
    },
    {
      "inputs": [
        {
          "internalType": "address",
          "name": "owner",
          "type": "address"
        }
      ],
      "name": "OwnableInvalidOwner",
      "type": "error"
    },
    {
      "inputs": [
        {
          "internalType": "address",
          "name": "account",
          "type": "address"
        }
      ],
      "name": "OwnableUnauthorizedAccount",
      "type": "error"
    },
    {
      "inputs": [],
      "name": "ReentrancyGuardReentrantCall",
      "type": "error"
    },
    {
      "inputs": [
        {
          "internalType": "address",
          "name": "token",
          "type": "address"
        }
      ],
      "name": "SafeERC20FailedOperation",
      "type": "error"
    },
    {
      "anonymous": false,
      "inputs": [
        {
          "indexed": false,
          "internalType": "uint256",
          "name": "newFee",
          "type": "uint256"
        }
      ],
      "name": "EarlyWithdrawFeeUpdated",
      "type": "event"
    },
    {
      "anonymous": false,
      "inputs": [
        {
          "indexed": false,
          "internalType": "uint256",
          "name": "newPeriod",
          "type": "uint256"
        }
      ],
      "name": "MinStakePeriodUpdated",
      "type": "event"
    },
    {
      "anonymous": false,
      "inputs": [
        {
          "indexed": true,
          "internalType": "address",
          "name": "previousOwner",
          "type": "address"
        },
        {
          "indexed": true,
          "internalType": "address",
          "name": "newOwner",
          "type": "address"
        }
      ],
      "name": "OwnershipTransferred",
      "type": "event"
    },
    {
      "anonymous": false,
      "inputs": [
        {
          "indexed": true,
          "internalType": "address",
          "name": "user",
          "type": "address"
        },
        {
          "indexed": false,
          "internalType": "uint256",
          "name": "amount",
          "type": "uint256"
        }
      ],
      "name": "RewardClaimed",
      "type": "event"
    },
    {
      "anonymous": false,
      "inputs": [
        {
          "indexed": false,
          "internalType": "uint256",
          "name": "newRate",
          "type": "uint256"
        }
      ],
      "name": "RewardRateUpdated",
      "type": "event"
    },
    {
      "anonymous": false,
      "inputs": [
        {
          "indexed": true,
          "internalType": "address",
          "name": "user",
          "type": "address"
        },
        {
          "indexed": false,
          "internalType": "uint256",
          "name": "amount",
          "type": "uint256"
        }
      ],
      "name": "Staked",
      "type": "event"
    },
    {
      "anonymous": false,
      "inputs": [
        {
          "indexed": true,
          "internalType": "address",
          "name": "user",
          "type": "address"
        },
        {
          "indexed": false,
          "internalType": "uint256",
          "name": "amount",
          "type": "uint256"
        },
        {
          "indexed": false,
          "internalType": "uint256",
          "name": "fee",
          "type": "uint256"
        }
      ],
      "name": "Unstaked",
      "type": "event"
    },
    {
      "inputs": [],
      "name": "accRewardPerShare",
      "outputs": [
        {
          "internalType": "uint256",
          "name": "",
          "type": "uint256"
        }
      ],
      "stateMutability": "view",
      "type": "function"
    },
    {
      "inputs": [],
      "name": "claimRewards",
      "outputs": [],
      "stateMutability": "nonpayable",
      "type": "function"
    },
    {
      "inputs": [],
      "name": "currentAPY",
      "outputs": [
        {
          "internalType": "uint256",
          "name": "",
          "type": "uint256"
        }
      ],
      "stateMutability": "view",
      "type": "function"
    },
    {
      "inputs": [
        {
          "internalType": "uint256",
          "name": "amount",
          "type": "uint256"
        }
      ],
      "name": "depositRewards",
      "outputs": [],
      "stateMutability": "nonpayable",
      "type": "function"
    },
    {
      "inputs": [],
      "name": "earlyWithdrawFee",
      "outputs": [
        {
          "internalType": "uint256",
          "name": "",
          "type": "uint256"
        }
      ],
      "stateMutability": "view",
      "type": "function"
    },
    {
      "inputs": [],
      "name": "emergencyWithdraw",
      "outputs": [],
      "stateMutability": "nonpayable",
      "type": "function"
    },
    {
      "inputs": [],
      "name": "lastRewardTime",
      "outputs": [
        {
          "internalType": "uint256",
          "name": "",
          "type": "uint256"
        }
      ],
      "stateMutability": "view",
      "type": "function"
    },
    {
      "inputs": [],
      "name": "minStakePeriod",
      "outputs": [
        {
          "internalType": "uint256",
          "name": "",
          "type": "uint256"
        }
      ],
      "stateMutability": "view",
      "type": "function"
    },
    {
      "inputs": [],
      "name": "owner",
      "outputs": [
        {
          "internalType": "address",
          "name": "",
          "type": "address"
        }
      ],
      "stateMutability": "view",
      "type": "function"
    },
    {
      "inputs": [
        {
          "internalType": "address",
          "name": "user",
          "type": "address"
        }
      ],
      "name": "pendingRewards",
      "outputs": [
        {
          "internalType": "uint256",
          "name": "",
          "type": "uint256"
        }
      ],
      "stateMutability": "view",
      "type": "function"
    },
    {
      "inputs": [],
      "name": "renounceOwnership",
      "outputs": [],
      "stateMutability": "nonpayable",
      "type": "function"
    },
    {
      "inputs": [],
      "name": "rewardPerSecond",
      "outputs": [
        {
          "internalType": "uint256",
          "name": "",
          "type": "uint256"
        }
      ],
      "stateMutability": "view",
      "type": "function"
    },
    {
      "inputs": [],
      "name": "rewardToken",
      "outputs": [
        {
          "internalType": "contract IERC20",
          "name": "",
          "type": "address"
        }
      ],
      "stateMutability": "view",
      "type": "function"
    },
    {
      "inputs": [
        {
          "internalType": "uint256",
          "name": "_fee",
          "type": "uint256"
        }
      ],
      "name": "setEarlyWithdrawFee",
      "outputs": [],
      "stateMutability": "nonpayable",
      "type": "function"
    },
    {
      "inputs": [
        {
          "internalType": "uint256",
          "name": "_minStakePeriod",
          "type": "uint256"
        }
      ],
      "name": "setMinStakePeriod",
      "outputs": [],
      "stateMutability": "nonpayable",
      "type": "function"
    },
    {
      "inputs": [
        {
          "internalType": "uint256",
          "name": "_rewardPerSecond",
          "type": "uint256"
        }
      ],
      "name": "setRewardPerSecond",
      "outputs": [],
      "stateMutability": "nonpayable",
      "type": "function"
    },
    {
      "inputs": [
        {
          "internalType": "uint256",
          "name": "amount",
          "type": "uint256"
        }
      ],
      "name": "stake",
      "outputs": [],
      "stateMutability": "nonpayable",
      "type": "function"
    },
    {
      "inputs": [
        {
          "internalType": "address",
          "name": "",
          "type": "address"
        }
      ],
      "name": "stakes",
      "outputs": [
        {
          "internalType": "uint256",
          "name": "amount",
          "type": "uint256"
        },
        {
          "internalType": "uint256",
          "name": "rewardDebt",
          "type": "uint256"
        },
        {
          "internalType": "uint256",
          "name": "stakedAt",
          "type": "uint256"
        },
        {
          "internalType": "uint256",
          "name": "lastClaimAt",
          "type": "uint256"
        }
      ],
      "stateMutability": "view",
      "type": "function"
    },
    {
      "inputs": [],
      "name": "stakingToken",
      "outputs": [
        {
          "internalType": "contract IERC20",
          "name": "",
          "type": "address"
        }
      ],
      "stateMutability": "view",
      "type": "function"
    },
    {
      "inputs": [],
      "name": "totalStaked",
      "outputs": [
        {
          "internalType": "uint256",
          "name": "",
          "type": "uint256"
        }
      ],
      "stateMutability": "view",
      "type": "function"
    },
    {
      "inputs": [
        {
          "internalType": "address",
          "name": "newOwner",
          "type": "address"
        }
      ],
      "name": "transferOwnership",
      "outputs": [],
      "stateMutability": "nonpayable",
      "type": "function"
    },
    {
      "inputs": [
        {
          "internalType": "uint256",
          "name": "amount",
          "type": "uint256"
        }
      ],
      "name": "unstake",
      "outputs": [],
      "stateMutability": "nonpayable",
      "type": "function"
    },
    {
      "inputs": [],
      "name": "updatePool",
      "outputs": [],
      "stateMutability": "nonpayable",
      "type": "function"
    },
    {
      "inputs": [
        {
          "internalType": "uint256",
          "name": "amount",
          "type": "uint256"
        }
      ],
      "name": "withdrawExcessRewards",
      "outputs": [],
      "stateMutability": "nonpayable",
      "type": "function"
    }
  ],
  "bytecode": "0x608060405262093a806009556101f4600a5534801561001d57600080fd5b5060405161127d38038061127d83398101604081905261003c91610111565b338061006257604051631e4fbdf760e01b81526000600482015260240160405180910390fd5b61006b816100a5565b5060018055600280546001600160a01b039384166001600160a01b0319918216179091556003805492909316911617905542600855610144565b600080546001600160a01b038381166001600160a01b0319831681178455604051919092169283917f8be0079c531659141344cd1fd0a4f28419497f9722a3daafe3b4186f6b6457e09190a35050565b80516001600160a01b038116811461010c57600080fd5b919050565b6000806040838503121561012457600080fd5b61012d836100f5565b915061013b602084016100f5565b90509250929050565b61112a806101536000396000f3fe608060405234801561001057600080fd5b50600436106101585760003560e01c80638f10369a116100c3578063c22982f41161007c578063c22982f4146102cd578063d84f2bc6146102e0578063db2e21bc146102e9578063e3161ddd146102f1578063f2fde38b146102f9578063f7c618c11461030c57600080fd5b80638f10369a1461028e5780639231cf7414610297578063939d6237146102a05780639a79d32b146102a9578063a694fc3a146102b1578063a80a7882146102c457600080fd5b806366da58151161011557806366da58151461021b578063715018a61461022e57806372f702f314610236578063817b1cd2146102615780638bdf67f21461026a5780638da5cb5b1461027d57600080fd5b806316934fc41461015d5780632e17de78146101b757806331d7a262146101cc57806336a79f00146101ed578063372500ab14610200578063499b86d814610208575b600080fd5b61019261016b366004611017565b60046020526000908152604090208054600182015460028301546003909301549192909184565b6040805194855260208501939093529183015260608201526080015b60405180910390f35b6101ca6101c5366004611047565b61031f565b005b6101df6101da366004611017565b61059b565b6040519081526020016101ae565b6101ca6101fb366004611047565b610664565b6101ca61077b565b6101ca610216366004611047565b6108cb565b6101ca610229366004611047565b61090f565b6101ca610954565b600254610249906001600160a01b031681565b6040516001600160a01b0390911681526020016101ae565b6101df60055481565b6101ca610278366004611047565b610966565b6000546001600160a01b0316610249565b6101df60065481565b6101df60085481565b6101df60075481565b6101df610986565b6101ca6102bf366004611047565b6109ce565b6101df600a5481565b6101ca6102db366004611047565b610b7f565b6101df60095481565b6101ca610bfd565b6101ca610ccd565b6101ca610307366004611017565b610d47565b600354610249906001600160a01b031681565b610327610d82565b336000908152600460205260409020805482111561038c5760405162461bcd60e51b815260206004820152601a60248201527f496e73756666696369656e74207374616b656420616d6f756e7400000000000060448201526064015b60405180910390fd5b600082116103dc5760405162461bcd60e51b815260206004820152601d60248201527f416d6f756e74206d7573742062652067726561746572207468616e20300000006044820152606401610383565b6103e4610ccd565b6000816001015464e8d4a5100060075484600001546104039190611076565b61040d9190611093565b61041791906110b5565b9050801561045f576104293382610dac565b60405181815233907f106f923f993c2149d49b4255ff723acafa1f2d94393f561d3eda32ae348f72419060200160405180910390a25b6000600954836002015461047391906110c8565b42101561049857612710600a548561048b9190611076565b6104959190611093565b90505b60006104a482866110b5565b9050848460000160008282546104ba91906110b5565b9091555050600754845464e8d4a51000916104d491611076565b6104de9190611093565b600185015583546000036104f457600060028501555b846005600082825461050691906110b5565b9091555050600254610522906001600160a01b03163383610e8b565b81156105505761055061053d6000546001600160a01b031690565b6002546001600160a01b03169084610e8b565b604080518681526020810184905233917f7fc4727e062e336010f2c282598ef5f14facb3de68cf8195c2f23e1454b2b74e910160405180910390a25050505061059860018055565b50565b6001600160a01b0381166000908152600460205260408120805482036105c45750600092915050565b600754600854421180156105da57506000600554115b1561062f576000600854426105ef91906110b5565b90506000600654826106019190611076565b60055490915061061664e8d4a5100083611076565b6106209190611093565b61062a90846110c8565b925050505b6001820154825464e8d4a5100090610648908490611076565b6106529190611093565b61065c91906110b5565b949350505050565b61066c610eea565b6003546040516370a0823160e01b81523060048201526000916001600160a01b0316906370a0823190602401602060405180830381865afa1580156106b5573d6000803e3d6000fd5b505050506040513d601f19601f820116820180604052508101906106d991906110db565b6002546003549192506001600160a01b0390811691160361074f5760055461070183836110b5565b101561074f5760405162461bcd60e51b815260206004820152601d60248201527f43616e6e6f74207769746864726177207374616b656420746f6b656e730000006044820152606401610383565b6107776107646000546001600160a01b031690565b6003546001600160a01b03169084610e8b565b5050565b610783610d82565b61078b610ccd565b33600090815260046020526040902080546107d95760405162461bcd60e51b815260206004820152600e60248201526d139bc81cdd185ad948199bdd5b9960921b6044820152606401610383565b6000816001015464e8d4a5100060075484600001546107f89190611076565b6108029190611093565b61080c91906110b5565b9050600081116108545760405162461bcd60e51b81526020600482015260136024820152724e6f207265776172647320746f20636c61696d60681b6044820152606401610383565b600754825464e8d4a510009161086991611076565b6108739190611093565b60018301554260038301556108883382610dac565b60405181815233907f106f923f993c2149d49b4255ff723acafa1f2d94393f561d3eda32ae348f7241906020015b60405180910390a250506108c960018055565b565b6108d3610eea565b60098190556040518181527f1725ed9ed9a12d0ce92132a82d3f85ccc777ce267226f7faa69507b2df14c79e906020015b60405180910390a150565b610917610eea565b61091f610ccd565b60068190556040518181527f41d466ebd06fb97e7786086ac8b69b7eb7da798592036251291d34e9791cde0190602001610904565b61095c610eea565b6108c96000610f17565b61096e610eea565b600354610598906001600160a01b0316333084610f67565b60006005546000036109985750600090565b60006006546301e133806109ac9190611076565b6005549091506109be82612710611076565b6109c89190611093565b91505090565b6109d6610d82565b60008111610a265760405162461bcd60e51b815260206004820152601d60248201527f416d6f756e74206d7573742062652067726561746572207468616e20300000006044820152606401610383565b610a2e610ccd565b336000908152600460205260409020805415610ac1576000816001015464e8d4a510006007548460000154610a639190611076565b610a6d9190611093565b610a7791906110b5565b90508015610abf57610a893382610dac565b60405181815233907f106f923f993c2149d49b4255ff723acafa1f2d94393f561d3eda32ae348f72419060200160405180910390a25b505b600254610ad9906001600160a01b0316333085610f67565b81816000016000828254610aed91906110c8565b9091555050600754815464e8d4a5100091610b0791611076565b610b119190611093565b60018201556002810154600003610b29574260028201555b8160056000828254610b3b91906110c8565b909155505060405182815233907f9e71bc8eea02a63969f509818f2dafb9254532904319f9dbda79b67bd34a5f3d9060200160405180910390a25061059860018055565b610b87610eea565b6107d0811115610bc85760405162461bcd60e51b815260206004820152600c60248201526b08ccaca40e8dede40d0d2ced60a31b6044820152606401610383565b600a8190556040518181527f864cabeb83698b194f9b49e7f58558d83cd8e635575ba53f511f37c834ece71c90602001610904565b610c05610d82565b336000908152600460205260409020805480610c545760405162461bcd60e51b815260206004820152600e60248201526d139bc81cdd185ad948199bdd5b9960921b6044820152606401610383565b6000808355600183018190556002830181905560058054839290610c799084906110b5565b9091555050600254610c95906001600160a01b03163383610e8b565b604080518281526000602082015233917f7fc4727e062e336010f2c282598ef5f14facb3de68cf8195c2f23e1454b2b74e91016108b6565b6008544211610cd857565b600554600003610ce85742600855565b600060085442610cf891906110b5565b9050600060065482610d0a9190611076565b600554909150610d1f64e8d4a5100083611076565b610d299190611093565b60076000828254610d3a91906110c8565b9091555050426008555050565b610d4f610eea565b6001600160a01b038116610d7957604051631e4fbdf760e01b815260006004820152602401610383565b61059881610f17565b600260015403610da557604051633ee5aeb560e01b815260040160405180910390fd5b6002600155565b6003546040516370a0823160e01b81523060048201526000916001600160a01b0316906370a0823190602401602060405180830381865afa158015610df5573d6000803e3d6000fd5b505050506040513d601f19601f82011682018060405250810190610e1991906110db565b6002546003549192506001600160a01b03908116911603610e54576005548111610e44576000610e51565b600554610e5190826110b5565b90505b80821115610e7857600354610e73906001600160a01b03168483610e8b565b505050565b600354610e73906001600160a01b031684845b6040516001600160a01b03838116602483015260448201839052610e7391859182169063a9059cbb906064015b604051602081830303815290604052915060e01b6020820180516001600160e01b038381831617835250505050610fa6565b6000546001600160a01b031633146108c95760405163118cdaa760e01b8152336004820152602401610383565b600080546001600160a01b038381166001600160a01b0319831681178455604051919092169283917f8be0079c531659141344cd1fd0a4f28419497f9722a3daafe3b4186f6b6457e09190a35050565b6040516001600160a01b038481166024830152838116604483015260648201839052610fa09186918216906323b872dd90608401610eb8565b50505050565b600080602060008451602086016000885af180610fc9576040513d6000823e3d81fd5b50506000513d91508115610fe1578060011415610fee565b6001600160a01b0384163b155b15610fa057604051635274afe760e01b81526001600160a01b0385166004820152602401610383565b60006020828403121561102957600080fd5b81356001600160a01b038116811461104057600080fd5b9392505050565b60006020828403121561105957600080fd5b5035919050565b634e487b7160e01b600052601160045260246000fd5b808202811582820484141761108d5761108d611060565b92915050565b6000826110b057634e487b7160e01b600052601260045260246000fd5b500490565b8181038181111561108d5761108d611060565b8082018082111561108d5761108d611060565b6000602082840312156110ed57600080fd5b505191905056fea264697066735822122017145ceb11b504b036d572d524f7567983877aeb23b7fefdacd7fef3baa7014464736f6c63430008140033",
  "linkReferences": {},
  "deployedLinkReferences": {}
}