{
  "_format": "hh-sol-artifact-1",
  "contractName": "ArcVault",
  "sourceName": "contracts/ArcVault.sol",
  "abi": [
    {
      "inputs": [
        {
          "internalType": "address",
          "name": "_stakingToken",
          "type": "address"
        },
        {
          "internalType": "address",
          "name": "_rewardToken",
          "type": "address"
        }
      ],
      "stateMutability": "nonpayable",
      "type": "constructor"
    },
    {
      "inputs": [
        {
          "internalType": "address",
          "name": "owner",
          "type": "address"
        }
      ],
      "name": "OwnableInvalidOwner",
      "type": "error"
    },
    {
      "inputs": [
        {
          "internalType": "address",
          "name": "account",
          "type": "address"
        }
      ],
      "name": "OwnableUnauthorizedAccount",
      "type": "error"
    },
    {
      "inputs": [],
      "name": "ReentrancyGuardReentrantCall",
      "type": "error"
    },
    {
      "inputs": [
        {
          "internalType": "address",
          "name": "token",
          "type": "address"
        }
      ],
      "name": "SafeERC20FailedOperation",
      "type": "error"
    },
    {
      "anonymous": false,
      "inputs": [
        {
          "indexed": false,
          "internalType": "uint256",
          "name": "newFee",
          "type": "uint256"
        }
      ],
      "name": "EarlyWithdrawFeeUpdated",
      "type": "event"
    },
    {
      "anonymous": false,
      "inputs": [
        {
          "indexed": false,
          "internalType": "uint256",
          "name": "newPeriod",
          "type": "uint256"
        }
      ],
      "name": "MinStakePeriodUpdated",
      "type": "event"
    },
    {
      "anonymous": false,
      "inputs": [
        {
          "indexed": true,
          "internalType": "address",
          "name": "previousOwner",
          "type": "address"
        },
        {
          "indexed": true,
          "internalType": "address",
          "name": "newOwner",
          "type": "address"
        }
      ],
      "name": "OwnershipTransferred",
      "type": "event"
    },
    {
      "anonymous": false,
      "inputs": [
        {
          "indexed": true,
          "internalType": "address",
          "name": "user",
          "type": "address"
        },
        {
          "indexed": false,
          "internalType": "uint256",
          "name": "amount",
          "type": "uint256"
        }
      ],
      "name": "RewardClaimed",
      "type": "event"
    },
    {
      "anonymous": false,
      "inputs": [
        {
          "indexed": false,
          "internalType": "uint256",
          "name": "newRate",
          "type": "uint256"
        }
      ],
      "name": "RewardRateUpdated",
      "type": "event"
    },
    {
      "anonymous": false,
      "inputs": [
        {
          "indexed": true,
          "internalType": "address",
          "name": "user",
          "type": "address"
        },
        {
          "indexed": false,
          "internalType": "uint256",
          "name": "amount",
          "type": "uint256"
        }
      ],
      "name": "Staked",
      "type": "event"
    },
    {
      "anonymous": false,
      "inputs": [
        {
          "indexed": true,
          "internalType": "address",
          "name": "user",
          "type": "address"
        },
        {
          "indexed": false,
          "internalType": "uint256",
          "name": "amount",
          "type": "uint256"
        },
        {
          "indexed": false,
          "internalType": "uint256",
          "name": "fee",
          "type": "uint256"
        }
      ],
      "name": "Unstaked",
      "type": "event"
    },
    {
      "inputs": [],
      "name": "accRewardPerShare",
      "outputs": [
        {
          "internalType": "uint256",
          "name": "",
          "type": "uint256"
        }
      ],
      "stateMutability": "view",
      "type": "function"
    },
    {
      "inputs": [],
      "name": "claimRewards",
      "outputs": [],
      "stateMutability": "nonpayable",
      "type": "function"
    },
    {
      "inputs": [],
      "name": "currentAPY",
      "outputs": [
        {
          "internalType": "uint256",
          "name": "",
          "type": "uint256"
        }
      ],
      "stateMutability": "view",
      "type": "function"
    },
    {
      "inputs": [
        {
          "internalType": "uint256",
          "name": "amount",
          "type": "uint256"
        }
      ],
      "name": "depositRewards",
      "outputs": [],
      "stateMutability": "nonpayable",
      "type": "function"
    },
    {
      "inputs": [],
      "name": "earlyWithdrawFee",
      "outputs": [
        {
          "internalType": "uint256",
          "name": "",
          "type": "uint256"
        }
      ],
      "stateMutability": "view",
      "type": "function"
    },
    {
      "inputs": [],
      "name": "emergencyWithdraw",
      "outputs": [],
      "stateMutability": "nonpayable",
      "type": "function"
    },
    {
      "inputs": [],
      "name": "lastRewardTime",
      "outputs": [
        {
          "internalType": "uint256",
          "name": "",
          "type": "uint256"
        }
      ],
      "stateMutability": "view",
      "type": "function"
    },
    {
      "inputs": [],
      "name": "minStakePeriod",
      "outputs": [
        {
          "internalType": "uint256",
          "name": "",
          "type": "uint256"
        }
      ],
      "stateMutability": "view",
      "type": "function"
    },
    {
      "inputs": [],
      "name": "owner",
      "outputs": [
        {
          "internalType": "address",
          "name": "",
          "type": "address"
        }
      ],
      "stateMutability": "view",
      "type": "function"
    },
    {
      "inputs": [
        {
          "internalType": "address",
          "name": "user",
          "type": "address"
        }
      ],
      "name": "pendingRewards",
      "outputs": [
        {
          "internalType": "uint256",
          "name": "",
          "type": "uint256"
        }
      ],
      "stateMutability": "view",
      "type": "function"
    },
    {
      "inputs": [],
      "name": "renounceOwnership",
      "outputs": [],
      "stateMutability": "nonpayable",
      "type": "function"
    },
    {
      "inputs": [],
      "name": "rewardPerSecond",
      "outputs": [
        {
          "internalType": "uint256",
          "name": "",
          "type": "uint256"
        }
      ],
      "stateMutability": "view",
      "type": "function"
    },
    {
      "inputs": [],
      "name": "rewardToken",
      "outputs": [
        {
          "internalType": "contract IERC20",
          "name": "",
          "type": "address"
        }
      ],
      "stateMutability": "view",
      "type": "function"
    },
    {
      "inputs": [
        {
          "internalType": "uint256",
          "name": "_fee",
          "type": "uint256"
        }
      ],
      "name": "setEarlyWithdrawFee",
      "outputs": [],
      "stateMutability": "nonpayable",
      "type": "function"
    },
    {
      "inputs": [
        {
          "internalType": "uint256",
          "name": "_minStakePeriod",
          "type": "uint256"
        }
      ],
      "name": "setMinStakePeriod",
      "outputs": [],
      "stateMutability": "nonpayable",
      "type": "function"
    },
    {
      "inputs": [
        {
          "internalType": "uint256",
          "name": "_rewardPerSecond",
          "type": "uint256"
        }
      ],
      "name": "setRewardPerSecond",
      "outputs": [],
      "stateMutability": "nonpayable",
      "type": "function"
    },
    {
      "inputs": [
        {
          "internalType": "uint256",
          "name": "amount",
          "type": "uint256"
        }
      ],
      "name": "stake",
      "outputs": [],
      "stateMutability": "nonpayable",
      "type": "function"
    },
    {
      "inputs": [
        {
          "internalType": "address",
          "name": "",
          "type": "address"
        }
      ],
      "name": "stakes",
      "outputs": [
        {
          "internalType": "uint256",
          "name": "amount",
          "type": "uint256"
        },
        {
          "internalType": "uint256",
          "name": "rewardDebt",
          "type": "uint256"
        },
        {
          "internalType": "uint256",
          "name": "stakedAt",
          "type": "uint256"
        },
        {
          "internalType": "uint256",
          "name": "lastClaimAt",
          "type": "uint256"
        }
      ],
      "stateMutability": "view",
      "type": "function"
    },
    {
      "inputs": [],
      "name": "stakingToken",
      "outputs": [
        {
          "internalType": "contract IERC20",
          "name": "",
          "type": "address"
        }
      ],
      "stateMutability": "view",
      "type": "function"
    },
    {
      "inputs": [],
      "name": "totalStaked",
      "outputs": [
        {
          "internalType": "uint256",
          "name": "",
          "type": "uint256"
        }
      ],
      "stateMutability": "view",
      "type": "function"
    },
    {
      "inputs": [
        {
          "internalType": "address",
          "name": "newOwner",
          "type": "address"
        }
      ],
      "name": "transferOwnership",
      "outputs": [],
      "stateMutability": "nonpayable",
      "type": "function"
    },
    {
      "inputs": [
        {
          "internalType": "uint256",
          "name": "amount",
          "type": "uint256"
        }
      ],
      "name": "unstake",
      "outputs": [],
      "stateMutability": "nonpayable",
      "type": "function"
    },
    {
      "inputs": [],
      "name": "updatePool",
      "outputs": [],
      "stateMutability": "nonpayable",
      "type": "function"
    },
    {
      "inputs": [
        {
          "internalType": "uint256",
          "name": "amount",
          "type": "uint256"
        }
      ],
      "name": "withdrawExcessRewards",
      "outputs": [],
      "stateMutability": "nonpayable",
      "type": "function"
    }
  ],
  "bytecode": "0x608060405262093a806009556101f4600a5534801561001c575f80fd5b5060405161122838038061122883398101604081905261003b9161010d565b338061006057604051631e4fbdf760e01b81525f600482015260240160405180910390fd5b610069816100a3565b5060018055600280546001600160a01b039384166001600160a01b031991821617909155600380549290931691161790554260085561013e565b5f80546001600160a01b038381166001600160a01b0319831681178455604051919092169283917f8be0079c531659141344cd1fd0a4f28419497f9722a3daafe3b4186f6b6457e09190a35050565b80516001600160a01b0381168114610108575f80fd5b919050565b5f806040838503121561011e575f80fd5b610127836100f2565b9150610135602084016100f2565b90509250929050565b6110dd8061014b5f395ff3fe608060405234801561000f575f80fd5b5060043610610153575f3560e01c80638f10369a116100bf578063c22982f411610079578063c22982f4146102c5578063d84f2bc6146102d8578063db2e21bc146102e1578063e3161ddd146102e9578063f2fde38b146102f1578063f7c618c114610304575f80fd5b80638f10369a146102865780639231cf741461028f578063939d6237146102985780639a79d32b146102a1578063a694fc3a146102a9578063a80a7882146102bc575f80fd5b806366da58151161011057806366da581514610214578063715018a61461022757806372f702f31461022f578063817b1cd21461025a5780638bdf67f2146102635780638da5cb5b14610276575f80fd5b806316934fc4146101575780632e17de78146101b057806331d7a262146101c557806336a79f00146101e6578063372500ab146101f9578063499b86d814610201575b5f80fd5b61018b610165366004610fd6565b60046020525f908152604090208054600182015460028301546003909301549192909184565b6040805194855260208501939093529183015260608201526080015b60405180910390f35b6101c36101be366004611003565b610317565b005b6101d86101d3366004610fd6565b610587565b6040519081526020016101a7565b6101c36101f4366004611003565b61064b565b6101c361075e565b6101c361020f366004611003565b6108aa565b6101c3610222366004611003565b6108ee565b6101c3610933565b600254610242906001600160a01b031681565b6040516001600160a01b0390911681526020016101a7565b6101d860055481565b6101c3610271366004611003565b610944565b5f546001600160a01b0316610242565b6101d860065481565b6101d860085481565b6101d860075481565b6101d8610964565b6101c36102b7366004611003565b6109a8565b6101d8600a5481565b6101c36102d3366004611003565b610b51565b6101d860095481565b6101c3610bcf565b6101c3610c9c565b6101c36102ff366004610fd6565b610d12565b600354610242906001600160a01b031681565b61031f610d4c565b335f90815260046020526040902080548211156103835760405162461bcd60e51b815260206004820152601a60248201527f496e73756666696369656e74207374616b656420616d6f756e7400000000000060448201526064015b60405180910390fd5b5f82116103d25760405162461bcd60e51b815260206004820152601d60248201527f416d6f756e74206d7573742062652067726561746572207468616e2030000000604482015260640161037a565b6103da610c9c565b5f816001015464e8d4a51000600754845f01546103f7919061102e565b610401919061104b565b61040b919061106a565b905080156104535761041d3382610d76565b60405181815233907f106f923f993c2149d49b4255ff723acafa1f2d94393f561d3eda32ae348f72419060200160405180910390a25b5f6009548360020154610466919061107d565b42101561048b57612710600a548561047e919061102e565b610488919061104b565b90505b5f610496828661106a565b905084845f015f8282546104aa919061106a565b9091555050600754845464e8d4a51000916104c49161102e565b6104ce919061104b565b600185015583545f036104e2575f60028501555b8460055f8282546104f3919061106a565b909155505060025461050f906001600160a01b03163383610e51565b811561053c5761053c6105295f546001600160a01b031690565b6002546001600160a01b03169084610e51565b604080518681526020810184905233917f7fc4727e062e336010f2c282598ef5f14facb3de68cf8195c2f23e1454b2b74e910160405180910390a25050505061058460018055565b50565b6001600160a01b0381165f908152600460205260408120805482036105ae57505f92915050565b600754600854421180156105c357505f600554115b15610616575f600854426105d7919061106a565b90505f600654826105e8919061102e565b6005549091506105fd64e8d4a510008361102e565b610607919061104b565b610611908461107d565b925050505b6001820154825464e8d4a510009061062f90849061102e565b610639919061104b565b610643919061106a565b949350505050565b610653610eb0565b6003546040516370a0823160e01b81523060048201525f916001600160a01b0316906370a0823190602401602060405180830381865afa158015610699573d5f803e3d5ffd5b505050506040513d601f19601f820116820180604052508101906106bd9190611090565b6002546003549192506001600160a01b03908116911603610733576005546106e5838361106a565b10156107335760405162461bcd60e51b815260206004820152601d60248201527f43616e6e6f74207769746864726177207374616b656420746f6b656e73000000604482015260640161037a565b61075a6107475f546001600160a01b031690565b6003546001600160a01b03169084610e51565b5050565b610766610d4c565b61076e610c9c565b335f90815260046020526040902080546107bb5760405162461bcd60e51b815260206004820152600e60248201526d139bc81cdd185ad948199bdd5b9960921b604482015260640161037a565b5f816001015464e8d4a51000600754845f01546107d8919061102e565b6107e2919061104b565b6107ec919061106a565b90505f81116108335760405162461bcd60e51b81526020600482015260136024820152724e6f207265776172647320746f20636c61696d60681b604482015260640161037a565b600754825464e8d4a51000916108489161102e565b610852919061104b565b60018301554260038301556108673382610d76565b60405181815233907f106f923f993c2149d49b4255ff723acafa1f2d94393f561d3eda32ae348f7241906020015b60405180910390a250506108a860018055565b565b6108b2610eb0565b60098190556040518181527f1725ed9ed9a12d0ce92132a82d3f85ccc777ce267226f7faa69507b2df14c79e906020015b60405180910390a150565b6108f6610eb0565b6108fe610c9c565b60068190556040518181527f41d466ebd06fb97e7786086ac8b69b7eb7da798592036251291d34e9791cde01906020016108e3565b61093b610eb0565b6108a85f610edc565b61094c610eb0565b600354610584906001600160a01b0316333084610f2b565b5f6005545f0361097357505f90565b5f6006546301e13380610986919061102e565b6005549091506109988261271061102e565b6109a2919061104b565b91505090565b6109b0610d4c565b5f81116109ff5760405162461bcd60e51b815260206004820152601d60248201527f416d6f756e74206d7573742062652067726561746572207468616e2030000000604482015260640161037a565b610a07610c9c565b335f908152600460205260409020805415610a97575f816001015464e8d4a51000600754845f0154610a39919061102e565b610a43919061104b565b610a4d919061106a565b90508015610a9557610a5f3382610d76565b60405181815233907f106f923f993c2149d49b4255ff723acafa1f2d94393f561d3eda32ae348f72419060200160405180910390a25b505b600254610aaf906001600160a01b0316333085610f2b565b81815f015f828254610ac1919061107d565b9091555050600754815464e8d4a5100091610adb9161102e565b610ae5919061104b565b600182015560028101545f03610afc574260028201555b8160055f828254610b0d919061107d565b909155505060405182815233907f9e71bc8eea02a63969f509818f2dafb9254532904319f9dbda79b67bd34a5f3d9060200160405180910390a25061058460018055565b610b59610eb0565b6107d0811115610b9a5760405162461bcd60e51b815260206004820152600c60248201526b08ccaca40e8dede40d0d2ced60a31b604482015260640161037a565b600a8190556040518181527f864cabeb83698b194f9b49e7f58558d83cd8e635575ba53f511f37c834ece71c906020016108e3565b610bd7610d4c565b335f908152600460205260409020805480610c255760405162461bcd60e51b815260206004820152600e60248201526d139bc81cdd185ad948199bdd5b9960921b604482015260640161037a565b5f808355600183018190556002830181905560058054839290610c4990849061106a565b9091555050600254610c65906001600160a01b03163383610e51565b604080518281525f602082015233917f7fc4727e062e336010f2c282598ef5f14facb3de68cf8195c2f23e1454b2b74e9101610895565b6008544211610ca757565b6005545f03610cb65742600855565b5f60085442610cc5919061106a565b90505f60065482610cd6919061102e565b600554909150610ceb64e8d4a510008361102e565b610cf5919061104b565b60075f828254610d05919061107d565b9091555050426008555050565b610d1a610eb0565b6001600160a01b038116610d4357604051631e4fbdf760e01b81525f600482015260240161037a565b61058481610edc565b600260015403610d6f57604051633ee5aeb560e01b815260040160405180910390fd5b6002600155565b6003546040516370a0823160e01b81523060048201525f916001600160a01b0316906370a0823190602401602060405180830381865afa158015610dbc573d5f803e3d5ffd5b505050506040513d601f19601f82011682018060405250810190610de09190611090565b6002546003549192506001600160a01b03908116911603610e1a576005548111610e0a575f610e17565b600554610e17908261106a565b90505b80821115610e3e57600354610e39906001600160a01b03168483610e51565b505050565b600354610e39906001600160a01b031684845b6040516001600160a01b03838116602483015260448201839052610e3991859182169063a9059cbb906064015b604051602081830303815290604052915060e01b6020820180516001600160e01b038381831617835250505050610f6a565b5f546001600160a01b031633146108a85760405163118cdaa760e01b815233600482015260240161037a565b5f80546001600160a01b038381166001600160a01b0319831681178455604051919092169283917f8be0079c531659141344cd1fd0a4f28419497f9722a3daafe3b4186f6b6457e09190a35050565b6040516001600160a01b038481166024830152838116604483015260648201839052610f649186918216906323b872dd90608401610e7e565b50505050565b5f8060205f8451602086015f885af180610f89576040513d5f823e3d81fd5b50505f513d91508115610fa0578060011415610fad565b6001600160a01b0384163b155b15610f6457604051635274afe760e01b81526001600160a01b038516600482015260240161037a565b5f60208284031215610fe6575f80fd5b81356001600160a01b0381168114610ffc575f80fd5b9392505050565b5f60208284031215611013575f80fd5b5035919050565b634e487b7160e01b5f52601160045260245ffd5b80820281158282048414176110455761104561101a565b92915050565b5f8261106557634e487b7160e01b5f52601260045260245ffd5b500490565b818103818111156110455761104561101a565b808201808211156110455761104561101a565b5f602082840312156110a0575f80fd5b505191905056fea264697066735822122077dff09effda51c9170d2021c3bb3deed64feefa31dc48f48a92d2b22113e75e64736f6c634300081a0033",
  "linkReferences": {},
  "deployedLinkReferences": {}
}