{
  "_format": "hh-sol-artifact-1",
  "contractName": "ArcMarketplace",
  "sourceName": "contracts/ArcMarketplace.sol",
  "abi": [
    {
      "inputs": [],
      "stateMutability": "nonpayable",
      "type": "constructor"
    },
    {
      "inputs": [
        {
          "internalType": "address",
          "name": "owner",
          "type": "address"
        }
      ],
      "name": "OwnableInvalidOwner",
      "type": "error"
    },
    {
      "inputs": [
        {
          "internalType": "address",
          "name": "account",
          "type": "address"
        }
      ],
      "name": "OwnableUnauthorizedAccount",
      "type": "error"
    },
    {
      "inputs": [],
      "name": "ReentrancyGuardReentrantCall",
      "type": "error"
    },
    {
      "anonymous": false,
      "inputs": [
        {
          "indexed": false,
          "internalType": "uint256",
          "name": "newFee",
          "type": "uint256"
        }
      ],
      "name": "FeeUpdated",
      "type": "event"
    },
    {
      "anonymous": false,
      "inputs": [
        {
          "indexed": true,
          "internalType": "uint256",
          "name": "listingId",
          "type": "uint256"
        },
        {
          "indexed": true,
          "internalType": "address",
          "name": "seller",
          "type": "address"
        },
        {
          "indexed": true,
          "internalType": "address",
          "name": "nftContract",
          "type": "address"
        },
        {
          "indexed": false,
          "internalType": "uint256",
          "name": "tokenId",
          "type": "uint256"
        },
        {
          "indexed": false,
          "internalType": "uint256",
          "name": "price",
          "type": "uint256"
        }
      ],
      "name": "Listed",
      "type": "event"
    },
    {
      "anonymous": false,
      "inputs": [
        {
          "indexed": true,
          "internalType": "uint256",
          "name": "listingId",
          "type": "uint256"
        }
      ],
      "name": "ListingCancelled",
      "type": "event"
    },
    {
      "anonymous": false,
      "inputs": [
        {
          "indexed": true,
          "internalType": "address",
          "name": "previousOwner",
          "type": "address"
        },
        {
          "indexed": true,
          "internalType": "address",
          "name": "newOwner",
          "type": "address"
        }
      ],
      "name": "OwnershipTransferred",
      "type": "event"
    },
    {
      "anonymous": false,
      "inputs": [
        {
          "indexed": true,
          "internalType": "uint256",
          "name": "listingId",
          "type": "uint256"
        },
        {
          "indexed": false,
          "internalType": "uint256",
          "name": "newPrice",
          "type": "uint256"
        }
      ],
      "name": "PriceUpdated",
      "type": "event"
    },
    {
      "anonymous": false,
      "inputs": [
        {
          "indexed": true,
          "internalType": "uint256",
          "name": "listingId",
          "type": "uint256"
        },
        {
          "indexed": true,
          "internalType": "address",
          "name": "buyer",
          "type": "address"
        },
        {
          "indexed": true,
          "internalType": "address",
          "name": "seller",
          "type": "address"
        },
        {
          "indexed": false,
          "internalType": "uint256",
          "name": "price",
          "type": "uint256"
        },
        {
          "indexed": false,
          "internalType": "uint256",
          "name": "fee",
          "type": "uint256"
        }
      ],
      "name": "Sale",
      "type": "event"
    },
    {
      "inputs": [],
      "name": "MAX_FEE",
      "outputs": [
        {
          "internalType": "uint256",
          "name": "",
          "type": "uint256"
        }
      ],
      "stateMutability": "view",
      "type": "function"
    },
    {
      "inputs": [
        {
          "internalType": "uint256",
          "name": "listingId",
          "type": "uint256"
        }
      ],
      "name": "buyNFT",
      "outputs": [],
      "stateMutability": "payable",
      "type": "function"
    },
    {
      "inputs": [
        {
          "internalType": "uint256",
          "name": "listingId",
          "type": "uint256"
        }
      ],
      "name": "cancelListing",
      "outputs": [],
      "stateMutability": "nonpayable",
      "type": "function"
    },
    {
      "inputs": [
        {
          "internalType": "uint256",
          "name": "offset",
          "type": "uint256"
        },
        {
          "internalType": "uint256",
          "name": "limit",
          "type": "uint256"
        }
      ],
      "name": "getActiveListings",
      "outputs": [
        {
          "components": [
            {
              "internalType": "address",
              "name": "seller",
              "type": "address"
            },
            {
              "internalType": "address",
              "name": "nftContract",
              "type": "address"
            },
            {
              "internalType": "uint256",
              "name": "tokenId",
              "type": "uint256"
            },
            {
              "internalType": "uint256",
              "name": "price",
              "type": "uint256"
            },
            {
              "internalType": "bool",
              "name": "isActive",
              "type": "bool"
            },
            {
              "internalType": "uint256",
              "name": "createdAt",
              "type": "uint256"
            }
          ],
          "internalType": "struct ArcMarketplace.Listing[]",
          "name": "",
          "type": "tuple[]"
        }
      ],
      "stateMutability": "view",
      "type": "function"
    },
    {
      "inputs": [
        {
          "internalType": "address",
          "name": "seller",
          "type": "address"
        }
      ],
      "name": "getSellerListings",
      "outputs": [
        {
          "internalType": "uint256[]",
          "name": "",
          "type": "uint256[]"
        }
      ],
      "stateMutability": "view",
      "type": "function"
    },
    {
      "inputs": [
        {
          "internalType": "address",
          "name": "nftContract",
          "type": "address"
        },
        {
          "internalType": "uint256",
          "name": "tokenId",
          "type": "uint256"
        },
        {
          "internalType": "uint256",
          "name": "price",
          "type": "uint256"
        }
      ],
      "name": "listNFT",
      "outputs": [
        {
          "internalType": "uint256",
          "name": "",
          "type": "uint256"
        }
      ],
      "stateMutability": "nonpayable",
      "type": "function"
    },
    {
      "inputs": [],
      "name": "listingCount",
      "outputs": [
        {
          "internalType": "uint256",
          "name": "",
          "type": "uint256"
        }
      ],
      "stateMutability": "view",
      "type": "function"
    },
    {
      "inputs": [
        {
          "internalType": "uint256",
          "name": "",
          "type": "uint256"
        }
      ],
      "name": "listings",
      "outputs": [
        {
          "internalType": "address",
          "name": "seller",
          "type": "address"
        },
        {
          "internalType": "address",
          "name": "nftContract",
          "type": "address"
        },
        {
          "internalType": "uint256",
          "name": "tokenId",
          "type": "uint256"
        },
        {
          "internalType": "uint256",
          "name": "price",
          "type": "uint256"
        },
        {
          "internalType": "bool",
          "name": "isActive",
          "type": "bool"
        },
        {
          "internalType": "uint256",
          "name": "createdAt",
          "type": "uint256"
        }
      ],
      "stateMutability": "view",
      "type": "function"
    },
    {
      "inputs": [],
      "name": "marketplaceFee",
      "outputs": [
        {
          "internalType": "uint256",
          "name": "",
          "type": "uint256"
        }
      ],
      "stateMutability": "view",
      "type": "function"
    },
    {
      "inputs": [],
      "name": "owner",
      "outputs": [
        {
          "internalType": "address",
          "name": "",
          "type": "address"
        }
      ],
      "stateMutability": "view",
      "type": "function"
    },
    {
      "inputs": [],
      "name": "paymentToken",
      "outputs": [
        {
          "internalType": "contract IERC20",
          "name": "",
          "type": "address"
        }
      ],
      "stateMutability": "view",
      "type": "function"
    },
    {
      "inputs": [],
      "name": "renounceOwnership",
      "outputs": [],
      "stateMutability": "nonpayable",
      "type": "function"
    },
    {
      "inputs": [
        {
          "internalType": "uint256",
          "name": "newFee",
          "type": "uint256"
        }
      ],
      "name": "setMarketplaceFee",
      "outputs": [],
      "stateMutability": "nonpayable",
      "type": "function"
    },
    {
      "inputs": [
        {
          "internalType": "address",
          "name": "token",
          "type": "address"
        }
      ],
      "name": "setPaymentToken",
      "outputs": [],
      "stateMutability": "nonpayable",
      "type": "function"
    },
    {
      "inputs": [
        {
          "internalType": "bool",
          "name": "_useNative",
          "type": "bool"
        }
      ],
      "name": "setUseNativeToken",
      "outputs": [],
      "stateMutability": "nonpayable",
      "type": "function"
    },
    {
      "inputs": [
        {
          "internalType": "address",
          "name": "newOwner",
          "type": "address"
        }
      ],
      "name": "transferOwnership",
      "outputs": [],
      "stateMutability": "nonpayable",
      "type": "function"
    },
    {
      "inputs": [
        {
          "internalType": "uint256",
          "name": "listingId",
          "type": "uint256"
        },
        {
          "internalType": "uint256",
          "name": "newPrice",
          "type": "uint256"
        }
      ],
      "name": "updatePrice",
      "outputs": [],
      "stateMutability": "nonpayable",
      "type": "function"
    },
    {
      "inputs": [],
      "name": "useNativeToken",
      "outputs": [
        {
          "internalType": "bool",
          "name": "",
          "type": "bool"
        }
      ],
      "stateMutability": "view",
      "type": "function"
    },
    {
      "inputs": [],
      "name": "withdrawFees",
      "outputs": [],
      "stateMutability": "nonpayable",
      "type": "function"
    }
  ],
  "bytecode": "0x608060405260fa6004556005805460ff60a01b1916600160a01b1790553480156026575f80fd5b503380604b57604051631e4fbdf760e01b81525f600482015260240160405180910390fd5b605281605b565b506001805560aa565b5f80546001600160a01b038381166001600160a01b0319831681178455604051919092169283917f8be0079c531659141344cd1fd0a4f28419497f9722a3daafe3b4186f6b6457e09190a35050565b6116a3806100b75f395ff3fe608060405260043610610110575f3560e01c80638232697a1161009d578063ad05f1b411610062578063ad05f1b4146102d8578063bc063e1a146102f7578063c128b2311461030c578063de74e57b14610338578063f2fde38b146103d2575f80fd5b80638232697a1461023957806382367b2d146102695780638da5cb5b146102885780639407ea98146102a4578063a9b07c26146102c3575f80fd5b80635f42da09116100e35780635f42da09146101985780636a166964146101c45780636a326ab1146101e7578063715018a6146102065780637b6272491461021a575f80fd5b80633013ce2914610114578063305a67a814610150578063476343ee1461017157806351ed828814610185575b5f80fd5b34801561011f575f80fd5b50600554610133906001600160a01b031681565b6040516001600160a01b0390911681526020015b60405180910390f35b34801561015b575f80fd5b5061016f61016a3660046113d0565b6103f1565b005b34801561017c575f80fd5b5061016f6104c3565b61016f6101933660046113d0565b61069e565b3480156101a3575f80fd5b506101b76101b23660046113fb565b610a8d565b604051610147919061141d565b3480156101cf575f80fd5b506101d960045481565b604051908152602001610147565b3480156101f2575f80fd5b5061016f6102013660046113fb565b610bdf565b348015610211575f80fd5b5061016f610c08565b348015610225575f80fd5b5061016f61023436600461146c565b610c19565b348015610244575f80fd5b5060055461025990600160a01b900460ff1681565b6040519015158152602001610147565b348015610274575f80fd5b5061016f610283366004611487565b610c3f565b348015610293575f80fd5b505f546001600160a01b0316610133565b3480156102af575f80fd5b5061016f6102be3660046113d0565b610d4a565b3480156102ce575f80fd5b506101d960035481565b3480156102e3575f80fd5b506101d96102f23660046114a7565b610dce565b348015610302575f80fd5b506101d96103e881565b348015610317575f80fd5b5061032b610326366004611487565b611109565b60405161014791906114d9565b348015610343575f80fd5b506103986103523660046113d0565b600260208190525f91825260409091208054600182015492820154600383015460048401546005909401546001600160a01b0393841695909316939192909160ff169086565b604080516001600160a01b0397881681529690951660208701529385019290925260608401521515608083015260a082015260c001610147565b3480156103dd575f80fd5b5061016f6103ec3660046113fb565b6112f1565b5f818152600260205260409020600481015460ff1661042b5760405162461bcd60e51b815260040161042290611557565b60405180910390fd5b80546001600160a01b031633148061044c57505f546001600160a01b031633145b6104895760405162461bcd60e51b815260206004820152600e60248201526d139bdd08185d5d1a1bdc9a5e995960921b6044820152606401610422565b60048101805460ff1916905560405182907f411aee90354c51b1b04cd563fcab2617142a9d50da19232d888547c8a1b7fd8a905f90a25050565b6104cb61132b565b600554600160a01b900460ff161561055b5747806105215760405162461bcd60e51b81526020600482015260136024820152724e6f206665657320746f20776974686472617760681b6044820152606401610422565b5f80546040516001600160a01b039091169183156108fc02918491818181858888f19350505050158015610557573d5f803e3d5ffd5b5050565b6005546040516370a0823160e01b81523060048201525f916001600160a01b0316906370a0823190602401602060405180830381865afa1580156105a1573d5f803e3d5ffd5b505050506040513d601f19601f820116820180604052508101906105c59190611583565b90505f811161060c5760405162461bcd60e51b81526020600482015260136024820152724e6f206665657320746f20776974686472617760681b6044820152606401610422565b6005546001600160a01b031663a9059cbb61062e5f546001600160a01b031690565b6040516001600160e01b031960e084901b1681526001600160a01b039091166004820152602481018490526044016020604051808303815f875af1158015610678573d5f803e3d5ffd5b505050506040513d601f19601f82011682018060405250810190610557919061159a565b565b6106a6611357565b5f818152600260205260409020600481015460ff166106d75760405162461bcd60e51b815260040161042290611557565b8054336001600160a01b03909116036107325760405162461bcd60e51b815260206004820152601760248201527f43616e6e6f742062757920796f7572206f776e204e46540000000000000000006044820152606401610422565b60038101546004545f906127109061074a90846115c9565b61075491906115e0565b90505f61076182846115ff565b600554909150600160a01b900460ff161561083657823410156107bd5760405162461bcd60e51b8152602060048201526014602482015273125b9cdd59999a58da595b9d081c185e5b595b9d60621b6044820152606401610422565b83546040516001600160a01b039091169082156108fc029083905f818181858888f193505050501580156107f3573d5f803e3d5ffd5b508234111561083157336108fc61080a85346115ff565b6040518115909202915f818181858888f1935050505015801561082f573d5f803e3d5ffd5b505b6109b6565b60055484546040516323b872dd60e01b81523360048201526001600160a01b039182166024820152604481018490529116906323b872dd906064016020604051808303815f875af115801561088d573d5f803e3d5ffd5b505050506040513d601f19601f820116820180604052508101906108b1919061159a565b6108fd5760405162461bcd60e51b815260206004820152601860248201527f5061796d656e7420746f2073656c6c6572206661696c656400000000000000006044820152606401610422565b6005546040516323b872dd60e01b8152336004820152306024820152604481018490526001600160a01b03909116906323b872dd906064016020604051808303815f875af1158015610951573d5f803e3d5ffd5b505050506040513d601f19601f82011682018060405250810190610975919061159a565b6109b65760405162461bcd60e51b8152602060048201526012602482015271119959481c185e5b595b9d0819985a5b195960721b6044820152606401610422565b600184015484546002860154604051632142170760e11b81526001600160a01b03928316600482015233602482015260448101919091529116906342842e0e906064015f604051808303815f87803b158015610a10575f80fd5b505af1158015610a22573d5f803e3d5ffd5b5050505060048401805460ff19169055835460408051858152602081018590526001600160a01b0390921691339188917ff3debaf22196a6ddf52a60fa71058cd7edf5e25bb98f4e96c994a5d4a9b0dd3e910160405180910390a450505050610a8a60018055565b50565b60605f60015b6003548111610af9575f818152600260205260409020546001600160a01b038581169116148015610ad457505f8181526002602052604090206004015460ff165b15610ae75781610ae381611612565b9250505b80610af181611612565b915050610a93565b505f8167ffffffffffffffff811115610b1457610b1461162a565b604051908082528060200260200182016040528015610b3d578160200160208202803683370190505b5090505f60015b6003548111158015610b5557508382105b15610bd5575f818152600260205260409020546001600160a01b038781169116148015610b9257505f8181526002602052604090206004015460ff165b15610bc35780838381518110610baa57610baa61163e565b602090810291909101015281610bbf81611612565b9250505b80610bcd81611612565b915050610b44565b5090949350505050565b610be761132b565b600580546001600160a81b0319166001600160a01b03909216919091179055565b610c1061132b565b61069c5f611381565b610c2161132b565b60058054911515600160a01b0260ff60a01b19909216919091179055565b5f828152600260205260409020600481015460ff16610c705760405162461bcd60e51b815260040161042290611557565b80546001600160a01b03163314610cba5760405162461bcd60e51b815260206004820152600e60248201526d2737ba103a34329039b2b63632b960911b6044820152606401610422565b5f8211610d095760405162461bcd60e51b815260206004820152601c60248201527f5072696365206d7573742062652067726561746572207468616e2030000000006044820152606401610422565b6003810182905560405182815283907f945c1c4e99aa89f648fbfe3df471b916f719e16d960fcec0737d4d56bd6968389060200160405180910390a2505050565b610d5261132b565b6103e8811115610d935760405162461bcd60e51b815260206004820152600c60248201526b08ccaca40e8dede40d0d2ced60a31b6044820152606401610422565b60048190556040518181527f8c4d35e54a3f2ef1134138fd8ea3daee6a3c89e10d2665996babdf70261e2c769060200160405180910390a150565b5f808211610e1e5760405162461bcd60e51b815260206004820152601c60248201527f5072696365206d7573742062652067726561746572207468616e2030000000006044820152606401610422565b6040516331a9108f60e11b815260048101849052849033906001600160a01b03831690636352211e90602401602060405180830381865afa158015610e65573d5f803e3d5ffd5b505050506040513d601f19601f82011682018060405250810190610e899190611652565b6001600160a01b031614610ecf5760405162461bcd60e51b815260206004820152600d60248201526c2737ba103a34329037bbb732b960991b6044820152606401610422565b60405163e985e9c560e01b81523360048201523060248201526001600160a01b0382169063e985e9c590604401602060405180830381865afa158015610f17573d5f803e3d5ffd5b505050506040513d601f19601f82011682018060405250810190610f3b919061159a565b80610fb5575060405163020604bf60e21b81526004810185905230906001600160a01b0383169063081812fc90602401602060405180830381865afa158015610f86573d5f803e3d5ffd5b505050506040513d601f19601f82011682018060405250810190610faa9190611652565b6001600160a01b0316145b6110015760405162461bcd60e51b815260206004820152601860248201527f4d61726b6574706c616365206e6f7420617070726f76656400000000000000006044820152606401610422565b60038054905f61101083611612565b90915550506040805160c081018252338082526001600160a01b0388811660208085018281528587018b8152606087018b81526001608089018181524260a08b01908152600380545f9081526002808a52908e90209c518d546001600160a01b0319908116918d16919091178e559751948d01805490981694909a169390931790955592519689019690965551878601555160048701805460ff191691151591909117905551600590950194909455905484518981529384018890529093919290917f723f73331eaee88eec7fc68ef60ab6ed15e4b90d0472b55eb92fa43910bab6dd910160405180910390a450506003549392505050565b60605f60015b6003548111611151575f8181526002602052604090206004015460ff161561113f578161113b81611612565b9250505b8061114981611612565b91505061110f565b505f848211611160575f61116a565b61116a85836115ff565b9050838111156111775750825b5f8167ffffffffffffffff8111156111915761119161162a565b6040519080825280602002602001820160405280156111ef57816020015b6040805160c0810182525f8082526020808301829052928201819052606082018190526080820181905260a082015282525f199092019101816111af5790505b5090505f8060015b600354811115801561120857508483105b156112e2575f8181526002602052604090206004015460ff16156112d05788821015611240578161123881611612565b9250506112d0565b5f81815260026020818152604092839020835160c08101855281546001600160a01b03908116825260018301541692810192909252918201549281019290925260038101546060830152600481015460ff16151560808301526005015460a082015284518590859081106112b6576112b661163e565b602002602001018190525082806112cc90611612565b9350505b806112da81611612565b9150506111f7565b50919450505050505b92915050565b6112f961132b565b6001600160a01b03811661132257604051631e4fbdf760e01b81525f6004820152602401610422565b610a8a81611381565b5f546001600160a01b0316331461069c5760405163118cdaa760e01b8152336004820152602401610422565b60026001540361137a57604051633ee5aeb560e01b815260040160405180910390fd5b6002600155565b5f80546001600160a01b038381166001600160a01b0319831681178455604051919092169283917f8be0079c531659141344cd1fd0a4f28419497f9722a3daafe3b4186f6b6457e09190a35050565b5f602082840312156113e0575f80fd5b5035919050565b6001600160a01b0381168114610a8a575f80fd5b5f6020828403121561140b575f80fd5b8135611416816113e7565b9392505050565b602080825282518282018190525f918401906040840190835b81811015611454578351835260209384019390920191600101611436565b509095945050505050565b8015158114610a8a575f80fd5b5f6020828403121561147c575f80fd5b81356114168161145f565b5f8060408385031215611498575f80fd5b50508035926020909101359150565b5f805f606084860312156114b9575f80fd5b83356114c4816113e7565b95602085013595506040909401359392505050565b602080825282518282018190525f918401906040840190835b8181101561145457835180516001600160a01b03908116855260208083015190911681860152604080830151908601526060808301519086015260808083015115159086015260a091820151918501919091529093019260c0909201916001016114f2565b6020808252601290820152714c697374696e67206e6f742061637469766560701b604082015260600190565b5f60208284031215611593575f80fd5b5051919050565b5f602082840312156115aa575f80fd5b81516114168161145f565b634e487b7160e01b5f52601160045260245ffd5b80820281158282048414176112eb576112eb6115b5565b5f826115fa57634e487b7160e01b5f52601260045260245ffd5b500490565b818103818111156112eb576112eb6115b5565b5f60018201611623576116236115b5565b5060010190565b634e487b7160e01b5f52604160045260245ffd5b634e487b7160e01b5f52603260045260245ffd5b5f60208284031215611662575f80fd5b8151611416816113e756fea264697066735822122070c05ecbbf04288cf268f37f91437e3e6aff328c3b968ba884a5601e8da8b8e864736f6c634300081a0033",
  "linkReferences": {},
  "deployedLinkReferences": {}
}