{
  "_format": "hh-sol-artifact-1",
  "contractName": "ArcMarketplace",
  "sourceName": "contracts/ArcMarketplace.sol",
  "abi": [
    {
      "inputs": [],
      "stateMutability": "nonpayable",
      "type": "constructor"
    },
    {
      "inputs": [
        {
          "internalType": "address",
          "name": "owner",
          "type": "address"
        }
      ],
      "name": "OwnableInvalidOwner",
      "type": "error"
    },
    {
      "inputs": [
        {
          "internalType": "address",
          "name": "account",
          "type": "address"
        }
      ],
      "name": "OwnableUnauthorizedAccount",
      "type": "error"
    },
    {
      "inputs": [],
      "name": "ReentrancyGuardReentrantCall",
      "type": "error"
    },
    {
      "anonymous": false,
      "inputs": [
        {
          "indexed": false,
          "internalType": "uint256",
          "name": "newFee",
          "type": "uint256"
        }
      ],
      "name": "FeeUpdated",
      "type": "event"
    },
    {
      "anonymous": false,
      "inputs": [
        {
          "indexed": true,
          "internalType": "uint256",
          "name": "listingId",
          "type": "uint256"
        },
        {
          "indexed": true,
          "internalType": "address",
          "name": "seller",
          "type": "address"
        },
        {
          "indexed": true,
          "internalType": "address",
          "name": "nftContract",
          "type": "address"
        },
        {
          "indexed": false,
          "internalType": "uint256",
          "name": "tokenId",
          "type": "uint256"
        },
        {
          "indexed": false,
          "internalType": "uint256",
          "name": "price",
          "type": "uint256"
        }
      ],
      "name": "Listed",
      "type": "event"
    },
    {
      "anonymous": false,
      "inputs": [
        {
          "indexed": true,
          "internalType": "uint256",
          "name": "listingId",
          "type": "uint256"
        }
      ],
      "name": "ListingCancelled",
      "type": "event"
    },
    {
      "anonymous": false,
      "inputs": [
        {
          "indexed": true,
          "internalType": "address",
          "name": "previousOwner",
          "type": "address"
        },
        {
          "indexed": true,
          "internalType": "address",
          "name": "newOwner",
          "type": "address"
        }
      ],
      "name": "OwnershipTransferred",
      "type": "event"
    },
    {
      "anonymous": false,
      "inputs": [
        {
          "indexed": true,
          "internalType": "uint256",
          "name": "listingId",
          "type": "uint256"
        },
        {
          "indexed": false,
          "internalType": "uint256",
          "name": "newPrice",
          "type": "uint256"
        }
      ],
      "name": "PriceUpdated",
      "type": "event"
    },
    {
      "anonymous": false,
      "inputs": [
        {
          "indexed": true,
          "internalType": "uint256",
          "name": "listingId",
          "type": "uint256"
        },
        {
          "indexed": true,
          "internalType": "address",
          "name": "buyer",
          "type": "address"
        },
        {
          "indexed": true,
          "internalType": "address",
          "name": "seller",
          "type": "address"
        },
        {
          "indexed": false,
          "internalType": "uint256",
          "name": "price",
          "type": "uint256"
        },
        {
          "indexed": false,
          "internalType": "uint256",
          "name": "fee",
          "type": "uint256"
        }
      ],
      "name": "Sale",
      "type": "event"
    },
    {
      "inputs": [],
      "name": "MAX_FEE",
      "outputs": [
        {
          "internalType": "uint256",
          "name": "",
          "type": "uint256"
        }
      ],
      "stateMutability": "view",
      "type": "function"
    },
    {
      "inputs": [
        {
          "internalType": "uint256",
          "name": "listingId",
          "type": "uint256"
        }
      ],
      "name": "buyNFT",
      "outputs": [],
      "stateMutability": "payable",
      "type": "function"
    },
    {
      "inputs": [
        {
          "internalType": "uint256",
          "name": "listingId",
          "type": "uint256"
        }
      ],
      "name": "cancelListing",
      "outputs": [],
      "stateMutability": "nonpayable",
      "type": "function"
    },
    {
      "inputs": [
        {
          "internalType": "uint256",
          "name": "offset",
          "type": "uint256"
        },
        {
          "internalType": "uint256",
          "name": "limit",
          "type": "uint256"
        }
      ],
      "name": "getActiveListings",
      "outputs": [
        {
          "components": [
            {
              "internalType": "address",
              "name": "seller",
              "type": "address"
            },
            {
              "internalType": "address",
              "name": "nftContract",
              "type": "address"
            },
            {
              "internalType": "uint256",
              "name": "tokenId",
              "type": "uint256"
            },
            {
              "internalType": "uint256",
              "name": "price",
              "type": "uint256"
            },
            {
              "internalType": "bool",
              "name": "isActive",
              "type": "bool"
            },
            {
              "internalType": "uint256",
              "name": "createdAt",
              "type": "uint256"
            }
          ],
          "internalType": "struct ArcMarketplace.Listing[]",
          "name": "",
          "type": "tuple[]"
        }
      ],
      "stateMutability": "view",
      "type": "function"
    },
    {
      "inputs": [
        {
          "internalType": "address",
          "name": "seller",
          "type": "address"
        }
      ],
      "name": "getSellerListings",
      "outputs": [
        {
          "internalType": "uint256[]",
          "name": "",
          "type": "uint256[]"
        }
      ],
      "stateMutability": "view",
      "type": "function"
    },
    {
      "inputs": [
        {
          "internalType": "address",
          "name": "nftContract",
          "type": "address"
        },
        {
          "internalType": "uint256",
          "name": "tokenId",
          "type": "uint256"
        },
        {
          "internalType": "uint256",
          "name": "price",
          "type": "uint256"
        }
      ],
      "name": "listNFT",
      "outputs": [
        {
          "internalType": "uint256",
          "name": "",
          "type": "uint256"
        }
      ],
      "stateMutability": "nonpayable",
      "type": "function"
    },
    {
      "inputs": [],
      "name": "listingCount",
      "outputs": [
        {
          "internalType": "uint256",
          "name": "",
          "type": "uint256"
        }
      ],
      "stateMutability": "view",
      "type": "function"
    },
    {
      "inputs": [
        {
          "internalType": "uint256",
          "name": "",
          "type": "uint256"
        }
      ],
      "name": "listings",
      "outputs": [
        {
          "internalType": "address",
          "name": "seller",
          "type": "address"
        },
        {
          "internalType": "address",
          "name": "nftContract",
          "type": "address"
        },
        {
          "internalType": "uint256",
          "name": "tokenId",
          "type": "uint256"
        },
        {
          "internalType": "uint256",
          "name": "price",
          "type": "uint256"
        },
        {
          "internalType": "bool",
          "name": "isActive",
          "type": "bool"
        },
        {
          "internalType": "uint256",
          "name": "createdAt",
          "type": "uint256"
        }
      ],
      "stateMutability": "view",
      "type": "function"
    },
    {
      "inputs": [],
      "name": "marketplaceFee",
      "outputs": [
        {
          "internalType": "uint256",
          "name": "",
          "type": "uint256"
        }
      ],
      "stateMutability": "view",
      "type": "function"
    },
    {
      "inputs": [],
      "name": "owner",
      "outputs": [
        {
          "internalType": "address",
          "name": "",
          "type": "address"
        }
      ],
      "stateMutability": "view",
      "type": "function"
    },
    {
      "inputs": [],
      "name": "paymentToken",
      "outputs": [
        {
          "internalType": "contract IERC20",
          "name": "",
          "type": "address"
        }
      ],
      "stateMutability": "view",
      "type": "function"
    },
    {
      "inputs": [],
      "name": "renounceOwnership",
      "outputs": [],
      "stateMutability": "nonpayable",
      "type": "function"
    },
    {
      "inputs": [
        {
          "internalType": "uint256",
          "name": "newFee",
          "type": "uint256"
        }
      ],
      "name": "setMarketplaceFee",
      "outputs": [],
      "stateMutability": "nonpayable",
      "type": "function"
    },
    {
      "inputs": [
        {
          "internalType": "address",
          "name": "token",
          "type": "address"
        }
      ],
      "name": "setPaymentToken",
      "outputs": [],
      "stateMutability": "nonpayable",
      "type": "function"
    },
    {
      "inputs": [
        {
          "internalType": "bool",
          "name": "_useNative",
          "type": "bool"
        }
      ],
      "name": "setUseNativeToken",
      "outputs": [],
      "stateMutability": "nonpayable",
      "type": "function"
    },
    {
      "inputs": [
        {
          "internalType": "address",
          "name": "newOwner",
          "type": "address"
        }
      ],
      "name": "transferOwnership",
      "outputs": [],
      "stateMutability": "nonpayable",
      "type": "function"
    },
    {
      "inputs": [
        {
          "internalType": "uint256",
          "name": "listingId",
          "type": "uint256"
        },
        {
          "internalType": "uint256",
          "name": "newPrice",
          "type": "uint256"
        }
      ],
      "name": "updatePrice",
      "outputs": [],
      "stateMutability": "nonpayable",
      "type": "function"
    },
    {
      "inputs": [],
      "name": "useNativeToken",
      "outputs": [
        {
          "internalType": "bool",
          "name": "",
          "type": "bool"
        }
      ],
      "stateMutability": "view",
      "type": "function"
    },
    {
      "inputs": [],
      "name": "withdrawFees",
      "outputs": [],
      "stateMutability": "nonpayable",
      "type": "function"
    }
  ],
  "bytecode": "0x608060405260fa6004556005805460ff60a01b1916600160a01b17905534801561002857600080fd5b50338061004f57604051631e4fbdf760e01b81526000600482015260240160405180910390fd5b61005881610062565b50600180556100b2565b600080546001600160a01b038381166001600160a01b0319831681178455604051919092169283917f8be0079c531659141344cd1fd0a4f28419497f9722a3daafe3b4186f6b6457e09190a35050565b611725806100c16000396000f3fe6080604052600436106101145760003560e01c80638232697a116100a0578063ad05f1b411610064578063ad05f1b4146102eb578063bc063e1a1461030b578063c128b23114610321578063de74e57b1461034e578063f2fde38b146103ea57600080fd5b80638232697a1461024657806382367b2d146102775780638da5cb5b146102975780639407ea98146102b5578063a9b07c26146102d557600080fd5b80635f42da09116100e75780635f42da09146101a05780636a166964146101cd5780636a326ab1146101f1578063715018a6146102115780637b6272491461022657600080fd5b80633013ce2914610119578063305a67a814610156578063476343ee1461017857806351ed82881461018d575b600080fd5b34801561012557600080fd5b50600554610139906001600160a01b031681565b6040516001600160a01b0390911681526020015b60405180910390f35b34801561016257600080fd5b5061017661017136600461142b565b61040a565b005b34801561018457600080fd5b506101766104df565b61017661019b36600461142b565b6106c5565b3480156101ac57600080fd5b506101c06101bb366004611459565b610ac8565b60405161014d919061147d565b3480156101d957600080fd5b506101e360045481565b60405190815260200161014d565b3480156101fd57600080fd5b5061017661020c366004611459565b610c21565b34801561021d57600080fd5b50610176610c4a565b34801561023257600080fd5b506101766102413660046114cf565b610c5c565b34801561025257600080fd5b5060055461026790600160a01b900460ff1681565b604051901515815260200161014d565b34801561028357600080fd5b506101766102923660046114ec565b610c82565b3480156102a357600080fd5b506000546001600160a01b0316610139565b3480156102c157600080fd5b506101766102d036600461142b565b610d8f565b3480156102e157600080fd5b506101e360035481565b3480156102f757600080fd5b506101e361030636600461150e565b610e13565b34801561031757600080fd5b506101e36103e881565b34801561032d57600080fd5b5061034161033c3660046114ec565b611157565b60405161014d9190611543565b34801561035a57600080fd5b506103b061036936600461142b565b60026020819052600091825260409091208054600182015492820154600383015460048401546005909401546001600160a01b0393841695909316939192909160ff169086565b604080516001600160a01b0397881681529690951660208701529385019290925260608401521515608083015260a082015260c00161014d565b3480156103f657600080fd5b50610176610405366004611459565b611349565b6000818152600260205260409020600481015460ff166104455760405162461bcd60e51b815260040161043c906115c9565b60405180910390fd5b80546001600160a01b031633148061046757506000546001600160a01b031633145b6104a45760405162461bcd60e51b815260206004820152600e60248201526d139bdd08185d5d1a1bdc9a5e995960921b604482015260640161043c565b60048101805460ff1916905560405182907f411aee90354c51b1b04cd563fcab2617142a9d50da19232d888547c8a1b7fd8a90600090a25050565b6104e7611384565b600554600160a01b900460ff161561057a57478061053d5760405162461bcd60e51b81526020600482015260136024820152724e6f206665657320746f20776974686472617760681b604482015260640161043c565b600080546040516001600160a01b039091169183156108fc02918491818181858888f19350505050158015610576573d6000803e3d6000fd5b5050565b6005546040516370a0823160e01b81523060048201526000916001600160a01b0316906370a0823190602401602060405180830381865afa1580156105c3573d6000803e3d6000fd5b505050506040513d601f19601f820116820180604052508101906105e791906115f5565b90506000811161062f5760405162461bcd60e51b81526020600482015260136024820152724e6f206665657320746f20776974686472617760681b604482015260640161043c565b6005546001600160a01b031663a9059cbb6106526000546001600160a01b031690565b6040516001600160e01b031960e084901b1681526001600160a01b039091166004820152602481018490526044016020604051808303816000875af115801561069f573d6000803e3d6000fd5b505050506040513d601f19601f82011682018060405250810190610576919061160e565b565b6106cd6113b1565b6000818152600260205260409020600481015460ff166106ff5760405162461bcd60e51b815260040161043c906115c9565b8054336001600160a01b039091160361075a5760405162461bcd60e51b815260206004820152601760248201527f43616e6e6f742062757920796f7572206f776e204e4654000000000000000000604482015260640161043c565b6003810154600454600090612710906107739084611641565b61077d9190611658565b9050600061078b828461167a565b600554909150600160a01b900460ff161561086657823410156107e75760405162461bcd60e51b8152602060048201526014602482015273125b9cdd59999a58da595b9d081c185e5b595b9d60621b604482015260640161043c565b83546040516001600160a01b039091169082156108fc029083906000818181858888f19350505050158015610820573d6000803e3d6000fd5b508234111561086157336108fc610837853461167a565b6040518115909202916000818181858888f1935050505015801561085f573d6000803e3d6000fd5b505b6109ec565b60055484546040516323b872dd60e01b81523360048201526001600160a01b039182166024820152604481018490529116906323b872dd906064016020604051808303816000875af11580156108c0573d6000803e3d6000fd5b505050506040513d601f19601f820116820180604052508101906108e4919061160e565b6109305760405162461bcd60e51b815260206004820152601860248201527f5061796d656e7420746f2073656c6c6572206661696c65640000000000000000604482015260640161043c565b6005546040516323b872dd60e01b8152336004820152306024820152604481018490526001600160a01b03909116906323b872dd906064016020604051808303816000875af1158015610987573d6000803e3d6000fd5b505050506040513d601f19601f820116820180604052508101906109ab919061160e565b6109ec5760405162461bcd60e51b8152602060048201526012602482015271119959481c185e5b595b9d0819985a5b195960721b604482015260640161043c565b600184015484546002860154604051632142170760e11b81526001600160a01b03928316600482015233602482015260448101919091529116906342842e0e90606401600060405180830381600087803b158015610a4957600080fd5b505af1158015610a5d573d6000803e3d6000fd5b5050505060048401805460ff19169055835460408051858152602081018590526001600160a01b0390921691339188917ff3debaf22196a6ddf52a60fa71058cd7edf5e25bb98f4e96c994a5d4a9b0dd3e910160405180910390a450505050610ac560018055565b50565b6060600060015b6003548111610b37576000818152600260205260409020546001600160a01b038581169116148015610b12575060008181526002602052604090206004015460ff165b15610b255781610b218161168d565b9250505b80610b2f8161168d565b915050610acf565b5060008167ffffffffffffffff811115610b5357610b536116a6565b604051908082528060200260200182016040528015610b7c578160200160208202803683370190505b509050600060015b6003548111158015610b9557508382105b15610c17576000818152600260205260409020546001600160a01b038781169116148015610bd4575060008181526002602052604090206004015460ff165b15610c055780838381518110610bec57610bec6116bc565b602090810291909101015281610c018161168d565b9250505b80610c0f8161168d565b915050610b84565b5090949350505050565b610c29611384565b600580546001600160a81b0319166001600160a01b03909216919091179055565b610c52611384565b6106c360006113db565b610c64611384565b60058054911515600160a01b0260ff60a01b19909216919091179055565b6000828152600260205260409020600481015460ff16610cb45760405162461bcd60e51b815260040161043c906115c9565b80546001600160a01b03163314610cfe5760405162461bcd60e51b815260206004820152600e60248201526d2737ba103a34329039b2b63632b960911b604482015260640161043c565b60008211610d4e5760405162461bcd60e51b815260206004820152601c60248201527f5072696365206d7573742062652067726561746572207468616e203000000000604482015260640161043c565b6003810182905560405182815283907f945c1c4e99aa89f648fbfe3df471b916f719e16d960fcec0737d4d56bd6968389060200160405180910390a2505050565b610d97611384565b6103e8811115610dd85760405162461bcd60e51b815260206004820152600c60248201526b08ccaca40e8dede40d0d2ced60a31b604482015260640161043c565b60048190556040518181527f8c4d35e54a3f2ef1134138fd8ea3daee6a3c89e10d2665996babdf70261e2c769060200160405180910390a150565b6000808211610e645760405162461bcd60e51b815260206004820152601c60248201527f5072696365206d7573742062652067726561746572207468616e203000000000604482015260640161043c565b6040516331a9108f60e11b815260048101849052849033906001600160a01b03831690636352211e90602401602060405180830381865afa158015610ead573d6000803e3d6000fd5b505050506040513d601f19601f82011682018060405250810190610ed191906116d2565b6001600160a01b031614610f175760405162461bcd60e51b815260206004820152600d60248201526c2737ba103a34329037bbb732b960991b604482015260640161043c565b60405163e985e9c560e01b81523360048201523060248201526001600160a01b0382169063e985e9c590604401602060405180830381865afa158015610f61573d6000803e3d6000fd5b505050506040513d601f19601f82011682018060405250810190610f85919061160e565b80611001575060405163020604bf60e21b81526004810185905230906001600160a01b0383169063081812fc90602401602060405180830381865afa158015610fd2573d6000803e3d6000fd5b505050506040513d601f19601f82011682018060405250810190610ff691906116d2565b6001600160a01b0316145b61104d5760405162461bcd60e51b815260206004820152601860248201527f4d61726b6574706c616365206e6f7420617070726f7665640000000000000000604482015260640161043c565b6003805490600061105d8361168d565b90915550506040805160c081018252338082526001600160a01b0388811660208085018281528587018b8152606087018b81526001608089018181524260a08b019081526003805460009081526002808a52908e90209c518d546001600160a01b0319908116918d16919091178e559751948d01805490981694909a169390931790955592519689019690965551878601555160048701805460ff191691151591909117905551600590950194909455905484518981529384018890529093919290917f723f73331eaee88eec7fc68ef60ab6ed15e4b90d0472b55eb92fa43910bab6dd910160405180910390a450506003549392505050565b6060600060015b60035481116111a15760008181526002602052604090206004015460ff161561118f578161118b8161168d565b9250505b806111998161168d565b91505061115e565b5060008482116111b25760006111bc565b6111bc858361167a565b9050838111156111c95750825b60008167ffffffffffffffff8111156111e4576111e46116a6565b60405190808252806020026020018201604052801561124457816020015b6040805160c08101825260008082526020808301829052928201819052606082018190526080820181905260a082015282526000199092019101816112025790505b50905060008060015b600354811115801561125e57508483105b1561133a5760008181526002602052604090206004015460ff16156113285788821015611297578161128f8161168d565b925050611328565b600081815260026020818152604092839020835160c08101855281546001600160a01b03908116825260018301541692810192909252918201549281019290925260038101546060830152600481015460ff16151560808301526005015460a0820152845185908590811061130e5761130e6116bc565b602002602001018190525082806113249061168d565b9350505b806113328161168d565b91505061124d565b50919450505050505b92915050565b611351611384565b6001600160a01b03811661137b57604051631e4fbdf760e01b81526000600482015260240161043c565b610ac5816113db565b6000546001600160a01b031633146106c35760405163118cdaa760e01b815233600482015260240161043c565b6002600154036113d457604051633ee5aeb560e01b815260040160405180910390fd5b6002600155565b600080546001600160a01b038381166001600160a01b0319831681178455604051919092169283917f8be0079c531659141344cd1fd0a4f28419497f9722a3daafe3b4186f6b6457e09190a35050565b60006020828403121561143d57600080fd5b5035919050565b6001600160a01b0381168114610ac557600080fd5b60006020828403121561146b57600080fd5b813561147681611444565b9392505050565b6020808252825182820181905260009190848201906040850190845b818110156114b557835183529284019291840191600101611499565b50909695505050505050565b8015158114610ac557600080fd5b6000602082840312156114e157600080fd5b8135611476816114c1565b600080604083850312156114ff57600080fd5b50508035926020909101359150565b60008060006060848603121561152357600080fd5b833561152e81611444565b95602085013595506040909401359392505050565b602080825282518282018190526000919060409081850190868401855b828110156115bc57815180516001600160a01b03908116865287820151168786015285810151868601526060808201519086015260808082015115159086015260a0908101519085015260c09093019290850190600101611560565b5091979650505050505050565b6020808252601290820152714c697374696e67206e6f742061637469766560701b604082015260600190565b60006020828403121561160757600080fd5b5051919050565b60006020828403121561162057600080fd5b8151611476816114c1565b634e487b7160e01b600052601160045260246000fd5b80820281158282048414176113435761134361162b565b60008261167557634e487b7160e01b600052601260045260246000fd5b500490565b818103818111156113435761134361162b565b60006001820161169f5761169f61162b565b5060010190565b634e487b7160e01b600052604160045260246000fd5b634e487b7160e01b600052603260045260246000fd5b6000602082840312156116e457600080fd5b81516114768161144456fea26469706673582212206ca0df6f6aba1bc8d2337a47f1dd74046af941c40171f1def496723f98c4e60d64736f6c63430008140033",
  "linkReferences": {},
  "deployedLinkReferences": {}
}